{
	"Factory.sol": {
		"Factory": {
			"abi": [
				{
					"inputs": [],
					"stateMutability": "nonpayable",
					"type": "constructor"
				},
				{
					"anonymous": false,
					"inputs": [
						{
							"indexed": true,
							"internalType": "address",
							"name": "addrNewOffer",
							"type": "address"
						},
						{
							"indexed": true,
							"internalType": "uint256",
							"name": "min_price",
							"type": "uint256"
						},
						{
							"indexed": true,
							"internalType": "uint256",
							"name": "min_deposit",
							"type": "uint256"
						}
					],
					"name": "CreateNewOffer",
					"type": "event"
				},
				{
					"inputs": [
						{
							"internalType": "uint256",
							"name": "_id",
							"type": "uint256"
						},
						{
							"internalType": "uint256",
							"name": "_min_price",
							"type": "uint256"
						},
						{
							"internalType": "uint256",
							"name": "_min_deposit",
							"type": "uint256"
						}
					],
					"name": "create_offer",
					"outputs": [],
					"stateMutability": "nonpayable",
					"type": "function"
				},
				{
					"inputs": [],
					"name": "get_offersId",
					"outputs": [
						{
							"internalType": "uint256[]",
							"name": "",
							"type": "uint256[]"
						}
					],
					"stateMutability": "view",
					"type": "function"
				},
				{
					"inputs": [
						{
							"internalType": "uint256",
							"name": "",
							"type": "uint256"
						}
					],
					"name": "idStructOffer",
					"outputs": [
						{
							"internalType": "address",
							"name": "offer",
							"type": "address"
						},
						{
							"internalType": "uint256",
							"name": "min_price",
							"type": "uint256"
						},
						{
							"internalType": "uint256",
							"name": "min_deposit",
							"type": "uint256"
						}
					],
					"stateMutability": "view",
					"type": "function"
				},
				{
					"inputs": [
						{
							"internalType": "uint256",
							"name": "",
							"type": "uint256"
						}
					],
					"name": "offersId",
					"outputs": [
						{
							"internalType": "uint256",
							"name": "",
							"type": "uint256"
						}
					],
					"stateMutability": "view",
					"type": "function"
				},
				{
					"inputs": [],
					"name": "ownerFactory",
					"outputs": [
						{
							"internalType": "address",
							"name": "",
							"type": "address"
						}
					],
					"stateMutability": "view",
					"type": "function"
				},
				{
					"inputs": [
						{
							"internalType": "address",
							"name": "_addr",
							"type": "address"
						},
						{
							"internalType": "uint256",
							"name": "_comissionWithdraw",
							"type": "uint256"
						}
					],
					"name": "withdrawComission",
					"outputs": [],
					"stateMutability": "nonpayable",
					"type": "function"
				},
				{
					"stateMutability": "payable",
					"type": "receive"
				}
			],
			"devdoc": {
				"kind": "dev",
				"methods": {},
				"version": 1
			},
			"evm": {
				"assembly": "    /* \"Factory.sol\":80:3754  contract Factory {... */\n  mstore(0x40, 0x80)\n    /* \"Factory.sol\":460:598  constructor() {... */\n  callvalue\n  dup1\n  iszero\n  tag_1\n  jumpi\n  0x00\n  dup1\n  revert\ntag_1:\n  pop\n    /* \"Factory.sol\":581:591  msg.sender */\n  caller\n    /* \"Factory.sol\":566:578  ownerFactory */\n  0x00\n  dup1\n    /* \"Factory.sol\":566:591  ownerFactory = msg.sender */\n  0x0100\n  exp\n  dup2\n  sload\n  dup2\n  0xffffffffffffffffffffffffffffffffffffffff\n  mul\n  not\n  and\n  swap1\n  dup4\n  0xffffffffffffffffffffffffffffffffffffffff\n  and\n  mul\n  or\n  swap1\n  sstore\n  pop\n    /* \"Factory.sol\":80:3754  contract Factory {... */\n  dataSize(sub_0)\n  dup1\n  dataOffset(sub_0)\n  0x00\n  codecopy\n  0x00\n  return\nstop\n\nsub_0: assembly {\n        /* \"Factory.sol\":80:3754  contract Factory {... */\n      mstore(0x40, 0x80)\n      jumpi(tag_1, lt(calldatasize, 0x04))\n      shr(0xe0, calldataload(0x00))\n      dup1\n      0x28799a8e\n      eq\n      tag_3\n      jumpi\n      dup1\n      0xb0e743dd\n      eq\n      tag_4\n      jumpi\n      dup1\n      0xcb7e142e\n      eq\n      tag_5\n      jumpi\n      dup1\n      0xd2779e0e\n      eq\n      tag_6\n      jumpi\n      dup1\n      0xd42a6937\n      eq\n      tag_7\n      jumpi\n      dup1\n      0xe78fec6f\n      eq\n      tag_8\n      jumpi\n      jump(tag_2)\n    tag_1:\n      jumpi(tag_2, calldatasize)\n      stop\n    tag_2:\n      0x00\n      dup1\n      revert\n        /* \"Factory.sol\":3475:3717  function withdrawComission(... */\n    tag_3:\n      callvalue\n      dup1\n      iszero\n      tag_11\n      jumpi\n      0x00\n      dup1\n      revert\n    tag_11:\n      pop\n      tag_12\n      0x04\n      dup1\n      calldatasize\n      sub\n      dup2\n      add\n      swap1\n      tag_13\n      swap2\n      swap1\n      tag_14\n      jump\t// in\n    tag_13:\n      tag_15\n      jump\t// in\n    tag_12:\n      stop\n        /* \"Factory.sol\":3307:3469  function get_offersId() public view returns (uint256[] memory) {... */\n    tag_4:\n      callvalue\n      dup1\n      iszero\n      tag_16\n      jumpi\n      0x00\n      dup1\n      revert\n    tag_16:\n      pop\n      tag_17\n      tag_18\n      jump\t// in\n    tag_17:\n      mload(0x40)\n      tag_19\n      swap2\n      swap1\n      tag_20\n      jump\t// in\n    tag_19:\n      mload(0x40)\n      dup1\n      swap2\n      sub\n      swap1\n      return\n        /* \"Factory.sol\":1345:2884  function create_offer(... */\n    tag_5:\n      callvalue\n      dup1\n      iszero\n      tag_21\n      jumpi\n      0x00\n      dup1\n      revert\n    tag_21:\n      pop\n      tag_22\n      0x04\n      dup1\n      calldatasize\n      sub\n      dup2\n      add\n      swap1\n      tag_23\n      swap2\n      swap1\n      tag_24\n      jump\t// in\n    tag_23:\n      tag_25\n      jump\t// in\n    tag_22:\n      stop\n        /* \"Factory.sol\":103:130  address public ownerFactory */\n    tag_6:\n      callvalue\n      dup1\n      iszero\n      tag_26\n      jumpi\n      0x00\n      dup1\n      revert\n    tag_26:\n      pop\n      tag_27\n      tag_28\n      jump\t// in\n    tag_27:\n      mload(0x40)\n      tag_29\n      swap2\n      swap1\n      tag_30\n      jump\t// in\n    tag_29:\n      mload(0x40)\n      dup1\n      swap2\n      sub\n      swap1\n      return\n        /* \"Factory.sol\":218:243  uint256[] public offersId */\n    tag_7:\n      callvalue\n      dup1\n      iszero\n      tag_31\n      jumpi\n      0x00\n      dup1\n      revert\n    tag_31:\n      pop\n      tag_32\n      0x04\n      dup1\n      calldatasize\n      sub\n      dup2\n      add\n      swap1\n      tag_33\n      swap2\n      swap1\n      tag_34\n      jump\t// in\n    tag_33:\n      tag_35\n      jump\t// in\n    tag_32:\n      mload(0x40)\n      tag_36\n      swap2\n      swap1\n      tag_37\n      jump\t// in\n    tag_36:\n      mload(0x40)\n      dup1\n      swap2\n      sub\n      swap1\n      return\n        /* \"Factory.sol\":283:332  mapping(uint256 => OfferStr) public idStructOffer */\n    tag_8:\n      callvalue\n      dup1\n      iszero\n      tag_38\n      jumpi\n      0x00\n      dup1\n      revert\n    tag_38:\n      pop\n      tag_39\n      0x04\n      dup1\n      calldatasize\n      sub\n      dup2\n      add\n      swap1\n      tag_40\n      swap2\n      swap1\n      tag_34\n      jump\t// in\n    tag_40:\n      tag_41\n      jump\t// in\n    tag_39:\n      mload(0x40)\n      tag_42\n      swap4\n      swap3\n      swap2\n      swap1\n      tag_43\n      jump\t// in\n    tag_42:\n      mload(0x40)\n      dup1\n      swap2\n      sub\n      swap1\n      return\n        /* \"Factory.sol\":3475:3717  function withdrawComission(... */\n    tag_15:\n        /* \"Factory.sol\":677:689  ownerFactory */\n      0x00\n      dup1\n      sload\n      swap1\n      0x0100\n      exp\n      swap1\n      div\n      0xffffffffffffffffffffffffffffffffffffffff\n      and\n        /* \"Factory.sol\":663:689  msg.sender == ownerFactory */\n      0xffffffffffffffffffffffffffffffffffffffff\n      and\n        /* \"Factory.sol\":663:673  msg.sender */\n      caller\n        /* \"Factory.sol\":663:689  msg.sender == ownerFactory */\n      0xffffffffffffffffffffffffffffffffffffffff\n      and\n      eq\n        /* \"Factory.sol\":642:770  require(... */\n      tag_45\n      jumpi\n      mload(0x40)\n      0x08c379a000000000000000000000000000000000000000000000000000000000\n      dup2\n      mstore\n      0x04\n      add\n      tag_46\n      swap1\n      tag_47\n      jump\t// in\n    tag_46:\n      mload(0x40)\n      dup1\n      swap2\n      sub\n      swap1\n      revert\n    tag_45:\n        /* \"Factory.sol\":3631:3652  address(this).balance */\n      selfbalance\n        /* \"Factory.sol\":3609:3627  _comissionWithdraw */\n      dup2\n        /* \"Factory.sol\":3609:3652  _comissionWithdraw <= address(this).balance */\n      gt\n      iszero\n        /* \"Factory.sol\":3601:3657  require(_comissionWithdraw <= address(this).balance, \"\") */\n      tag_49\n      jumpi\n      mload(0x40)\n      0x08c379a000000000000000000000000000000000000000000000000000000000\n      dup2\n      mstore\n      0x04\n      add\n      tag_50\n      swap1\n      tag_51\n      jump\t// in\n    tag_50:\n      mload(0x40)\n      dup1\n      swap2\n      sub\n      swap1\n      revert\n    tag_49:\n        /* \"Factory.sol\":3675:3680  _addr */\n      dup2\n        /* \"Factory.sol\":3667:3690  payable(_addr).transfer */\n      0xffffffffffffffffffffffffffffffffffffffff\n      and\n        /* \"Factory.sol\":3667:3710  payable(_addr).transfer(_comissionWithdraw) */\n      0x08fc\n        /* \"Factory.sol\":3691:3709  _comissionWithdraw */\n      dup3\n        /* \"Factory.sol\":3667:3710  payable(_addr).transfer(_comissionWithdraw) */\n      swap1\n      dup2\n      iszero\n      mul\n      swap1\n      mload(0x40)\n      0x00\n      mload(0x40)\n      dup1\n      dup4\n      sub\n      dup2\n      dup6\n      dup9\n      dup9\n      call\n      swap4\n      pop\n      pop\n      pop\n      pop\n      iszero\n      dup1\n      iszero\n      tag_53\n      jumpi\n      returndatasize\n      0x00\n      dup1\n      returndatacopy\n      revert(0x00, returndatasize)\n    tag_53:\n      pop\n        /* \"Factory.sol\":3475:3717  function withdrawComission(... */\n      pop\n      pop\n      jump\t// out\n        /* \"Factory.sol\":3307:3469  function get_offersId() public view returns (uint256[] memory) {... */\n    tag_18:\n        /* \"Factory.sol\":3352:3368  uint256[] memory */\n      0x60\n        /* \"Factory.sol\":3454:3462  offersId */\n      0x01\n        /* \"Factory.sol\":3447:3462  return offersId */\n      dup1\n      sload\n      dup1\n      0x20\n      mul\n      0x20\n      add\n      mload(0x40)\n      swap1\n      dup2\n      add\n      0x40\n      mstore\n      dup1\n      swap3\n      swap2\n      swap1\n      dup2\n      dup2\n      mstore\n      0x20\n      add\n      dup3\n      dup1\n      sload\n      dup1\n      iszero\n      tag_55\n      jumpi\n      0x20\n      mul\n      dup3\n      add\n      swap2\n      swap1\n      0x00\n      mstore\n      keccak256(0x00, 0x20)\n      swap1\n    tag_56:\n      dup2\n      sload\n      dup2\n      mstore\n      0x20\n      add\n      swap1\n      0x01\n      add\n      swap1\n      dup1\n      dup4\n      gt\n      tag_56\n      jumpi\n    tag_55:\n      pop\n      pop\n      pop\n      pop\n      pop\n      swap1\n      pop\n        /* \"Factory.sol\":3307:3469  function get_offersId() public view returns (uint256[] memory) {... */\n      swap1\n      jump\t// out\n        /* \"Factory.sol\":1345:2884  function create_offer(... */\n    tag_25:\n        /* \"Factory.sol\":1585:1586  0 */\n      0x00\n        /* \"Factory.sol\":1559:1569  msg.sender */\n      caller\n        /* \"Factory.sol\":1559:1581  msg.sender.code.length */\n      0xffffffffffffffffffffffffffffffffffffffff\n      and\n      extcodesize\n        /* \"Factory.sol\":1559:1586  msg.sender.code.length == 0 */\n      eq\n        /* \"Factory.sol\":1538:1652  require(... */\n      tag_58\n      jumpi\n      mload(0x40)\n      0x08c379a000000000000000000000000000000000000000000000000000000000\n      dup2\n      mstore\n      0x04\n      add\n      tag_59\n      swap1\n      tag_60\n      jump\t// in\n    tag_59:\n      mload(0x40)\n      dup1\n      swap2\n      sub\n      swap1\n      revert\n    tag_58:\n        /* \"Factory.sol\":1853:1854  0 */\n      0x00\n        /* \"Factory.sol\":1817:1855  idStructOffer[_id].offer == address(0) */\n      0xffffffffffffffffffffffffffffffffffffffff\n      and\n        /* \"Factory.sol\":1817:1830  idStructOffer */\n      0x02\n        /* \"Factory.sol\":1817:1835  idStructOffer[_id] */\n      0x00\n        /* \"Factory.sol\":1831:1834  _id */\n      dup6\n        /* \"Factory.sol\":1817:1835  idStructOffer[_id] */\n      dup2\n      mstore\n      0x20\n      add\n      swap1\n      dup2\n      mstore\n      0x20\n      add\n      0x00\n      keccak256\n        /* \"Factory.sol\":1817:1841  idStructOffer[_id].offer */\n      0x00\n      add\n      0x00\n      swap1\n      sload\n      swap1\n      0x0100\n      exp\n      swap1\n      div\n      0xffffffffffffffffffffffffffffffffffffffff\n      and\n        /* \"Factory.sol\":1817:1855  idStructOffer[_id].offer == address(0) */\n      0xffffffffffffffffffffffffffffffffffffffff\n      and\n      eq\n        /* \"Factory.sol\":1796:1919  require(... */\n      tag_61\n      jumpi\n      mload(0x40)\n      0x08c379a000000000000000000000000000000000000000000000000000000000\n      dup2\n      mstore\n      0x04\n      add\n      tag_62\n      swap1\n      tag_63\n      jump\t// in\n    tag_62:\n      mload(0x40)\n      dup1\n      swap2\n      sub\n      swap1\n      revert\n    tag_61:\n        /* \"Factory.sol\":2033:2047  Offer newOffer */\n      0x00\n        /* \"Factory.sol\":2060:2063  _id */\n      dup4\n        /* \"Factory.sol\":2065:2075  _min_price */\n      dup4\n        /* \"Factory.sol\":2077:2089  _min_deposit */\n      dup4\n        /* \"Factory.sol\":2050:2090  new Offer(_id, _min_price, _min_deposit) */\n      mload(0x40)\n      tag_64\n      swap1\n      tag_65\n      jump\t// in\n    tag_64:\n      tag_66\n      swap4\n      swap3\n      swap2\n      swap1\n      tag_67\n      jump\t// in\n    tag_66:\n      mload(0x40)\n      dup1\n      swap2\n      sub\n      swap1\n      0x00\n      create\n      dup1\n      iszero\n      dup1\n      iszero\n      tag_68\n      jumpi\n      returndatasize\n      0x00\n      dup1\n      returndatacopy\n      revert(0x00, returndatasize)\n    tag_68:\n      pop\n        /* \"Factory.sol\":2033:2090  Offer newOffer = new Offer(_id, _min_price, _min_deposit) */\n      swap1\n      pop\n        /* \"Factory.sol\":2175:2183  newOffer */\n      dup1\n        /* \"Factory.sol\":2140:2153  idStructOffer */\n      0x02\n        /* \"Factory.sol\":2140:2158  idStructOffer[_id] */\n      0x00\n        /* \"Factory.sol\":2154:2157  _id */\n      dup7\n        /* \"Factory.sol\":2140:2158  idStructOffer[_id] */\n      dup2\n      mstore\n      0x20\n      add\n      swap1\n      dup2\n      mstore\n      0x20\n      add\n      0x00\n      keccak256\n        /* \"Factory.sol\":2140:2164  idStructOffer[_id].offer */\n      0x00\n      add\n      0x00\n        /* \"Factory.sol\":2140:2184  idStructOffer[_id].offer = address(newOffer) */\n      0x0100\n      exp\n      dup2\n      sload\n      dup2\n      0xffffffffffffffffffffffffffffffffffffffff\n      mul\n      not\n      and\n      swap1\n      dup4\n      0xffffffffffffffffffffffffffffffffffffffff\n      and\n      mul\n      or\n      swap1\n      sstore\n      pop\n        /* \"Factory.sol\":2287:2297  _min_price */\n      dup3\n        /* \"Factory.sol\":2256:2269  idStructOffer */\n      0x02\n        /* \"Factory.sol\":2256:2274  idStructOffer[_id] */\n      0x00\n        /* \"Factory.sol\":2270:2273  _id */\n      dup7\n        /* \"Factory.sol\":2256:2274  idStructOffer[_id] */\n      dup2\n      mstore\n      0x20\n      add\n      swap1\n      dup2\n      mstore\n      0x20\n      add\n      0x00\n      keccak256\n        /* \"Factory.sol\":2256:2284  idStructOffer[_id].min_price */\n      0x01\n      add\n        /* \"Factory.sol\":2256:2297  idStructOffer[_id].min_price = _min_price */\n      dup2\n      swap1\n      sstore\n      pop\n        /* \"Factory.sol\":2412:2424  _min_deposit */\n      dup2\n        /* \"Factory.sol\":2379:2392  idStructOffer */\n      0x02\n        /* \"Factory.sol\":2379:2397  idStructOffer[_id] */\n      0x00\n        /* \"Factory.sol\":2393:2396  _id */\n      dup7\n        /* \"Factory.sol\":2379:2397  idStructOffer[_id] */\n      dup2\n      mstore\n      0x20\n      add\n      swap1\n      dup2\n      mstore\n      0x20\n      add\n      0x00\n      keccak256\n        /* \"Factory.sol\":2379:2409  idStructOffer[_id].min_deposit */\n      0x02\n      add\n        /* \"Factory.sol\":2379:2424  idStructOffer[_id].min_deposit = _min_deposit */\n      dup2\n      swap1\n      sstore\n      pop\n        /* \"Factory.sol\":2510:2518  offersId */\n      0x01\n        /* \"Factory.sol\":2524:2527  _id */\n      dup5\n        /* \"Factory.sol\":2510:2528  offersId.push(_id) */\n      swap1\n      dup1\n      0x01\n      dup2\n      sload\n      add\n      dup1\n      dup3\n      sstore\n      dup1\n      swap2\n      pop\n      pop\n      0x01\n      swap1\n      sub\n      swap1\n      0x00\n      mstore\n      keccak256(0x00, 0x20)\n      add\n      0x00\n      swap1\n      swap2\n      swap1\n      swap2\n      swap1\n      swap2\n      pop\n      sstore\n        /* \"Factory.sol\":2630:2642  _min_deposit */\n      dup2\n        /* \"Factory.sol\":2618:2628  _min_price */\n      dup4\n        /* \"Factory.sol\":2607:2615  newOffer */\n      dup3\n        /* \"Factory.sol\":2584:2643  CreateNewOffer(address(newOffer), _min_price, _min_deposit) */\n      0xffffffffffffffffffffffffffffffffffffffff\n      and\n      0xcfd15fff29cdfd88ab78a1a218a5938c91f81a52601ac885e0db2affeb070dcb\n      mload(0x40)\n      mload(0x40)\n      dup1\n      swap2\n      sub\n      swap1\n      log4\n        /* \"Factory.sol\":1459:2884  {... */\n      pop\n        /* \"Factory.sol\":1345:2884  function create_offer(... */\n      pop\n      pop\n      pop\n      jump\t// out\n        /* \"Factory.sol\":103:130  address public ownerFactory */\n    tag_28:\n      0x00\n      dup1\n      sload\n      swap1\n      0x0100\n      exp\n      swap1\n      div\n      0xffffffffffffffffffffffffffffffffffffffff\n      and\n      dup2\n      jump\t// out\n        /* \"Factory.sol\":218:243  uint256[] public offersId */\n    tag_35:\n      0x01\n      dup2\n      dup2\n      sload\n      dup2\n      lt\n      tag_70\n      jumpi\n      0x00\n      dup1\n      revert\n    tag_70:\n      swap1\n      0x00\n      mstore\n      keccak256(0x00, 0x20)\n      add\n      0x00\n      swap2\n      pop\n      swap1\n      pop\n      sload\n      dup2\n      jump\t// out\n        /* \"Factory.sol\":283:332  mapping(uint256 => OfferStr) public idStructOffer */\n    tag_41:\n      mstore(0x20, 0x02)\n      dup1\n      0x00\n      mstore\n      keccak256(0x00, 0x40)\n      0x00\n      swap2\n      pop\n      swap1\n      pop\n      dup1\n      0x00\n      add\n      0x00\n      swap1\n      sload\n      swap1\n      0x0100\n      exp\n      swap1\n      div\n      0xffffffffffffffffffffffffffffffffffffffff\n      and\n      swap1\n      dup1\n      0x01\n      add\n      sload\n      swap1\n      dup1\n      0x02\n      add\n      sload\n      swap1\n      pop\n      dup4\n      jump\t// out\n    tag_65:\n      dataSize(sub_0)\n      dup1\n      dataOffset(sub_0)\n      dup4\n      codecopy\n      add\n      swap1\n      jump\t// out\n        /* \"#utility.yul\":88:205   */\n    tag_73:\n        /* \"#utility.yul\":197:198   */\n      0x00\n        /* \"#utility.yul\":194:195   */\n      dup1\n        /* \"#utility.yul\":187:199   */\n      revert\n        /* \"#utility.yul\":334:460   */\n    tag_75:\n        /* \"#utility.yul\":371:378   */\n      0x00\n        /* \"#utility.yul\":411:453   */\n      0xffffffffffffffffffffffffffffffffffffffff\n        /* \"#utility.yul\":404:409   */\n      dup3\n        /* \"#utility.yul\":400:454   */\n      and\n        /* \"#utility.yul\":389:454   */\n      swap1\n      pop\n        /* \"#utility.yul\":334:460   */\n      swap2\n      swap1\n      pop\n      jump\t// out\n        /* \"#utility.yul\":466:562   */\n    tag_76:\n        /* \"#utility.yul\":503:510   */\n      0x00\n        /* \"#utility.yul\":532:556   */\n      tag_106\n        /* \"#utility.yul\":550:555   */\n      dup3\n        /* \"#utility.yul\":532:556   */\n      tag_75\n      jump\t// in\n    tag_106:\n        /* \"#utility.yul\":521:556   */\n      swap1\n      pop\n        /* \"#utility.yul\":466:562   */\n      swap2\n      swap1\n      pop\n      jump\t// out\n        /* \"#utility.yul\":568:690   */\n    tag_77:\n        /* \"#utility.yul\":641:665   */\n      tag_108\n        /* \"#utility.yul\":659:664   */\n      dup2\n        /* \"#utility.yul\":641:665   */\n      tag_76\n      jump\t// in\n    tag_108:\n        /* \"#utility.yul\":634:639   */\n      dup2\n        /* \"#utility.yul\":631:666   */\n      eq\n        /* \"#utility.yul\":621:684   */\n      tag_109\n      jumpi\n        /* \"#utility.yul\":680:681   */\n      0x00\n        /* \"#utility.yul\":677:678   */\n      dup1\n        /* \"#utility.yul\":670:682   */\n      revert\n        /* \"#utility.yul\":621:684   */\n    tag_109:\n        /* \"#utility.yul\":568:690   */\n      pop\n      jump\t// out\n        /* \"#utility.yul\":696:835   */\n    tag_78:\n        /* \"#utility.yul\":742:747   */\n      0x00\n        /* \"#utility.yul\":780:786   */\n      dup2\n        /* \"#utility.yul\":767:787   */\n      calldataload\n        /* \"#utility.yul\":758:787   */\n      swap1\n      pop\n        /* \"#utility.yul\":796:829   */\n      tag_111\n        /* \"#utility.yul\":823:828   */\n      dup2\n        /* \"#utility.yul\":796:829   */\n      tag_77\n      jump\t// in\n    tag_111:\n        /* \"#utility.yul\":696:835   */\n      swap3\n      swap2\n      pop\n      pop\n      jump\t// out\n        /* \"#utility.yul\":841:918   */\n    tag_79:\n        /* \"#utility.yul\":878:885   */\n      0x00\n        /* \"#utility.yul\":907:912   */\n      dup2\n        /* \"#utility.yul\":896:912   */\n      swap1\n      pop\n        /* \"#utility.yul\":841:918   */\n      swap2\n      swap1\n      pop\n      jump\t// out\n        /* \"#utility.yul\":924:1046   */\n    tag_80:\n        /* \"#utility.yul\":997:1021   */\n      tag_114\n        /* \"#utility.yul\":1015:1020   */\n      dup2\n        /* \"#utility.yul\":997:1021   */\n      tag_79\n      jump\t// in\n    tag_114:\n        /* \"#utility.yul\":990:995   */\n      dup2\n        /* \"#utility.yul\":987:1022   */\n      eq\n        /* \"#utility.yul\":977:1040   */\n      tag_115\n      jumpi\n        /* \"#utility.yul\":1036:1037   */\n      0x00\n        /* \"#utility.yul\":1033:1034   */\n      dup1\n        /* \"#utility.yul\":1026:1038   */\n      revert\n        /* \"#utility.yul\":977:1040   */\n    tag_115:\n        /* \"#utility.yul\":924:1046   */\n      pop\n      jump\t// out\n        /* \"#utility.yul\":1052:1191   */\n    tag_81:\n        /* \"#utility.yul\":1098:1103   */\n      0x00\n        /* \"#utility.yul\":1136:1142   */\n      dup2\n        /* \"#utility.yul\":1123:1143   */\n      calldataload\n        /* \"#utility.yul\":1114:1143   */\n      swap1\n      pop\n        /* \"#utility.yul\":1152:1185   */\n      tag_117\n        /* \"#utility.yul\":1179:1184   */\n      dup2\n        /* \"#utility.yul\":1152:1185   */\n      tag_80\n      jump\t// in\n    tag_117:\n        /* \"#utility.yul\":1052:1191   */\n      swap3\n      swap2\n      pop\n      pop\n      jump\t// out\n        /* \"#utility.yul\":1197:1671   */\n    tag_14:\n        /* \"#utility.yul\":1265:1271   */\n      0x00\n        /* \"#utility.yul\":1273:1279   */\n      dup1\n        /* \"#utility.yul\":1322:1324   */\n      0x40\n        /* \"#utility.yul\":1310:1319   */\n      dup4\n        /* \"#utility.yul\":1301:1308   */\n      dup6\n        /* \"#utility.yul\":1297:1320   */\n      sub\n        /* \"#utility.yul\":1293:1325   */\n      slt\n        /* \"#utility.yul\":1290:1409   */\n      iszero\n      tag_119\n      jumpi\n        /* \"#utility.yul\":1328:1407   */\n      tag_120\n      tag_73\n      jump\t// in\n    tag_120:\n        /* \"#utility.yul\":1290:1409   */\n    tag_119:\n        /* \"#utility.yul\":1448:1449   */\n      0x00\n        /* \"#utility.yul\":1473:1526   */\n      tag_121\n        /* \"#utility.yul\":1518:1525   */\n      dup6\n        /* \"#utility.yul\":1509:1515   */\n      dup3\n        /* \"#utility.yul\":1498:1507   */\n      dup7\n        /* \"#utility.yul\":1494:1516   */\n      add\n        /* \"#utility.yul\":1473:1526   */\n      tag_78\n      jump\t// in\n    tag_121:\n        /* \"#utility.yul\":1463:1526   */\n      swap3\n      pop\n        /* \"#utility.yul\":1419:1536   */\n      pop\n        /* \"#utility.yul\":1575:1577   */\n      0x20\n        /* \"#utility.yul\":1601:1654   */\n      tag_122\n        /* \"#utility.yul\":1646:1653   */\n      dup6\n        /* \"#utility.yul\":1637:1643   */\n      dup3\n        /* \"#utility.yul\":1626:1635   */\n      dup7\n        /* \"#utility.yul\":1622:1644   */\n      add\n        /* \"#utility.yul\":1601:1654   */\n      tag_81\n      jump\t// in\n    tag_122:\n        /* \"#utility.yul\":1591:1654   */\n      swap2\n      pop\n        /* \"#utility.yul\":1546:1664   */\n      pop\n        /* \"#utility.yul\":1197:1671   */\n      swap3\n      pop\n      swap3\n      swap1\n      pop\n      jump\t// out\n        /* \"#utility.yul\":1677:1791   */\n    tag_82:\n        /* \"#utility.yul\":1744:1750   */\n      0x00\n        /* \"#utility.yul\":1778:1783   */\n      dup2\n        /* \"#utility.yul\":1772:1784   */\n      mload\n        /* \"#utility.yul\":1762:1784   */\n      swap1\n      pop\n        /* \"#utility.yul\":1677:1791   */\n      swap2\n      swap1\n      pop\n      jump\t// out\n        /* \"#utility.yul\":1797:1981   */\n    tag_83:\n        /* \"#utility.yul\":1896:1907   */\n      0x00\n        /* \"#utility.yul\":1930:1936   */\n      dup3\n        /* \"#utility.yul\":1925:1928   */\n      dup3\n        /* \"#utility.yul\":1918:1937   */\n      mstore\n        /* \"#utility.yul\":1970:1974   */\n      0x20\n        /* \"#utility.yul\":1965:1968   */\n      dup3\n        /* \"#utility.yul\":1961:1975   */\n      add\n        /* \"#utility.yul\":1946:1975   */\n      swap1\n      pop\n        /* \"#utility.yul\":1797:1981   */\n      swap3\n      swap2\n      pop\n      pop\n      jump\t// out\n        /* \"#utility.yul\":1987:2119   */\n    tag_84:\n        /* \"#utility.yul\":2054:2058   */\n      0x00\n        /* \"#utility.yul\":2077:2080   */\n      dup2\n        /* \"#utility.yul\":2069:2080   */\n      swap1\n      pop\n        /* \"#utility.yul\":2107:2111   */\n      0x20\n        /* \"#utility.yul\":2102:2105   */\n      dup3\n        /* \"#utility.yul\":2098:2112   */\n      add\n        /* \"#utility.yul\":2090:2112   */\n      swap1\n      pop\n        /* \"#utility.yul\":1987:2119   */\n      swap2\n      swap1\n      pop\n      jump\t// out\n        /* \"#utility.yul\":2125:2233   */\n    tag_85:\n        /* \"#utility.yul\":2202:2226   */\n      tag_127\n        /* \"#utility.yul\":2220:2225   */\n      dup2\n        /* \"#utility.yul\":2202:2226   */\n      tag_79\n      jump\t// in\n    tag_127:\n        /* \"#utility.yul\":2197:2200   */\n      dup3\n        /* \"#utility.yul\":2190:2227   */\n      mstore\n        /* \"#utility.yul\":2125:2233   */\n      pop\n      pop\n      jump\t// out\n        /* \"#utility.yul\":2239:2418   */\n    tag_86:\n        /* \"#utility.yul\":2308:2318   */\n      0x00\n        /* \"#utility.yul\":2329:2375   */\n      tag_129\n        /* \"#utility.yul\":2371:2374   */\n      dup4\n        /* \"#utility.yul\":2363:2369   */\n      dup4\n        /* \"#utility.yul\":2329:2375   */\n      tag_85\n      jump\t// in\n    tag_129:\n        /* \"#utility.yul\":2407:2411   */\n      0x20\n        /* \"#utility.yul\":2402:2405   */\n      dup4\n        /* \"#utility.yul\":2398:2412   */\n      add\n        /* \"#utility.yul\":2384:2412   */\n      swap1\n      pop\n        /* \"#utility.yul\":2239:2418   */\n      swap3\n      swap2\n      pop\n      pop\n      jump\t// out\n        /* \"#utility.yul\":2424:2537   */\n    tag_87:\n        /* \"#utility.yul\":2494:2498   */\n      0x00\n        /* \"#utility.yul\":2526:2530   */\n      0x20\n        /* \"#utility.yul\":2521:2524   */\n      dup3\n        /* \"#utility.yul\":2517:2531   */\n      add\n        /* \"#utility.yul\":2509:2531   */\n      swap1\n      pop\n        /* \"#utility.yul\":2424:2537   */\n      swap2\n      swap1\n      pop\n      jump\t// out\n        /* \"#utility.yul\":2573:3305   */\n    tag_88:\n        /* \"#utility.yul\":2692:2695   */\n      0x00\n        /* \"#utility.yul\":2721:2775   */\n      tag_132\n        /* \"#utility.yul\":2769:2774   */\n      dup3\n        /* \"#utility.yul\":2721:2775   */\n      tag_82\n      jump\t// in\n    tag_132:\n        /* \"#utility.yul\":2791:2877   */\n      tag_133\n        /* \"#utility.yul\":2870:2876   */\n      dup2\n        /* \"#utility.yul\":2865:2868   */\n      dup6\n        /* \"#utility.yul\":2791:2877   */\n      tag_83\n      jump\t// in\n    tag_133:\n        /* \"#utility.yul\":2784:2877   */\n      swap4\n      pop\n        /* \"#utility.yul\":2901:2957   */\n      tag_134\n        /* \"#utility.yul\":2951:2956   */\n      dup4\n        /* \"#utility.yul\":2901:2957   */\n      tag_84\n      jump\t// in\n    tag_134:\n        /* \"#utility.yul\":2980:2987   */\n      dup1\n        /* \"#utility.yul\":3011:3012   */\n      0x00\n        /* \"#utility.yul\":2996:3280   */\n    tag_135:\n        /* \"#utility.yul\":3021:3027   */\n      dup4\n        /* \"#utility.yul\":3018:3019   */\n      dup2\n        /* \"#utility.yul\":3015:3028   */\n      lt\n        /* \"#utility.yul\":2996:3280   */\n      iszero\n      tag_137\n      jumpi\n        /* \"#utility.yul\":3097:3103   */\n      dup2\n        /* \"#utility.yul\":3091:3104   */\n      mload\n        /* \"#utility.yul\":3124:3187   */\n      tag_138\n        /* \"#utility.yul\":3183:3186   */\n      dup9\n        /* \"#utility.yul\":3168:3181   */\n      dup3\n        /* \"#utility.yul\":3124:3187   */\n      tag_86\n      jump\t// in\n    tag_138:\n        /* \"#utility.yul\":3117:3187   */\n      swap8\n      pop\n        /* \"#utility.yul\":3210:3270   */\n      tag_139\n        /* \"#utility.yul\":3263:3269   */\n      dup4\n        /* \"#utility.yul\":3210:3270   */\n      tag_87\n      jump\t// in\n    tag_139:\n        /* \"#utility.yul\":3200:3270   */\n      swap3\n      pop\n        /* \"#utility.yul\":3056:3280   */\n      pop\n        /* \"#utility.yul\":3043:3044   */\n      0x01\n        /* \"#utility.yul\":3040:3041   */\n      dup2\n        /* \"#utility.yul\":3036:3045   */\n      add\n        /* \"#utility.yul\":3031:3045   */\n      swap1\n      pop\n        /* \"#utility.yul\":2996:3280   */\n      jump(tag_135)\n    tag_137:\n        /* \"#utility.yul\":3000:3014   */\n      pop\n        /* \"#utility.yul\":3296:3299   */\n      dup6\n        /* \"#utility.yul\":3289:3299   */\n      swap4\n      pop\n        /* \"#utility.yul\":2697:3305   */\n      pop\n      pop\n      pop\n        /* \"#utility.yul\":2573:3305   */\n      swap3\n      swap2\n      pop\n      pop\n      jump\t// out\n        /* \"#utility.yul\":3311:3684   */\n    tag_20:\n        /* \"#utility.yul\":3454:3458   */\n      0x00\n        /* \"#utility.yul\":3492:3494   */\n      0x20\n        /* \"#utility.yul\":3481:3490   */\n      dup3\n        /* \"#utility.yul\":3477:3495   */\n      add\n        /* \"#utility.yul\":3469:3495   */\n      swap1\n      pop\n        /* \"#utility.yul\":3541:3550   */\n      dup2\n        /* \"#utility.yul\":3535:3539   */\n      dup2\n        /* \"#utility.yul\":3531:3551   */\n      sub\n        /* \"#utility.yul\":3527:3528   */\n      0x00\n        /* \"#utility.yul\":3516:3525   */\n      dup4\n        /* \"#utility.yul\":3512:3529   */\n      add\n        /* \"#utility.yul\":3505:3552   */\n      mstore\n        /* \"#utility.yul\":3569:3677   */\n      tag_141\n        /* \"#utility.yul\":3672:3676   */\n      dup2\n        /* \"#utility.yul\":3663:3669   */\n      dup5\n        /* \"#utility.yul\":3569:3677   */\n      tag_88\n      jump\t// in\n    tag_141:\n        /* \"#utility.yul\":3561:3677   */\n      swap1\n      pop\n        /* \"#utility.yul\":3311:3684   */\n      swap3\n      swap2\n      pop\n      pop\n      jump\t// out\n        /* \"#utility.yul\":3690:4309   */\n    tag_24:\n        /* \"#utility.yul\":3767:3773   */\n      0x00\n        /* \"#utility.yul\":3775:3781   */\n      dup1\n        /* \"#utility.yul\":3783:3789   */\n      0x00\n        /* \"#utility.yul\":3832:3834   */\n      0x60\n        /* \"#utility.yul\":3820:3829   */\n      dup5\n        /* \"#utility.yul\":3811:3818   */\n      dup7\n        /* \"#utility.yul\":3807:3830   */\n      sub\n        /* \"#utility.yul\":3803:3835   */\n      slt\n        /* \"#utility.yul\":3800:3919   */\n      iszero\n      tag_143\n      jumpi\n        /* \"#utility.yul\":3838:3917   */\n      tag_144\n      tag_73\n      jump\t// in\n    tag_144:\n        /* \"#utility.yul\":3800:3919   */\n    tag_143:\n        /* \"#utility.yul\":3958:3959   */\n      0x00\n        /* \"#utility.yul\":3983:4036   */\n      tag_145\n        /* \"#utility.yul\":4028:4035   */\n      dup7\n        /* \"#utility.yul\":4019:4025   */\n      dup3\n        /* \"#utility.yul\":4008:4017   */\n      dup8\n        /* \"#utility.yul\":4004:4026   */\n      add\n        /* \"#utility.yul\":3983:4036   */\n      tag_81\n      jump\t// in\n    tag_145:\n        /* \"#utility.yul\":3973:4036   */\n      swap4\n      pop\n        /* \"#utility.yul\":3929:4046   */\n      pop\n        /* \"#utility.yul\":4085:4087   */\n      0x20\n        /* \"#utility.yul\":4111:4164   */\n      tag_146\n        /* \"#utility.yul\":4156:4163   */\n      dup7\n        /* \"#utility.yul\":4147:4153   */\n      dup3\n        /* \"#utility.yul\":4136:4145   */\n      dup8\n        /* \"#utility.yul\":4132:4154   */\n      add\n        /* \"#utility.yul\":4111:4164   */\n      tag_81\n      jump\t// in\n    tag_146:\n        /* \"#utility.yul\":4101:4164   */\n      swap3\n      pop\n        /* \"#utility.yul\":4056:4174   */\n      pop\n        /* \"#utility.yul\":4213:4215   */\n      0x40\n        /* \"#utility.yul\":4239:4292   */\n      tag_147\n        /* \"#utility.yul\":4284:4291   */\n      dup7\n        /* \"#utility.yul\":4275:4281   */\n      dup3\n        /* \"#utility.yul\":4264:4273   */\n      dup8\n        /* \"#utility.yul\":4260:4282   */\n      add\n        /* \"#utility.yul\":4239:4292   */\n      tag_81\n      jump\t// in\n    tag_147:\n        /* \"#utility.yul\":4229:4292   */\n      swap2\n      pop\n        /* \"#utility.yul\":4184:4302   */\n      pop\n        /* \"#utility.yul\":3690:4309   */\n      swap3\n      pop\n      swap3\n      pop\n      swap3\n      jump\t// out\n        /* \"#utility.yul\":4315:4433   */\n    tag_89:\n        /* \"#utility.yul\":4402:4426   */\n      tag_149\n        /* \"#utility.yul\":4420:4425   */\n      dup2\n        /* \"#utility.yul\":4402:4426   */\n      tag_76\n      jump\t// in\n    tag_149:\n        /* \"#utility.yul\":4397:4400   */\n      dup3\n        /* \"#utility.yul\":4390:4427   */\n      mstore\n        /* \"#utility.yul\":4315:4433   */\n      pop\n      pop\n      jump\t// out\n        /* \"#utility.yul\":4439:4661   */\n    tag_30:\n        /* \"#utility.yul\":4532:4536   */\n      0x00\n        /* \"#utility.yul\":4570:4572   */\n      0x20\n        /* \"#utility.yul\":4559:4568   */\n      dup3\n        /* \"#utility.yul\":4555:4573   */\n      add\n        /* \"#utility.yul\":4547:4573   */\n      swap1\n      pop\n        /* \"#utility.yul\":4583:4654   */\n      tag_151\n        /* \"#utility.yul\":4651:4652   */\n      0x00\n        /* \"#utility.yul\":4640:4649   */\n      dup4\n        /* \"#utility.yul\":4636:4653   */\n      add\n        /* \"#utility.yul\":4627:4633   */\n      dup5\n        /* \"#utility.yul\":4583:4654   */\n      tag_89\n      jump\t// in\n    tag_151:\n        /* \"#utility.yul\":4439:4661   */\n      swap3\n      swap2\n      pop\n      pop\n      jump\t// out\n        /* \"#utility.yul\":4667:4996   */\n    tag_34:\n        /* \"#utility.yul\":4726:4732   */\n      0x00\n        /* \"#utility.yul\":4775:4777   */\n      0x20\n        /* \"#utility.yul\":4763:4772   */\n      dup3\n        /* \"#utility.yul\":4754:4761   */\n      dup5\n        /* \"#utility.yul\":4750:4773   */\n      sub\n        /* \"#utility.yul\":4746:4778   */\n      slt\n        /* \"#utility.yul\":4743:4862   */\n      iszero\n      tag_153\n      jumpi\n        /* \"#utility.yul\":4781:4860   */\n      tag_154\n      tag_73\n      jump\t// in\n    tag_154:\n        /* \"#utility.yul\":4743:4862   */\n    tag_153:\n        /* \"#utility.yul\":4901:4902   */\n      0x00\n        /* \"#utility.yul\":4926:4979   */\n      tag_155\n        /* \"#utility.yul\":4971:4978   */\n      dup5\n        /* \"#utility.yul\":4962:4968   */\n      dup3\n        /* \"#utility.yul\":4951:4960   */\n      dup6\n        /* \"#utility.yul\":4947:4969   */\n      add\n        /* \"#utility.yul\":4926:4979   */\n      tag_81\n      jump\t// in\n    tag_155:\n        /* \"#utility.yul\":4916:4979   */\n      swap2\n      pop\n        /* \"#utility.yul\":4872:4989   */\n      pop\n        /* \"#utility.yul\":4667:4996   */\n      swap3\n      swap2\n      pop\n      pop\n      jump\t// out\n        /* \"#utility.yul\":5002:5120   */\n    tag_90:\n        /* \"#utility.yul\":5089:5113   */\n      tag_157\n        /* \"#utility.yul\":5107:5112   */\n      dup2\n        /* \"#utility.yul\":5089:5113   */\n      tag_79\n      jump\t// in\n    tag_157:\n        /* \"#utility.yul\":5084:5087   */\n      dup3\n        /* \"#utility.yul\":5077:5114   */\n      mstore\n        /* \"#utility.yul\":5002:5120   */\n      pop\n      pop\n      jump\t// out\n        /* \"#utility.yul\":5126:5348   */\n    tag_37:\n        /* \"#utility.yul\":5219:5223   */\n      0x00\n        /* \"#utility.yul\":5257:5259   */\n      0x20\n        /* \"#utility.yul\":5246:5255   */\n      dup3\n        /* \"#utility.yul\":5242:5260   */\n      add\n        /* \"#utility.yul\":5234:5260   */\n      swap1\n      pop\n        /* \"#utility.yul\":5270:5341   */\n      tag_159\n        /* \"#utility.yul\":5338:5339   */\n      0x00\n        /* \"#utility.yul\":5327:5336   */\n      dup4\n        /* \"#utility.yul\":5323:5340   */\n      add\n        /* \"#utility.yul\":5314:5320   */\n      dup5\n        /* \"#utility.yul\":5270:5341   */\n      tag_90\n      jump\t// in\n    tag_159:\n        /* \"#utility.yul\":5126:5348   */\n      swap3\n      swap2\n      pop\n      pop\n      jump\t// out\n        /* \"#utility.yul\":5354:5796   */\n    tag_43:\n        /* \"#utility.yul\":5503:5507   */\n      0x00\n        /* \"#utility.yul\":5541:5543   */\n      0x60\n        /* \"#utility.yul\":5530:5539   */\n      dup3\n        /* \"#utility.yul\":5526:5544   */\n      add\n        /* \"#utility.yul\":5518:5544   */\n      swap1\n      pop\n        /* \"#utility.yul\":5554:5625   */\n      tag_161\n        /* \"#utility.yul\":5622:5623   */\n      0x00\n        /* \"#utility.yul\":5611:5620   */\n      dup4\n        /* \"#utility.yul\":5607:5624   */\n      add\n        /* \"#utility.yul\":5598:5604   */\n      dup7\n        /* \"#utility.yul\":5554:5625   */\n      tag_89\n      jump\t// in\n    tag_161:\n        /* \"#utility.yul\":5635:5707   */\n      tag_162\n        /* \"#utility.yul\":5703:5705   */\n      0x20\n        /* \"#utility.yul\":5692:5701   */\n      dup4\n        /* \"#utility.yul\":5688:5706   */\n      add\n        /* \"#utility.yul\":5679:5685   */\n      dup6\n        /* \"#utility.yul\":5635:5707   */\n      tag_90\n      jump\t// in\n    tag_162:\n        /* \"#utility.yul\":5717:5789   */\n      tag_163\n        /* \"#utility.yul\":5785:5787   */\n      0x40\n        /* \"#utility.yul\":5774:5783   */\n      dup4\n        /* \"#utility.yul\":5770:5788   */\n      add\n        /* \"#utility.yul\":5761:5767   */\n      dup5\n        /* \"#utility.yul\":5717:5789   */\n      tag_90\n      jump\t// in\n    tag_163:\n        /* \"#utility.yul\":5354:5796   */\n      swap5\n      swap4\n      pop\n      pop\n      pop\n      pop\n      jump\t// out\n        /* \"#utility.yul\":5802:5971   */\n    tag_91:\n        /* \"#utility.yul\":5886:5897   */\n      0x00\n        /* \"#utility.yul\":5920:5926   */\n      dup3\n        /* \"#utility.yul\":5915:5918   */\n      dup3\n        /* \"#utility.yul\":5908:5927   */\n      mstore\n        /* \"#utility.yul\":5960:5964   */\n      0x20\n        /* \"#utility.yul\":5955:5958   */\n      dup3\n        /* \"#utility.yul\":5951:5965   */\n      add\n        /* \"#utility.yul\":5936:5965   */\n      swap1\n      pop\n        /* \"#utility.yul\":5802:5971   */\n      swap3\n      swap2\n      pop\n      pop\n      jump\t// out\n        /* \"#utility.yul\":5977:6219   */\n    tag_92:\n        /* \"#utility.yul\":6117:6151   */\n      0x5468652066756e6374696f6e2063616e206f6e6c792062652063616c6c656420\n        /* \"#utility.yul\":6113:6114   */\n      0x00\n        /* \"#utility.yul\":6105:6111   */\n      dup3\n        /* \"#utility.yul\":6101:6115   */\n      add\n        /* \"#utility.yul\":6094:6152   */\n      mstore\n        /* \"#utility.yul\":6186:6211   */\n      0x62792074686520666163746f72792063726561746f722e000000000000000000\n        /* \"#utility.yul\":6181:6183   */\n      0x20\n        /* \"#utility.yul\":6173:6179   */\n      dup3\n        /* \"#utility.yul\":6169:6184   */\n      add\n        /* \"#utility.yul\":6162:6212   */\n      mstore\n        /* \"#utility.yul\":5977:6219   */\n      pop\n      jump\t// out\n        /* \"#utility.yul\":6225:6591   */\n    tag_93:\n        /* \"#utility.yul\":6367:6370   */\n      0x00\n        /* \"#utility.yul\":6388:6455   */\n      tag_167\n        /* \"#utility.yul\":6452:6454   */\n      0x37\n        /* \"#utility.yul\":6447:6450   */\n      dup4\n        /* \"#utility.yul\":6388:6455   */\n      tag_91\n      jump\t// in\n    tag_167:\n        /* \"#utility.yul\":6381:6455   */\n      swap2\n      pop\n        /* \"#utility.yul\":6464:6557   */\n      tag_168\n        /* \"#utility.yul\":6553:6556   */\n      dup3\n        /* \"#utility.yul\":6464:6557   */\n      tag_92\n      jump\t// in\n    tag_168:\n        /* \"#utility.yul\":6582:6584   */\n      0x40\n        /* \"#utility.yul\":6577:6580   */\n      dup3\n        /* \"#utility.yul\":6573:6585   */\n      add\n        /* \"#utility.yul\":6566:6585   */\n      swap1\n      pop\n        /* \"#utility.yul\":6225:6591   */\n      swap2\n      swap1\n      pop\n      jump\t// out\n        /* \"#utility.yul\":6597:7016   */\n    tag_47:\n        /* \"#utility.yul\":6763:6767   */\n      0x00\n        /* \"#utility.yul\":6801:6803   */\n      0x20\n        /* \"#utility.yul\":6790:6799   */\n      dup3\n        /* \"#utility.yul\":6786:6804   */\n      add\n        /* \"#utility.yul\":6778:6804   */\n      swap1\n      pop\n        /* \"#utility.yul\":6850:6859   */\n      dup2\n        /* \"#utility.yul\":6844:6848   */\n      dup2\n        /* \"#utility.yul\":6840:6860   */\n      sub\n        /* \"#utility.yul\":6836:6837   */\n      0x00\n        /* \"#utility.yul\":6825:6834   */\n      dup4\n        /* \"#utility.yul\":6821:6838   */\n      add\n        /* \"#utility.yul\":6814:6861   */\n      mstore\n        /* \"#utility.yul\":6878:7009   */\n      tag_170\n        /* \"#utility.yul\":7004:7008   */\n      dup2\n        /* \"#utility.yul\":6878:7009   */\n      tag_93\n      jump\t// in\n    tag_170:\n        /* \"#utility.yul\":6870:7009   */\n      swap1\n      pop\n        /* \"#utility.yul\":6597:7016   */\n      swap2\n      swap1\n      pop\n      jump\t// out\n        /* \"#utility.yul\":7022:7136   */\n    tag_94:\n      pop\n      jump\t// out\n        /* \"#utility.yul\":7142:7506   */\n    tag_95:\n        /* \"#utility.yul\":7284:7287   */\n      0x00\n        /* \"#utility.yul\":7305:7371   */\n      tag_173\n        /* \"#utility.yul\":7369:7370   */\n      0x00\n        /* \"#utility.yul\":7364:7367   */\n      dup4\n        /* \"#utility.yul\":7305:7371   */\n      tag_91\n      jump\t// in\n    tag_173:\n        /* \"#utility.yul\":7298:7371   */\n      swap2\n      pop\n        /* \"#utility.yul\":7380:7473   */\n      tag_174\n        /* \"#utility.yul\":7469:7472   */\n      dup3\n        /* \"#utility.yul\":7380:7473   */\n      tag_94\n      jump\t// in\n    tag_174:\n        /* \"#utility.yul\":7498:7499   */\n      0x00\n        /* \"#utility.yul\":7493:7496   */\n      dup3\n        /* \"#utility.yul\":7489:7500   */\n      add\n        /* \"#utility.yul\":7482:7500   */\n      swap1\n      pop\n        /* \"#utility.yul\":7142:7506   */\n      swap2\n      swap1\n      pop\n      jump\t// out\n        /* \"#utility.yul\":7512:7931   */\n    tag_51:\n        /* \"#utility.yul\":7678:7682   */\n      0x00\n        /* \"#utility.yul\":7716:7718   */\n      0x20\n        /* \"#utility.yul\":7705:7714   */\n      dup3\n        /* \"#utility.yul\":7701:7719   */\n      add\n        /* \"#utility.yul\":7693:7719   */\n      swap1\n      pop\n        /* \"#utility.yul\":7765:7774   */\n      dup2\n        /* \"#utility.yul\":7759:7763   */\n      dup2\n        /* \"#utility.yul\":7755:7775   */\n      sub\n        /* \"#utility.yul\":7751:7752   */\n      0x00\n        /* \"#utility.yul\":7740:7749   */\n      dup4\n        /* \"#utility.yul\":7736:7753   */\n      add\n        /* \"#utility.yul\":7729:7776   */\n      mstore\n        /* \"#utility.yul\":7793:7924   */\n      tag_176\n        /* \"#utility.yul\":7919:7923   */\n      dup2\n        /* \"#utility.yul\":7793:7924   */\n      tag_95\n      jump\t// in\n    tag_176:\n        /* \"#utility.yul\":7785:7924   */\n      swap1\n      pop\n        /* \"#utility.yul\":7512:7931   */\n      swap2\n      swap1\n      pop\n      jump\t// out\n        /* \"#utility.yul\":7937:8164   */\n    tag_96:\n        /* \"#utility.yul\":8077:8111   */\n      0x546865206c616e646c6f72642063616e6e6f74206265206120736d6172742063\n        /* \"#utility.yul\":8073:8074   */\n      0x00\n        /* \"#utility.yul\":8065:8071   */\n      dup3\n        /* \"#utility.yul\":8061:8075   */\n      add\n        /* \"#utility.yul\":8054:8112   */\n      mstore\n        /* \"#utility.yul\":8146:8156   */\n      0x6f6e747261637421000000000000000000000000000000000000000000000000\n        /* \"#utility.yul\":8141:8143   */\n      0x20\n        /* \"#utility.yul\":8133:8139   */\n      dup3\n        /* \"#utility.yul\":8129:8144   */\n      add\n        /* \"#utility.yul\":8122:8157   */\n      mstore\n        /* \"#utility.yul\":7937:8164   */\n      pop\n      jump\t// out\n        /* \"#utility.yul\":8170:8536   */\n    tag_97:\n        /* \"#utility.yul\":8312:8315   */\n      0x00\n        /* \"#utility.yul\":8333:8400   */\n      tag_179\n        /* \"#utility.yul\":8397:8399   */\n      0x28\n        /* \"#utility.yul\":8392:8395   */\n      dup4\n        /* \"#utility.yul\":8333:8400   */\n      tag_91\n      jump\t// in\n    tag_179:\n        /* \"#utility.yul\":8326:8400   */\n      swap2\n      pop\n        /* \"#utility.yul\":8409:8502   */\n      tag_180\n        /* \"#utility.yul\":8498:8501   */\n      dup3\n        /* \"#utility.yul\":8409:8502   */\n      tag_96\n      jump\t// in\n    tag_180:\n        /* \"#utility.yul\":8527:8529   */\n      0x40\n        /* \"#utility.yul\":8522:8525   */\n      dup3\n        /* \"#utility.yul\":8518:8530   */\n      add\n        /* \"#utility.yul\":8511:8530   */\n      swap1\n      pop\n        /* \"#utility.yul\":8170:8536   */\n      swap2\n      swap1\n      pop\n      jump\t// out\n        /* \"#utility.yul\":8542:8961   */\n    tag_60:\n        /* \"#utility.yul\":8708:8712   */\n      0x00\n        /* \"#utility.yul\":8746:8748   */\n      0x20\n        /* \"#utility.yul\":8735:8744   */\n      dup3\n        /* \"#utility.yul\":8731:8749   */\n      add\n        /* \"#utility.yul\":8723:8749   */\n      swap1\n      pop\n        /* \"#utility.yul\":8795:8804   */\n      dup2\n        /* \"#utility.yul\":8789:8793   */\n      dup2\n        /* \"#utility.yul\":8785:8805   */\n      sub\n        /* \"#utility.yul\":8781:8782   */\n      0x00\n        /* \"#utility.yul\":8770:8779   */\n      dup4\n        /* \"#utility.yul\":8766:8783   */\n      add\n        /* \"#utility.yul\":8759:8806   */\n      mstore\n        /* \"#utility.yul\":8823:8954   */\n      tag_182\n        /* \"#utility.yul\":8949:8953   */\n      dup2\n        /* \"#utility.yul\":8823:8954   */\n      tag_97\n      jump\t// in\n    tag_182:\n        /* \"#utility.yul\":8815:8954   */\n      swap1\n      pop\n        /* \"#utility.yul\":8542:8961   */\n      swap2\n      swap1\n      pop\n      jump\t// out\n        /* \"#utility.yul\":8967:9192   */\n    tag_98:\n        /* \"#utility.yul\":9107:9141   */\n      0x416e206f626a6563742077697468207468697320696420616c72656164792065\n        /* \"#utility.yul\":9103:9104   */\n      0x00\n        /* \"#utility.yul\":9095:9101   */\n      dup3\n        /* \"#utility.yul\":9091:9105   */\n      add\n        /* \"#utility.yul\":9084:9142   */\n      mstore\n        /* \"#utility.yul\":9176:9184   */\n      0x7869737473210000000000000000000000000000000000000000000000000000\n        /* \"#utility.yul\":9171:9173   */\n      0x20\n        /* \"#utility.yul\":9163:9169   */\n      dup3\n        /* \"#utility.yul\":9159:9174   */\n      add\n        /* \"#utility.yul\":9152:9185   */\n      mstore\n        /* \"#utility.yul\":8967:9192   */\n      pop\n      jump\t// out\n        /* \"#utility.yul\":9198:9564   */\n    tag_99:\n        /* \"#utility.yul\":9340:9343   */\n      0x00\n        /* \"#utility.yul\":9361:9428   */\n      tag_185\n        /* \"#utility.yul\":9425:9427   */\n      0x26\n        /* \"#utility.yul\":9420:9423   */\n      dup4\n        /* \"#utility.yul\":9361:9428   */\n      tag_91\n      jump\t// in\n    tag_185:\n        /* \"#utility.yul\":9354:9428   */\n      swap2\n      pop\n        /* \"#utility.yul\":9437:9530   */\n      tag_186\n        /* \"#utility.yul\":9526:9529   */\n      dup3\n        /* \"#utility.yul\":9437:9530   */\n      tag_98\n      jump\t// in\n    tag_186:\n        /* \"#utility.yul\":9555:9557   */\n      0x40\n        /* \"#utility.yul\":9550:9553   */\n      dup3\n        /* \"#utility.yul\":9546:9558   */\n      add\n        /* \"#utility.yul\":9539:9558   */\n      swap1\n      pop\n        /* \"#utility.yul\":9198:9564   */\n      swap2\n      swap1\n      pop\n      jump\t// out\n        /* \"#utility.yul\":9570:9989   */\n    tag_63:\n        /* \"#utility.yul\":9736:9740   */\n      0x00\n        /* \"#utility.yul\":9774:9776   */\n      0x20\n        /* \"#utility.yul\":9763:9772   */\n      dup3\n        /* \"#utility.yul\":9759:9777   */\n      add\n        /* \"#utility.yul\":9751:9777   */\n      swap1\n      pop\n        /* \"#utility.yul\":9823:9832   */\n      dup2\n        /* \"#utility.yul\":9817:9821   */\n      dup2\n        /* \"#utility.yul\":9813:9833   */\n      sub\n        /* \"#utility.yul\":9809:9810   */\n      0x00\n        /* \"#utility.yul\":9798:9807   */\n      dup4\n        /* \"#utility.yul\":9794:9811   */\n      add\n        /* \"#utility.yul\":9787:9834   */\n      mstore\n        /* \"#utility.yul\":9851:9982   */\n      tag_188\n        /* \"#utility.yul\":9977:9981   */\n      dup2\n        /* \"#utility.yul\":9851:9982   */\n      tag_99\n      jump\t// in\n    tag_188:\n        /* \"#utility.yul\":9843:9982   */\n      swap1\n      pop\n        /* \"#utility.yul\":9570:9989   */\n      swap2\n      swap1\n      pop\n      jump\t// out\n        /* \"#utility.yul\":9995:10437   */\n    tag_67:\n        /* \"#utility.yul\":10144:10148   */\n      0x00\n        /* \"#utility.yul\":10182:10184   */\n      0x60\n        /* \"#utility.yul\":10171:10180   */\n      dup3\n        /* \"#utility.yul\":10167:10185   */\n      add\n        /* \"#utility.yul\":10159:10185   */\n      swap1\n      pop\n        /* \"#utility.yul\":10195:10266   */\n      tag_190\n        /* \"#utility.yul\":10263:10264   */\n      0x00\n        /* \"#utility.yul\":10252:10261   */\n      dup4\n        /* \"#utility.yul\":10248:10265   */\n      add\n        /* \"#utility.yul\":10239:10245   */\n      dup7\n        /* \"#utility.yul\":10195:10266   */\n      tag_90\n      jump\t// in\n    tag_190:\n        /* \"#utility.yul\":10276:10348   */\n      tag_191\n        /* \"#utility.yul\":10344:10346   */\n      0x20\n        /* \"#utility.yul\":10333:10342   */\n      dup4\n        /* \"#utility.yul\":10329:10347   */\n      add\n        /* \"#utility.yul\":10320:10326   */\n      dup6\n        /* \"#utility.yul\":10276:10348   */\n      tag_90\n      jump\t// in\n    tag_191:\n        /* \"#utility.yul\":10358:10430   */\n      tag_192\n        /* \"#utility.yul\":10426:10428   */\n      0x40\n        /* \"#utility.yul\":10415:10424   */\n      dup4\n        /* \"#utility.yul\":10411:10429   */\n      add\n        /* \"#utility.yul\":10402:10408   */\n      dup5\n        /* \"#utility.yul\":10358:10430   */\n      tag_90\n      jump\t// in\n    tag_192:\n        /* \"#utility.yul\":9995:10437   */\n      swap5\n      swap4\n      pop\n      pop\n      pop\n      pop\n      jump\t// out\n    stop\n\n    sub_0: assembly {\n            /* \"Offer.sol\":82:15012  contract Offer {... */\n          mstore(0x40, 0x80)\n            /* \"Offer.sol\":1866:2120  constructor(uint256 _id, uint256 _min_price, uint256 _min_deposit) {... */\n          callvalue\n          dup1\n          iszero\n          tag_1\n          jumpi\n          0x00\n          dup1\n          revert\n        tag_1:\n          pop\n          mload(0x40)\n          sub(codesize, bytecodeSize)\n          dup1\n          bytecodeSize\n          dup4\n          codecopy\n          dup2\n          dup2\n          add\n          0x40\n          mstore\n          dup2\n          add\n          swap1\n          tag_2\n          swap2\n          swap1\n          tag_3\n          jump\t// in\n        tag_2:\n            /* \"Offer.sol\":1948:1951  _id */\n          dup3\n            /* \"Offer.sol\":1943:1945  id */\n          0x01\n            /* \"Offer.sol\":1943:1951  id = _id */\n          dup2\n          swap1\n          sstore\n          pop\n            /* \"Offer.sol\":1970:1987  RentalStatus.Free */\n          0x00\n            /* \"Offer.sol\":1961:1967  status */\n          dup1\n          0x00\n            /* \"Offer.sol\":1961:1987  status = RentalStatus.Free */\n          0x0100\n          exp\n          dup2\n          sload\n          dup2\n          0xff\n          mul\n          not\n          and\n          swap1\n          dup4\n          0x02\n          dup2\n          gt\n          iszero\n          tag_6\n          jumpi\n          tag_7\n          tag_8\n          jump\t// in\n        tag_7:\n        tag_6:\n          mul\n          or\n          swap1\n          sstore\n          pop\n            /* \"Offer.sol\":2009:2019  _min_price */\n          dup2\n            /* \"Offer.sol\":1997:2006  min_price */\n          0x05\n            /* \"Offer.sol\":1997:2019  min_price = _min_price */\n          dup2\n          swap1\n          sstore\n          pop\n            /* \"Offer.sol\":2037:2047  msg.sender */\n          caller\n            /* \"Offer.sol\":2029:2034  owner */\n          0x03\n          0x00\n            /* \"Offer.sol\":2029:2047  owner = msg.sender */\n          0x0100\n          exp\n          dup2\n          sload\n          dup2\n          0xffffffffffffffffffffffffffffffffffffffff\n          mul\n          not\n          and\n          swap1\n          dup4\n          0xffffffffffffffffffffffffffffffffffffffff\n          and\n          mul\n          or\n          swap1\n          sstore\n          pop\n            /* \"Offer.sol\":2068:2077  tx.origin */\n          origin\n            /* \"Offer.sol\":2057:2065  landlord */\n          0x02\n          0x00\n            /* \"Offer.sol\":2057:2077  landlord = tx.origin */\n          0x0100\n          exp\n          dup2\n          sload\n          dup2\n          0xffffffffffffffffffffffffffffffffffffffff\n          mul\n          not\n          and\n          swap1\n          dup4\n          0xffffffffffffffffffffffffffffffffffffffff\n          and\n          mul\n          or\n          swap1\n          sstore\n          pop\n            /* \"Offer.sol\":2101:2113  _min_deposit */\n          dup1\n            /* \"Offer.sol\":2087:2098  min_deposit */\n          0x08\n            /* \"Offer.sol\":2087:2113  min_deposit = _min_deposit */\n          dup2\n          swap1\n          sstore\n          pop\n            /* \"Offer.sol\":1866:2120  constructor(uint256 _id, uint256 _min_price, uint256 _min_deposit) {... */\n          pop\n          pop\n          pop\n            /* \"Offer.sol\":82:15012  contract Offer {... */\n          jump(tag_9)\n            /* \"#utility.yul\":88:205   */\n        tag_11:\n            /* \"#utility.yul\":197:198   */\n          0x00\n            /* \"#utility.yul\":194:195   */\n          dup1\n            /* \"#utility.yul\":187:199   */\n          revert\n            /* \"#utility.yul\":334:411   */\n        tag_13:\n            /* \"#utility.yul\":371:378   */\n          0x00\n            /* \"#utility.yul\":400:405   */\n          dup2\n            /* \"#utility.yul\":389:405   */\n          swap1\n          pop\n            /* \"#utility.yul\":334:411   */\n          swap2\n          swap1\n          pop\n          jump\t// out\n            /* \"#utility.yul\":417:539   */\n        tag_14:\n            /* \"#utility.yul\":490:514   */\n          tag_22\n            /* \"#utility.yul\":508:513   */\n          dup2\n            /* \"#utility.yul\":490:514   */\n          tag_13\n          jump\t// in\n        tag_22:\n            /* \"#utility.yul\":483:488   */\n          dup2\n            /* \"#utility.yul\":480:515   */\n          eq\n            /* \"#utility.yul\":470:533   */\n          tag_23\n          jumpi\n            /* \"#utility.yul\":529:530   */\n          0x00\n            /* \"#utility.yul\":526:527   */\n          dup1\n            /* \"#utility.yul\":519:531   */\n          revert\n            /* \"#utility.yul\":470:533   */\n        tag_23:\n            /* \"#utility.yul\":417:539   */\n          pop\n          jump\t// out\n            /* \"#utility.yul\":545:688   */\n        tag_15:\n            /* \"#utility.yul\":602:607   */\n          0x00\n            /* \"#utility.yul\":633:639   */\n          dup2\n            /* \"#utility.yul\":627:640   */\n          mload\n            /* \"#utility.yul\":618:640   */\n          swap1\n          pop\n            /* \"#utility.yul\":649:682   */\n          tag_25\n            /* \"#utility.yul\":676:681   */\n          dup2\n            /* \"#utility.yul\":649:682   */\n          tag_14\n          jump\t// in\n        tag_25:\n            /* \"#utility.yul\":545:688   */\n          swap3\n          swap2\n          pop\n          pop\n          jump\t// out\n            /* \"#utility.yul\":694:1357   */\n        tag_3:\n            /* \"#utility.yul\":782:788   */\n          0x00\n            /* \"#utility.yul\":790:796   */\n          dup1\n            /* \"#utility.yul\":798:804   */\n          0x00\n            /* \"#utility.yul\":847:849   */\n          0x60\n            /* \"#utility.yul\":835:844   */\n          dup5\n            /* \"#utility.yul\":826:833   */\n          dup7\n            /* \"#utility.yul\":822:845   */\n          sub\n            /* \"#utility.yul\":818:850   */\n          slt\n            /* \"#utility.yul\":815:934   */\n          iszero\n          tag_27\n          jumpi\n            /* \"#utility.yul\":853:932   */\n          tag_28\n          tag_11\n          jump\t// in\n        tag_28:\n            /* \"#utility.yul\":815:934   */\n        tag_27:\n            /* \"#utility.yul\":973:974   */\n          0x00\n            /* \"#utility.yul\":998:1062   */\n          tag_29\n            /* \"#utility.yul\":1054:1061   */\n          dup7\n            /* \"#utility.yul\":1045:1051   */\n          dup3\n            /* \"#utility.yul\":1034:1043   */\n          dup8\n            /* \"#utility.yul\":1030:1052   */\n          add\n            /* \"#utility.yul\":998:1062   */\n          tag_15\n          jump\t// in\n        tag_29:\n            /* \"#utility.yul\":988:1062   */\n          swap4\n          pop\n            /* \"#utility.yul\":944:1072   */\n          pop\n            /* \"#utility.yul\":1111:1113   */\n          0x20\n            /* \"#utility.yul\":1137:1201   */\n          tag_30\n            /* \"#utility.yul\":1193:1200   */\n          dup7\n            /* \"#utility.yul\":1184:1190   */\n          dup3\n            /* \"#utility.yul\":1173:1182   */\n          dup8\n            /* \"#utility.yul\":1169:1191   */\n          add\n            /* \"#utility.yul\":1137:1201   */\n          tag_15\n          jump\t// in\n        tag_30:\n            /* \"#utility.yul\":1127:1201   */\n          swap3\n          pop\n            /* \"#utility.yul\":1082:1211   */\n          pop\n            /* \"#utility.yul\":1250:1252   */\n          0x40\n            /* \"#utility.yul\":1276:1340   */\n          tag_31\n            /* \"#utility.yul\":1332:1339   */\n          dup7\n            /* \"#utility.yul\":1323:1329   */\n          dup3\n            /* \"#utility.yul\":1312:1321   */\n          dup8\n            /* \"#utility.yul\":1308:1330   */\n          add\n            /* \"#utility.yul\":1276:1340   */\n          tag_15\n          jump\t// in\n        tag_31:\n            /* \"#utility.yul\":1266:1340   */\n          swap2\n          pop\n            /* \"#utility.yul\":1221:1350   */\n          pop\n            /* \"#utility.yul\":694:1357   */\n          swap3\n          pop\n          swap3\n          pop\n          swap3\n          jump\t// out\n            /* \"#utility.yul\":1363:1543   */\n        tag_8:\n            /* \"#utility.yul\":1411:1488   */\n          0x4e487b7100000000000000000000000000000000000000000000000000000000\n            /* \"#utility.yul\":1408:1409   */\n          0x00\n            /* \"#utility.yul\":1401:1489   */\n          mstore\n            /* \"#utility.yul\":1508:1512   */\n          0x21\n            /* \"#utility.yul\":1505:1506   */\n          0x04\n            /* \"#utility.yul\":1498:1513   */\n          mstore\n            /* \"#utility.yul\":1532:1536   */\n          0x24\n            /* \"#utility.yul\":1529:1530   */\n          0x00\n            /* \"#utility.yul\":1522:1537   */\n          revert\n            /* \"Offer.sol\":82:15012  contract Offer {... */\n        tag_9:\n          dataSize(sub_0)\n          dup1\n          dataOffset(sub_0)\n          0x00\n          codecopy\n          0x00\n          return\n        stop\n\n        sub_0: assembly {\n                /* \"Offer.sol\":82:15012  contract Offer {... */\n              mstore(0x40, 0x80)\n              jumpi(tag_1, lt(calldatasize, 0x04))\n              shr(0xe0, calldataload(0x00))\n              dup1\n              0x8f66efe2\n              gt\n              tag_21\n              jumpi\n              dup1\n              0xc3ab5fb4\n              gt\n              tag_22\n              jumpi\n              dup1\n              0xc3ab5fb4\n              eq\n              tag_16\n              jumpi\n              dup1\n              0xcb475846\n              eq\n              tag_17\n              jumpi\n              dup1\n              0xdaea85c5\n              eq\n              tag_18\n              jumpi\n              dup1\n              0xdc1997ea\n              eq\n              tag_19\n              jumpi\n              dup1\n              0xea8a1af0\n              eq\n              tag_20\n              jumpi\n              jump(tag_2)\n            tag_22:\n              dup1\n              0x8f66efe2\n              eq\n              tag_12\n              jumpi\n              dup1\n              0xa035b1fe\n              eq\n              tag_13\n              jumpi\n              dup1\n              0xac2169ce\n              eq\n              tag_14\n              jumpi\n              dup1\n              0xaf640d0f\n              eq\n              tag_15\n              jumpi\n              jump(tag_2)\n            tag_21:\n              dup1\n              0x59391ce1\n              gt\n              tag_23\n              jumpi\n              dup1\n              0x59391ce1\n              eq\n              tag_7\n              jumpi\n              dup1\n              0x5c232ff1\n              eq\n              tag_8\n              jumpi\n              dup1\n              0x5e5769d1\n              eq\n              tag_9\n              jumpi\n              dup1\n              0x783a112b\n              eq\n              tag_10\n              jumpi\n              dup1\n              0x8da5cb5b\n              eq\n              tag_11\n              jumpi\n              jump(tag_2)\n            tag_23:\n              dup1\n              0x03b13009\n              eq\n              tag_3\n              jumpi\n              dup1\n              0x200d2ed2\n              eq\n              tag_4\n              jumpi\n              dup1\n              0x3cac14c8\n              eq\n              tag_5\n              jumpi\n              dup1\n              0x4d5f811e\n              eq\n              tag_6\n              jumpi\n              jump(tag_2)\n            tag_1:\n              jumpi(tag_2, calldatasize)\n                /* \"Offer.sol\":2255:2272  RentalStatus.Free */\n              0x00\n                /* \"Offer.sol\":2245:2272  status == RentalStatus.Free */\n              0x02\n              dup2\n              gt\n              iszero\n              tag_26\n              jumpi\n              tag_27\n              tag_28\n              jump\t// in\n            tag_27:\n            tag_26:\n                /* \"Offer.sol\":2245:2251  status */\n              0x00\n              dup1\n              sload\n              swap1\n              0x0100\n              exp\n              swap1\n              div\n              0xff\n              and\n                /* \"Offer.sol\":2245:2272  status == RentalStatus.Free */\n              0x02\n              dup2\n              gt\n              iszero\n              tag_29\n              jumpi\n              tag_30\n              tag_28\n              jump\t// in\n            tag_30:\n            tag_29:\n              eq\n                /* \"Offer.sol\":2237:2309  require(status == RentalStatus.Free, \"The apartment is already booked.\") */\n              tag_31\n              jumpi\n              mload(0x40)\n              0x08c379a000000000000000000000000000000000000000000000000000000000\n              dup2\n              mstore\n              0x04\n              add\n              tag_32\n              swap1\n              tag_33\n              jump\t// in\n            tag_32:\n              mload(0x40)\n              dup1\n              swap2\n              sub\n              swap1\n              revert\n            tag_31:\n                /* \"Offer.sol\":82:15012  contract Offer {... */\n              stop\n            tag_2:\n              0x00\n              dup1\n              revert\n                /* \"Offer.sol\":970:994  address public rented_by */\n            tag_3:\n              callvalue\n              dup1\n              iszero\n              tag_35\n              jumpi\n              0x00\n              dup1\n              revert\n            tag_35:\n              pop\n              tag_36\n              tag_37\n              jump\t// in\n            tag_36:\n              mload(0x40)\n              tag_38\n              swap2\n              swap1\n              tag_39\n              jump\t// in\n            tag_38:\n              mload(0x40)\n              dup1\n              swap2\n              sub\n              swap1\n              return\n                /* \"Offer.sol\":220:246  RentalStatus public status */\n            tag_4:\n              callvalue\n              dup1\n              iszero\n              tag_40\n              jumpi\n              0x00\n              dup1\n              revert\n            tag_40:\n              pop\n              tag_41\n              tag_42\n              jump\t// in\n            tag_41:\n              mload(0x40)\n              tag_43\n              swap2\n              swap1\n              tag_44\n              jump\t// in\n            tag_43:\n              mload(0x40)\n              dup1\n              swap2\n              sub\n              swap1\n              return\n                /* \"Offer.sol\":10194:10414  function returnArray() public view returns (address[] memory) {... */\n            tag_5:\n              callvalue\n              dup1\n              iszero\n              tag_45\n              jumpi\n              0x00\n              dup1\n              revert\n            tag_45:\n              pop\n              tag_46\n              tag_47\n              jump\t// in\n            tag_46:\n              mload(0x40)\n              tag_48\n              swap2\n              swap1\n              tag_49\n              jump\t// in\n            tag_48:\n              mload(0x40)\n              dup1\n              swap2\n              sub\n              swap1\n              return\n                /* \"Offer.sol\":1094:1120  uint256 public min_deposit */\n            tag_6:\n              callvalue\n              dup1\n              iszero\n              tag_50\n              jumpi\n              0x00\n              dup1\n              revert\n            tag_50:\n              pop\n              tag_51\n              tag_52\n              jump\t// in\n            tag_51:\n              mload(0x40)\n              tag_53\n              swap2\n              swap1\n              tag_54\n              jump\t// in\n            tag_53:\n              mload(0x40)\n              dup1\n              swap2\n              sub\n              swap1\n              return\n                /* \"Offer.sol\":854:880  uint256 public rented_till */\n            tag_7:\n              callvalue\n              dup1\n              iszero\n              tag_55\n              jumpi\n              0x00\n              dup1\n              revert\n            tag_55:\n              pop\n              tag_56\n              tag_57\n              jump\t// in\n            tag_56:\n              mload(0x40)\n              tag_58\n              swap2\n              swap1\n              tag_54\n              jump\t// in\n            tag_58:\n              mload(0x40)\n              dup1\n              swap2\n              sub\n              swap1\n              return\n                /* \"Offer.sol\":1696:1742  mapping(address => Renters) public rentersInfo */\n            tag_8:\n              callvalue\n              dup1\n              iszero\n              tag_59\n              jumpi\n              0x00\n              dup1\n              revert\n            tag_59:\n              pop\n              tag_60\n              0x04\n              dup1\n              calldatasize\n              sub\n              dup2\n              add\n              swap1\n              tag_61\n              swap2\n              swap1\n              tag_62\n              jump\t// in\n            tag_61:\n              tag_63\n              jump\t// in\n            tag_60:\n              mload(0x40)\n              tag_64\n              swap4\n              swap3\n              swap2\n              swap1\n              tag_65\n              jump\t// in\n            tag_64:\n              mload(0x40)\n              dup1\n              swap2\n              sub\n              swap1\n              return\n                /* \"Offer.sol\":11663:13249  function reRent() external only_renter {... */\n            tag_9:\n              callvalue\n              dup1\n              iszero\n              tag_66\n              jumpi\n              0x00\n              dup1\n              revert\n            tag_66:\n              pop\n              tag_67\n              tag_68\n              jump\t// in\n            tag_67:\n              stop\n                /* \"Offer.sol\":3704:5744  function rent(uint256 _price, uint256 _deposit) public payable not_rented {... */\n            tag_10:\n              tag_69\n              0x04\n              dup1\n              calldatasize\n              sub\n              dup2\n              add\n              swap1\n              tag_70\n              swap2\n              swap1\n              tag_71\n              jump\t// in\n            tag_70:\n              tag_72\n              jump\t// in\n            tag_69:\n              stop\n                /* \"Offer.sol\":465:485  address public owner */\n            tag_11:\n              callvalue\n              dup1\n              iszero\n              tag_73\n              jumpi\n              0x00\n              dup1\n              revert\n            tag_73:\n              pop\n              tag_74\n              tag_75\n              jump\t// in\n            tag_74:\n              mload(0x40)\n              tag_76\n              swap2\n              swap1\n              tag_39\n              jump\t// in\n            tag_76:\n              mload(0x40)\n              dup1\n              swap2\n              sub\n              swap1\n              return\n                /* \"Offer.sol\":13255:14814  function break_contract() external only_renter {... */\n            tag_12:\n              callvalue\n              dup1\n              iszero\n              tag_77\n              jumpi\n              0x00\n              dup1\n              revert\n            tag_77:\n              pop\n              tag_78\n              tag_79\n              jump\t// in\n            tag_78:\n              stop\n                /* \"Offer.sol\":537:557  uint256 public price */\n            tag_13:\n              callvalue\n              dup1\n              iszero\n              tag_80\n              jumpi\n              0x00\n              dup1\n              revert\n            tag_80:\n              pop\n              tag_81\n              tag_82\n              jump\t// in\n            tag_81:\n              mload(0x40)\n              tag_83\n              swap2\n              swap1\n              tag_54\n              jump\t// in\n            tag_83:\n              mload(0x40)\n              dup1\n              swap2\n              sub\n              swap1\n              return\n                /* \"Offer.sol\":1168:1196  address[] public rentersAddr */\n            tag_14:\n              callvalue\n              dup1\n              iszero\n              tag_84\n              jumpi\n              0x00\n              dup1\n              revert\n            tag_84:\n              pop\n              tag_85\n              0x04\n              dup1\n              calldatasize\n              sub\n              dup2\n              add\n              swap1\n              tag_86\n              swap2\n              swap1\n              tag_87\n              jump\t// in\n            tag_86:\n              tag_88\n              jump\t// in\n            tag_85:\n              mload(0x40)\n              tag_89\n              swap2\n              swap1\n              tag_39\n              jump\t// in\n            tag_89:\n              mload(0x40)\n              dup1\n              swap2\n              sub\n              swap1\n              return\n                /* \"Offer.sol\":350:367  uint256 public id */\n            tag_15:\n              callvalue\n              dup1\n              iszero\n              tag_90\n              jumpi\n              0x00\n              dup1\n              revert\n            tag_90:\n              pop\n              tag_91\n              tag_92\n              jump\t// in\n            tag_91:\n              mload(0x40)\n              tag_93\n              swap2\n              swap1\n              tag_54\n              jump\t// in\n            tag_93:\n              mload(0x40)\n              dup1\n              swap2\n              sub\n              swap1\n              return\n                /* \"Offer.sol\":787:811  uint256 public min_price */\n            tag_16:\n              callvalue\n              dup1\n              iszero\n              tag_94\n              jumpi\n              0x00\n              dup1\n              revert\n            tag_94:\n              pop\n              tag_95\n              tag_96\n              jump\t// in\n            tag_95:\n              mload(0x40)\n              tag_97\n              swap2\n              swap1\n              tag_54\n              jump\t// in\n            tag_97:\n              mload(0x40)\n              dup1\n              swap2\n              sub\n              swap1\n              return\n                /* \"Offer.sol\":668:713  uint256 public constant FACTORY_COMISSION = 1 */\n            tag_17:\n              callvalue\n              dup1\n              iszero\n              tag_98\n              jumpi\n              0x00\n              dup1\n              revert\n            tag_98:\n              pop\n              tag_99\n              tag_100\n              jump\t// in\n            tag_99:\n              mload(0x40)\n              tag_101\n              swap2\n              swap1\n              tag_54\n              jump\t// in\n            tag_101:\n              mload(0x40)\n              dup1\n              swap2\n              sub\n              swap1\n              return\n                /* \"Offer.sol\":5750:10188  function approve(address _renter) public only_landlord not_rented {... */\n            tag_18:\n              callvalue\n              dup1\n              iszero\n              tag_102\n              jumpi\n              0x00\n              dup1\n              revert\n            tag_102:\n              pop\n              tag_103\n              0x04\n              dup1\n              calldatasize\n              sub\n              dup2\n              add\n              swap1\n              tag_104\n              swap2\n              swap1\n              tag_62\n              jump\t// in\n            tag_104:\n              tag_105\n              jump\t// in\n            tag_103:\n              stop\n                /* \"Offer.sol\":407:430  address public landlord */\n            tag_19:\n              callvalue\n              dup1\n              iszero\n              tag_106\n              jumpi\n              0x00\n              dup1\n              revert\n            tag_106:\n              pop\n              tag_107\n              tag_108\n              jump\t// in\n            tag_107:\n              mload(0x40)\n              tag_109\n              swap2\n              swap1\n              tag_39\n              jump\t// in\n            tag_109:\n              mload(0x40)\n              dup1\n              swap2\n              sub\n              swap1\n              return\n                /* \"Offer.sol\":10420:11657  function cancel() external not_rented {... */\n            tag_20:\n              callvalue\n              dup1\n              iszero\n              tag_110\n              jumpi\n              0x00\n              dup1\n              revert\n            tag_110:\n              pop\n              tag_111\n              tag_112\n              jump\t// in\n            tag_111:\n              stop\n                /* \"Offer.sol\":970:994  address public rented_by */\n            tag_37:\n              0x07\n              0x00\n              swap1\n              sload\n              swap1\n              0x0100\n              exp\n              swap1\n              div\n              0xffffffffffffffffffffffffffffffffffffffff\n              and\n              dup2\n              jump\t// out\n                /* \"Offer.sol\":220:246  RentalStatus public status */\n            tag_42:\n              0x00\n              dup1\n              sload\n              swap1\n              0x0100\n              exp\n              swap1\n              div\n              0xff\n              and\n              dup2\n              jump\t// out\n                /* \"Offer.sol\":10194:10414  function returnArray() public view returns (address[] memory) {... */\n            tag_47:\n                /* \"Offer.sol\":10238:10254  address[] memory */\n              0x60\n                /* \"Offer.sol\":10396:10407  rentersAddr */\n              0x09\n                /* \"Offer.sol\":10389:10407  return rentersAddr */\n              dup1\n              sload\n              dup1\n              0x20\n              mul\n              0x20\n              add\n              mload(0x40)\n              swap1\n              dup2\n              add\n              0x40\n              mstore\n              dup1\n              swap3\n              swap2\n              swap1\n              dup2\n              dup2\n              mstore\n              0x20\n              add\n              dup3\n              dup1\n              sload\n              dup1\n              iszero\n              tag_114\n              jumpi\n              0x20\n              mul\n              dup3\n              add\n              swap2\n              swap1\n              0x00\n              mstore\n              keccak256(0x00, 0x20)\n              swap1\n            tag_115:\n              dup2\n              0x00\n              swap1\n              sload\n              swap1\n              0x0100\n              exp\n              swap1\n              div\n              0xffffffffffffffffffffffffffffffffffffffff\n              and\n              0xffffffffffffffffffffffffffffffffffffffff\n              and\n              dup2\n              mstore\n              0x20\n              add\n              swap1\n              0x01\n              add\n              swap1\n              dup1\n              dup4\n              gt\n              tag_115\n              jumpi\n            tag_114:\n              pop\n              pop\n              pop\n              pop\n              pop\n              swap1\n              pop\n                /* \"Offer.sol\":10194:10414  function returnArray() public view returns (address[] memory) {... */\n              swap1\n              jump\t// out\n                /* \"Offer.sol\":1094:1120  uint256 public min_deposit */\n            tag_52:\n              sload(0x08)\n              dup2\n              jump\t// out\n                /* \"Offer.sol\":854:880  uint256 public rented_till */\n            tag_57:\n              sload(0x06)\n              dup2\n              jump\t// out\n                /* \"Offer.sol\":1696:1742  mapping(address => Renters) public rentersInfo */\n            tag_63:\n              mstore(0x20, 0x0a)\n              dup1\n              0x00\n              mstore\n              keccak256(0x00, 0x40)\n              0x00\n              swap2\n              pop\n              swap1\n              pop\n              dup1\n              0x00\n              add\n              sload\n              swap1\n              dup1\n              0x01\n              add\n              sload\n              swap1\n              dup1\n              0x02\n              add\n              0x00\n              swap1\n              sload\n              swap1\n              0x0100\n              exp\n              swap1\n              div\n              0xff\n              and\n              swap1\n              pop\n              dup4\n              jump\t// out\n                /* \"Offer.sol\":11663:13249  function reRent() external only_renter {... */\n            tag_68:\n                /* \"Offer.sol\":2862:2871  rented_by */\n              0x07\n              0x00\n              swap1\n              sload\n              swap1\n              0x0100\n              exp\n              swap1\n              div\n              0xffffffffffffffffffffffffffffffffffffffff\n              and\n                /* \"Offer.sol\":2848:2871  msg.sender == rented_by */\n              0xffffffffffffffffffffffffffffffffffffffff\n              and\n                /* \"Offer.sol\":2848:2858  msg.sender */\n              caller\n                /* \"Offer.sol\":2848:2871  msg.sender == rented_by */\n              0xffffffffffffffffffffffffffffffffffffffff\n              and\n              eq\n                /* \"Offer.sol\":2848:2913  msg.sender == rented_by && rentersInfo[msg.sender].rented == true */\n              dup1\n              iszero\n              tag_117\n              jumpi\n              pop\n                /* \"Offer.sol\":2909:2913  true */\n              0x01\n                /* \"Offer.sol\":2875:2913  rentersInfo[msg.sender].rented == true */\n              iszero\n              iszero\n                /* \"Offer.sol\":2875:2886  rentersInfo */\n              0x0a\n                /* \"Offer.sol\":2875:2898  rentersInfo[msg.sender] */\n              0x00\n                /* \"Offer.sol\":2887:2897  msg.sender */\n              caller\n                /* \"Offer.sol\":2875:2898  rentersInfo[msg.sender] */\n              0xffffffffffffffffffffffffffffffffffffffff\n              and\n              0xffffffffffffffffffffffffffffffffffffffff\n              and\n              dup2\n              mstore\n              0x20\n              add\n              swap1\n              dup2\n              mstore\n              0x20\n              add\n              0x00\n              keccak256\n                /* \"Offer.sol\":2875:2905  rentersInfo[msg.sender].rented */\n              0x02\n              add\n              0x00\n              swap1\n              sload\n              swap1\n              0x0100\n              exp\n              swap1\n              div\n              0xff\n              and\n                /* \"Offer.sol\":2875:2913  rentersInfo[msg.sender].rented == true */\n              iszero\n              iszero\n              eq\n                /* \"Offer.sol\":2848:2913  msg.sender == rented_by && rentersInfo[msg.sender].rented == true */\n            tag_117:\n                /* \"Offer.sol\":2827:2985  require(... */\n              tag_118\n              jumpi\n              mload(0x40)\n              0x08c379a000000000000000000000000000000000000000000000000000000000\n              dup2\n              mstore\n              0x04\n              add\n              tag_119\n              swap1\n              tag_120\n              jump\t// in\n            tag_119:\n              mload(0x40)\n              dup1\n              swap2\n              sub\n              swap1\n              revert\n            tag_118:\n                /* \"Offer.sol\":11890:11895  price */\n              sload(0x04)\n                /* \"Offer.sol\":11855:11866  rentersInfo */\n              0x0a\n                /* \"Offer.sol\":11855:11878  rentersInfo[msg.sender] */\n              0x00\n                /* \"Offer.sol\":11867:11877  msg.sender */\n              caller\n                /* \"Offer.sol\":11855:11878  rentersInfo[msg.sender] */\n              0xffffffffffffffffffffffffffffffffffffffff\n              and\n              0xffffffffffffffffffffffffffffffffffffffff\n              and\n              dup2\n              mstore\n              0x20\n              add\n              swap1\n              dup2\n              mstore\n              0x20\n              add\n              0x00\n              keccak256\n                /* \"Offer.sol\":11855:11886  rentersInfo[msg.sender].deposit */\n              0x01\n              add\n              sload\n                /* \"Offer.sol\":11855:11895  rentersInfo[msg.sender].deposit >= price */\n              lt\n              iszero\n                /* \"Offer.sol\":11847:11948  require(rentersInfo[msg.sender].deposit >= price, \"there is not enough deposit for the next rental.\") */\n              tag_122\n              jumpi\n              mload(0x40)\n              0x08c379a000000000000000000000000000000000000000000000000000000000\n              dup2\n              mstore\n              0x04\n              add\n              tag_123\n              swap1\n              tag_124\n              jump\t// in\n            tag_123:\n              mload(0x40)\n              dup1\n              swap2\n              sub\n              swap1\n              revert\n            tag_122:\n                /* \"Offer.sol\":12100:12107  30 days */\n              0x278d00\n                /* \"Offer.sol\":12085:12096  rented_till */\n              0x06\n              0x00\n                /* \"Offer.sol\":12085:12107  rented_till += 30 days */\n              dup3\n              dup3\n              sload\n              tag_125\n              swap2\n              swap1\n              tag_126\n              jump\t// in\n            tag_125:\n              swap3\n              pop\n              pop\n              dup2\n              swap1\n              sstore\n              pop\n                /* \"Offer.sol\":12199:12229  uint256 comissionFactoryRented */\n              0x00\n                /* \"Offer.sol\":12262:12265  100 */\n              0x64\n                /* \"Offer.sol\":712:713  1 */\n              0x01\n                /* \"Offer.sol\":12233:12238  price */\n              sload(0x04)\n                /* \"Offer.sol\":12233:12258  price * FACTORY_COMISSION */\n              tag_127\n              swap2\n              swap1\n              tag_128\n              jump\t// in\n            tag_127:\n                /* \"Offer.sol\":12232:12265  (price * FACTORY_COMISSION) / 100 */\n              tag_129\n              swap2\n              swap1\n              tag_130\n              jump\t// in\n            tag_129:\n                /* \"Offer.sol\":12199:12265  uint256 comissionFactoryRented = (price * FACTORY_COMISSION) / 100 */\n              swap1\n              pop\n                /* \"Offer.sol\":12496:12518  comissionFactoryRented */\n              dup1\n                /* \"Offer.sol\":12488:12493  price */\n              sload(0x04)\n                /* \"Offer.sol\":12488:12518  price + comissionFactoryRented */\n              tag_131\n              swap2\n              swap1\n              tag_126\n              jump\t// in\n            tag_131:\n                /* \"Offer.sol\":12452:12463  rentersInfo */\n              0x0a\n                /* \"Offer.sol\":12452:12475  rentersInfo[msg.sender] */\n              0x00\n                /* \"Offer.sol\":12464:12474  msg.sender */\n              caller\n                /* \"Offer.sol\":12452:12475  rentersInfo[msg.sender] */\n              0xffffffffffffffffffffffffffffffffffffffff\n              and\n              0xffffffffffffffffffffffffffffffffffffffff\n              and\n              dup2\n              mstore\n              0x20\n              add\n              swap1\n              dup2\n              mstore\n              0x20\n              add\n              0x00\n              keccak256\n                /* \"Offer.sol\":12452:12483  rentersInfo[msg.sender].deposit */\n              0x01\n              add\n              0x00\n                /* \"Offer.sol\":12452:12519  rentersInfo[msg.sender].deposit -= (price + comissionFactoryRented) */\n              dup3\n              dup3\n              sload\n              tag_132\n              swap2\n              swap1\n              tag_133\n              jump\t// in\n            tag_132:\n              swap3\n              pop\n              pop\n              dup2\n              swap1\n              sstore\n              pop\n                /* \"Offer.sol\":12619:12627  landlord */\n              0x02\n              0x00\n              swap1\n              sload\n              swap1\n              0x0100\n              exp\n              swap1\n              div\n              0xffffffffffffffffffffffffffffffffffffffff\n              and\n                /* \"Offer.sol\":12611:12637  payable(landlord).transfer */\n              0xffffffffffffffffffffffffffffffffffffffff\n              and\n                /* \"Offer.sol\":12611:12644  payable(landlord).transfer(price) */\n              0x08fc\n                /* \"Offer.sol\":12638:12643  price */\n              sload(0x04)\n                /* \"Offer.sol\":12611:12644  payable(landlord).transfer(price) */\n              swap1\n              dup2\n              iszero\n              mul\n              swap1\n              mload(0x40)\n              0x00\n              mload(0x40)\n              dup1\n              dup4\n              sub\n              dup2\n              dup6\n              dup9\n              dup9\n              call\n              swap4\n              pop\n              pop\n              pop\n              pop\n              iszero\n              dup1\n              iszero\n              tag_135\n              jumpi\n              returndatasize\n              0x00\n              dup1\n              returndatacopy\n              revert(0x00, returndatasize)\n            tag_135:\n              pop\n                /* \"Offer.sol\":12732:12744  bool success */\n              0x00\n                /* \"Offer.sol\":12749:12754  owner */\n              0x03\n              0x00\n              swap1\n              sload\n              swap1\n              0x0100\n              exp\n              swap1\n              div\n              0xffffffffffffffffffffffffffffffffffffffff\n              and\n                /* \"Offer.sol\":12749:12759  owner.call */\n              0xffffffffffffffffffffffffffffffffffffffff\n              and\n                /* \"Offer.sol\":12767:12789  comissionFactoryRented */\n              dup3\n                /* \"Offer.sol\":12749:12794  owner.call{value: comissionFactoryRented}(\"\") */\n              mload(0x40)\n              tag_136\n              swap1\n              tag_137\n              jump\t// in\n            tag_136:\n              0x00\n              mload(0x40)\n              dup1\n              dup4\n              sub\n              dup2\n              dup6\n              dup8\n              gas\n              call\n              swap3\n              pop\n              pop\n              pop\n              returndatasize\n              dup1\n              0x00\n              dup2\n              eq\n              tag_140\n              jumpi\n              mload(0x40)\n              swap2\n              pop\n              and(add(returndatasize, 0x3f), not(0x1f))\n              dup3\n              add\n              0x40\n              mstore\n              returndatasize\n              dup3\n              mstore\n              returndatasize\n              0x00\n              0x20\n              dup5\n              add\n              returndatacopy\n              jump(tag_139)\n            tag_140:\n              0x60\n              swap2\n              pop\n            tag_139:\n              pop\n                /* \"Offer.sol\":12731:12794  (bool success,) = owner.call{value: comissionFactoryRented}(\"\") */\n              pop\n              swap1\n              pop\n                /* \"Offer.sol\":12902:12909  success */\n              dup1\n                /* \"Offer.sol\":12894:12921  require(success, \"Failed!\") */\n              tag_141\n              jumpi\n              mload(0x40)\n              0x08c379a000000000000000000000000000000000000000000000000000000000\n              dup2\n              mstore\n              0x04\n              add\n              tag_142\n              swap1\n              tag_143\n              jump\t// in\n            tag_142:\n              mload(0x40)\n              dup1\n              swap2\n              sub\n              swap1\n              revert\n            tag_141:\n                /* \"Offer.sol\":13071:13076  price */\n              sload(0x04)\n                /* \"Offer.sol\":13058:13069  rented_till */\n              sload(0x06)\n                /* \"Offer.sol\":13047:13056  rented_by */\n              0x07\n              0x00\n              swap1\n              sload\n              swap1\n              0x0100\n              exp\n              swap1\n              div\n              0xffffffffffffffffffffffffffffffffffffffff\n              and\n                /* \"Offer.sol\":13033:13077  RentedHousing(rented_by, rented_till, price) */\n              0xffffffffffffffffffffffffffffffffffffffff\n              and\n              0xde83f3c4f0b30046f8683e0ab405e3eed1038c49bca68b6777831e0f17e2257e\n              mload(0x40)\n              mload(0x40)\n              dup1\n              swap2\n              sub\n              swap1\n              log4\n                /* \"Offer.sol\":11702:13249  {... */\n              pop\n              pop\n                /* \"Offer.sol\":11663:13249  function reRent() external only_renter {... */\n              jump\t// out\n                /* \"Offer.sol\":3704:5744  function rent(uint256 _price, uint256 _deposit) public payable not_rented {... */\n            tag_72:\n                /* \"Offer.sol\":2255:2272  RentalStatus.Free */\n              0x00\n                /* \"Offer.sol\":2245:2272  status == RentalStatus.Free */\n              0x02\n              dup2\n              gt\n              iszero\n              tag_145\n              jumpi\n              tag_146\n              tag_28\n              jump\t// in\n            tag_146:\n            tag_145:\n                /* \"Offer.sol\":2245:2251  status */\n              0x00\n              dup1\n              sload\n              swap1\n              0x0100\n              exp\n              swap1\n              div\n              0xff\n              and\n                /* \"Offer.sol\":2245:2272  status == RentalStatus.Free */\n              0x02\n              dup2\n              gt\n              iszero\n              tag_147\n              jumpi\n              tag_148\n              tag_28\n              jump\t// in\n            tag_148:\n            tag_147:\n              eq\n                /* \"Offer.sol\":2237:2309  require(status == RentalStatus.Free, \"The apartment is already booked.\") */\n              tag_149\n              jumpi\n              mload(0x40)\n              0x08c379a000000000000000000000000000000000000000000000000000000000\n              dup2\n              mstore\n              0x04\n              add\n              tag_150\n              swap1\n              tag_33\n              jump\t// in\n            tag_150:\n              mload(0x40)\n              dup1\n              swap2\n              sub\n              swap1\n              revert\n            tag_149:\n                /* \"Offer.sol\":3808:3817  msg.value */\n              callvalue\n                /* \"Offer.sol\":3796:3804  _deposit */\n              dup2\n                /* \"Offer.sol\":3796:3817  _deposit == msg.value */\n              eq\n                /* \"Offer.sol\":3788:3864  require(_deposit == msg.value, \"You have entered the wrong deposit amount.\") */\n              tag_152\n              jumpi\n              mload(0x40)\n              0x08c379a000000000000000000000000000000000000000000000000000000000\n              dup2\n              mstore\n              0x04\n              add\n              tag_153\n              swap1\n              tag_154\n              jump\t// in\n            tag_153:\n              mload(0x40)\n              dup1\n              swap2\n              sub\n              swap1\n              revert\n            tag_152:\n                /* \"Offer.sol\":4210:4219  min_price */\n              sload(0x05)\n                /* \"Offer.sol\":4177:4188  rentersInfo */\n              0x0a\n                /* \"Offer.sol\":4177:4200  rentersInfo[msg.sender] */\n              0x00\n                /* \"Offer.sol\":4189:4199  msg.sender */\n              caller\n                /* \"Offer.sol\":4177:4200  rentersInfo[msg.sender] */\n              0xffffffffffffffffffffffffffffffffffffffff\n              and\n              0xffffffffffffffffffffffffffffffffffffffff\n              and\n              dup2\n              mstore\n              0x20\n              add\n              swap1\n              dup2\n              mstore\n              0x20\n              add\n              0x00\n              keccak256\n                /* \"Offer.sol\":4177:4206  rentersInfo[msg.sender].price */\n              0x00\n              add\n              sload\n                /* \"Offer.sol\":4177:4219  rentersInfo[msg.sender].price >= min_price */\n              lt\n              iszero\n                /* \"Offer.sol\":4177:4242  rentersInfo[msg.sender].price >= min_price || _price >= min_price */\n              dup1\n              tag_155\n              jumpi\n              pop\n                /* \"Offer.sol\":4233:4242  min_price */\n              sload(0x05)\n                /* \"Offer.sol\":4223:4229  _price */\n              dup3\n                /* \"Offer.sol\":4223:4242  _price >= min_price */\n              lt\n              iszero\n                /* \"Offer.sol\":4177:4242  rentersInfo[msg.sender].price >= min_price || _price >= min_price */\n            tag_155:\n                /* \"Offer.sol\":4156:4324  require(... */\n              tag_156\n              jumpi\n              mload(0x40)\n              0x08c379a000000000000000000000000000000000000000000000000000000000\n              dup2\n              mstore\n              0x04\n              add\n              tag_157\n              swap1\n              tag_158\n              jump\t// in\n            tag_157:\n              mload(0x40)\n              dup1\n              swap2\n              sub\n              swap1\n              revert\n            tag_156:\n                /* \"Offer.sol\":4522:4533  min_deposit */\n              sload(0x08)\n                /* \"Offer.sol\":4487:4498  rentersInfo */\n              0x0a\n                /* \"Offer.sol\":4487:4510  rentersInfo[msg.sender] */\n              0x00\n                /* \"Offer.sol\":4499:4509  msg.sender */\n              caller\n                /* \"Offer.sol\":4487:4510  rentersInfo[msg.sender] */\n              0xffffffffffffffffffffffffffffffffffffffff\n              and\n              0xffffffffffffffffffffffffffffffffffffffff\n              and\n              dup2\n              mstore\n              0x20\n              add\n              swap1\n              dup2\n              mstore\n              0x20\n              add\n              0x00\n              keccak256\n                /* \"Offer.sol\":4487:4518  rentersInfo[msg.sender].deposit */\n              0x01\n              add\n              sload\n                /* \"Offer.sol\":4487:4533  rentersInfo[msg.sender].deposit >= min_deposit */\n              lt\n              iszero\n                /* \"Offer.sol\":4487:4560  rentersInfo[msg.sender].deposit >= min_deposit || _deposit >= min_deposit */\n              dup1\n              tag_159\n              jumpi\n              pop\n                /* \"Offer.sol\":4549:4560  min_deposit */\n              sload(0x08)\n                /* \"Offer.sol\":4537:4545  _deposit */\n              dup2\n                /* \"Offer.sol\":4537:4560  _deposit >= min_deposit */\n              lt\n              iszero\n                /* \"Offer.sol\":4487:4560  rentersInfo[msg.sender].deposit >= min_deposit || _deposit >= min_deposit */\n            tag_159:\n                /* \"Offer.sol\":4466:4645  require(... */\n              tag_160\n              jumpi\n              mload(0x40)\n              0x08c379a000000000000000000000000000000000000000000000000000000000\n              dup2\n              mstore\n              0x04\n              add\n              tag_161\n              swap1\n              tag_162\n              jump\t// in\n            tag_161:\n              mload(0x40)\n              dup1\n              swap2\n              sub\n              swap1\n              revert\n            tag_160:\n                /* \"Offer.sol\":4788:4799  rentersAddr */\n              0x09\n                /* \"Offer.sol\":4805:4815  msg.sender */\n              caller\n                /* \"Offer.sol\":4788:4816  rentersAddr.push(msg.sender) */\n              swap1\n              dup1\n              0x01\n              dup2\n              sload\n              add\n              dup1\n              dup3\n              sstore\n              dup1\n              swap2\n              pop\n              pop\n              0x01\n              swap1\n              sub\n              swap1\n              0x00\n              mstore\n              keccak256(0x00, 0x20)\n              add\n              0x00\n              swap1\n              swap2\n              swap1\n              swap2\n              swap1\n              swap2\n              0x0100\n              exp\n              dup2\n              sload\n              dup2\n              0xffffffffffffffffffffffffffffffffffffffff\n              mul\n              not\n              and\n              swap1\n              dup4\n              0xffffffffffffffffffffffffffffffffffffffff\n              and\n              mul\n              or\n              swap1\n              sstore\n              pop\n                /* \"Offer.sol\":4934:4951  uint256 rentPrice */\n              0x00\n                /* \"Offer.sol\":4987:4993  _price */\n              dup3\n                /* \"Offer.sol\":4954:4965  rentersInfo */\n              0x0a\n                /* \"Offer.sol\":4954:4977  rentersInfo[msg.sender] */\n              0x00\n                /* \"Offer.sol\":4966:4976  msg.sender */\n              caller\n                /* \"Offer.sol\":4954:4977  rentersInfo[msg.sender] */\n              0xffffffffffffffffffffffffffffffffffffffff\n              and\n              0xffffffffffffffffffffffffffffffffffffffff\n              and\n              dup2\n              mstore\n              0x20\n              add\n              swap1\n              dup2\n              mstore\n              0x20\n              add\n              0x00\n              keccak256\n                /* \"Offer.sol\":4954:4983  rentersInfo[msg.sender].price */\n              0x00\n              add\n              0x00\n                /* \"Offer.sol\":4954:4993  rentersInfo[msg.sender].price += _price */\n              dup3\n              dup3\n              sload\n              tag_164\n              swap2\n              swap1\n              tag_126\n              jump\t// in\n            tag_164:\n              swap3\n              pop\n              pop\n              dup2\n              swap1\n              sstore\n                /* \"Offer.sol\":4934:4993  uint256 rentPrice = rentersInfo[msg.sender].price += _price */\n              swap1\n              pop\n                /* \"Offer.sol\":5117:5136  uint256 rentDeposit */\n              0x00\n                /* \"Offer.sol\":5174:5182  _deposit */\n              dup3\n                /* \"Offer.sol\":5139:5150  rentersInfo */\n              0x0a\n                /* \"Offer.sol\":5139:5162  rentersInfo[msg.sender] */\n              0x00\n                /* \"Offer.sol\":5151:5161  msg.sender */\n              caller\n                /* \"Offer.sol\":5139:5162  rentersInfo[msg.sender] */\n              0xffffffffffffffffffffffffffffffffffffffff\n              and\n              0xffffffffffffffffffffffffffffffffffffffff\n              and\n              dup2\n              mstore\n              0x20\n              add\n              swap1\n              dup2\n              mstore\n              0x20\n              add\n              0x00\n              keccak256\n                /* \"Offer.sol\":5139:5170  rentersInfo[msg.sender].deposit */\n              0x01\n              add\n              0x00\n                /* \"Offer.sol\":5139:5182  rentersInfo[msg.sender].deposit += _deposit */\n              dup3\n              dup3\n              sload\n              tag_165\n              swap2\n              swap1\n              tag_126\n              jump\t// in\n            tag_165:\n              swap3\n              pop\n              pop\n              dup2\n              swap1\n              sstore\n                /* \"Offer.sol\":5117:5182  uint256 rentDeposit = rentersInfo[msg.sender].deposit += _deposit */\n              swap1\n              pop\n                /* \"Offer.sol\":5311:5323  bool success */\n              0x00\n                /* \"Offer.sol\":5336:5340  this */\n              address\n                /* \"Offer.sol\":5328:5346  address(this).call */\n              0xffffffffffffffffffffffffffffffffffffffff\n              and\n                /* \"Offer.sol\":5354:5363  msg.value */\n              callvalue\n                /* \"Offer.sol\":5328:5368  address(this).call{value: msg.value}(\"\") */\n              mload(0x40)\n              tag_166\n              swap1\n              tag_137\n              jump\t// in\n            tag_166:\n              0x00\n              mload(0x40)\n              dup1\n              dup4\n              sub\n              dup2\n              dup6\n              dup8\n              gas\n              call\n              swap3\n              pop\n              pop\n              pop\n              returndatasize\n              dup1\n              0x00\n              dup2\n              eq\n              tag_169\n              jumpi\n              mload(0x40)\n              swap2\n              pop\n              and(add(returndatasize, 0x3f), not(0x1f))\n              dup3\n              add\n              0x40\n              mstore\n              returndatasize\n              dup3\n              mstore\n              returndatasize\n              0x00\n              0x20\n              dup5\n              add\n              returndatacopy\n              jump(tag_168)\n            tag_169:\n              0x60\n              swap2\n              pop\n            tag_168:\n              pop\n                /* \"Offer.sol\":5310:5368  (bool success,) = address(this).call{value: msg.value}(\"\") */\n              pop\n              swap1\n              pop\n                /* \"Offer.sol\":5471:5478  success */\n              dup1\n                /* \"Offer.sol\":5463:5490  require(success, \"Failed!\") */\n              tag_170\n              jumpi\n              mload(0x40)\n              0x08c379a000000000000000000000000000000000000000000000000000000000\n              dup2\n              mstore\n              0x04\n              add\n              tag_171\n              swap1\n              tag_143\n              jump\t// in\n            tag_171:\n              mload(0x40)\n              dup1\n              swap2\n              sub\n              swap1\n              revert\n            tag_170:\n                /* \"Offer.sol\":5639:5650  rentDeposit */\n              dup2\n                /* \"Offer.sol\":5628:5637  rentPrice */\n              dup4\n                /* \"Offer.sol\":5616:5626  msg.sender */\n              caller\n                /* \"Offer.sol\":5602:5651  RenterMadeBat(msg.sender, rentPrice, rentDeposit) */\n              0xffffffffffffffffffffffffffffffffffffffff\n              and\n              0xaacc919b33556c4a2808ab4316fd9ade1d6cbd2e0c690ddbc11734e900c4ebe5\n              mload(0x40)\n              mload(0x40)\n              dup1\n              swap2\n              sub\n              swap1\n              log4\n                /* \"Offer.sol\":3778:5744  {... */\n              pop\n              pop\n              pop\n                /* \"Offer.sol\":3704:5744  function rent(uint256 _price, uint256 _deposit) public payable not_rented {... */\n              pop\n              pop\n              jump\t// out\n                /* \"Offer.sol\":465:485  address public owner */\n            tag_75:\n              0x03\n              0x00\n              swap1\n              sload\n              swap1\n              0x0100\n              exp\n              swap1\n              div\n              0xffffffffffffffffffffffffffffffffffffffff\n              and\n              dup2\n              jump\t// out\n                /* \"Offer.sol\":13255:14814  function break_contract() external only_renter {... */\n            tag_79:\n                /* \"Offer.sol\":2862:2871  rented_by */\n              0x07\n              0x00\n              swap1\n              sload\n              swap1\n              0x0100\n              exp\n              swap1\n              div\n              0xffffffffffffffffffffffffffffffffffffffff\n              and\n                /* \"Offer.sol\":2848:2871  msg.sender == rented_by */\n              0xffffffffffffffffffffffffffffffffffffffff\n              and\n                /* \"Offer.sol\":2848:2858  msg.sender */\n              caller\n                /* \"Offer.sol\":2848:2871  msg.sender == rented_by */\n              0xffffffffffffffffffffffffffffffffffffffff\n              and\n              eq\n                /* \"Offer.sol\":2848:2913  msg.sender == rented_by && rentersInfo[msg.sender].rented == true */\n              dup1\n              iszero\n              tag_173\n              jumpi\n              pop\n                /* \"Offer.sol\":2909:2913  true */\n              0x01\n                /* \"Offer.sol\":2875:2913  rentersInfo[msg.sender].rented == true */\n              iszero\n              iszero\n                /* \"Offer.sol\":2875:2886  rentersInfo */\n              0x0a\n                /* \"Offer.sol\":2875:2898  rentersInfo[msg.sender] */\n              0x00\n                /* \"Offer.sol\":2887:2897  msg.sender */\n              caller\n                /* \"Offer.sol\":2875:2898  rentersInfo[msg.sender] */\n              0xffffffffffffffffffffffffffffffffffffffff\n              and\n              0xffffffffffffffffffffffffffffffffffffffff\n              and\n              dup2\n              mstore\n              0x20\n              add\n              swap1\n              dup2\n              mstore\n              0x20\n              add\n              0x00\n              keccak256\n                /* \"Offer.sol\":2875:2905  rentersInfo[msg.sender].rented */\n              0x02\n              add\n              0x00\n              swap1\n              sload\n              swap1\n              0x0100\n              exp\n              swap1\n              div\n              0xff\n              and\n                /* \"Offer.sol\":2875:2913  rentersInfo[msg.sender].rented == true */\n              iszero\n              iszero\n              eq\n                /* \"Offer.sol\":2848:2913  msg.sender == rented_by && rentersInfo[msg.sender].rented == true */\n            tag_173:\n                /* \"Offer.sol\":2827:2985  require(... */\n              tag_174\n              jumpi\n              mload(0x40)\n              0x08c379a000000000000000000000000000000000000000000000000000000000\n              dup2\n              mstore\n              0x04\n              add\n              tag_175\n              swap1\n              tag_120\n              jump\t// in\n            tag_175:\n              mload(0x40)\n              dup1\n              swap2\n              sub\n              swap1\n              revert\n            tag_174:\n                /* \"Offer.sol\":13505:13506  0 */\n              0x00\n                /* \"Offer.sol\":13471:13482  rentersInfo */\n              0x0a\n                /* \"Offer.sol\":13471:13494  rentersInfo[msg.sender] */\n              0x00\n                /* \"Offer.sol\":13483:13493  msg.sender */\n              caller\n                /* \"Offer.sol\":13471:13494  rentersInfo[msg.sender] */\n              0xffffffffffffffffffffffffffffffffffffffff\n              and\n              0xffffffffffffffffffffffffffffffffffffffff\n              and\n              dup2\n              mstore\n              0x20\n              add\n              swap1\n              dup2\n              mstore\n              0x20\n              add\n              0x00\n              keccak256\n                /* \"Offer.sol\":13471:13502  rentersInfo[msg.sender].deposit */\n              0x01\n              add\n              sload\n                /* \"Offer.sol\":13471:13506  rentersInfo[msg.sender].deposit > 0 */\n              gt\n                /* \"Offer.sol\":13463:13532  require(rentersInfo[msg.sender].deposit > 0, \"your balance is zero!\") */\n              tag_177\n              jumpi\n              mload(0x40)\n              0x08c379a000000000000000000000000000000000000000000000000000000000\n              dup2\n              mstore\n              0x04\n              add\n              tag_178\n              swap1\n              tag_179\n              jump\t// in\n            tag_178:\n              mload(0x40)\n              dup1\n              swap2\n              sub\n              swap1\n              revert\n            tag_177:\n                /* \"Offer.sol\":13542:13568  uint256 balanceRenterBreak */\n              0x00\n                /* \"Offer.sol\":13571:13582  rentersInfo */\n              0x0a\n                /* \"Offer.sol\":13571:13594  rentersInfo[msg.sender] */\n              0x00\n                /* \"Offer.sol\":13583:13593  msg.sender */\n              caller\n                /* \"Offer.sol\":13571:13594  rentersInfo[msg.sender] */\n              0xffffffffffffffffffffffffffffffffffffffff\n              and\n              0xffffffffffffffffffffffffffffffffffffffff\n              and\n              dup2\n              mstore\n              0x20\n              add\n              swap1\n              dup2\n              mstore\n              0x20\n              add\n              0x00\n              keccak256\n                /* \"Offer.sol\":13571:13602  rentersInfo[msg.sender].deposit */\n              0x01\n              add\n              sload\n                /* \"Offer.sol\":13542:13602  uint256 balanceRenterBreak = rentersInfo[msg.sender].deposit */\n              swap1\n              pop\n                /* \"Offer.sol\":13775:13796  address(this).balance */\n              selfbalance\n                /* \"Offer.sol\":13753:13771  balanceRenterBreak */\n              dup2\n                /* \"Offer.sol\":13753:13796  balanceRenterBreak <= address(this).balance */\n              gt\n              iszero\n                /* \"Offer.sol\":13745:13832  require(balanceRenterBreak <= address(this).balance, \"balance contract little deposit\") */\n              tag_180\n              jumpi\n              mload(0x40)\n              0x08c379a000000000000000000000000000000000000000000000000000000000\n              dup2\n              mstore\n              0x04\n              add\n              tag_181\n              swap1\n              tag_182\n              jump\t// in\n            tag_181:\n              mload(0x40)\n              dup1\n              swap2\n              sub\n              swap1\n              revert\n            tag_180:\n                /* \"Offer.sol\":13877:13878  0 */\n              0x00\n                /* \"Offer.sol\":13843:13854  rentersInfo */\n              0x0a\n                /* \"Offer.sol\":13843:13866  rentersInfo[msg.sender] */\n              0x00\n                /* \"Offer.sol\":13855:13865  msg.sender */\n              caller\n                /* \"Offer.sol\":13843:13866  rentersInfo[msg.sender] */\n              0xffffffffffffffffffffffffffffffffffffffff\n              and\n              0xffffffffffffffffffffffffffffffffffffffff\n              and\n              dup2\n              mstore\n              0x20\n              add\n              swap1\n              dup2\n              mstore\n              0x20\n              add\n              0x00\n              keccak256\n                /* \"Offer.sol\":13843:13874  rentersInfo[msg.sender].deposit */\n              0x01\n              add\n                /* \"Offer.sol\":13843:13878  rentersInfo[msg.sender].deposit = 0 */\n              dup2\n              swap1\n              sstore\n              pop\n                /* \"Offer.sol\":13976:13977  0 */\n              0x00\n                /* \"Offer.sol\":13944:13955  rentersInfo */\n              0x0a\n                /* \"Offer.sol\":13944:13967  rentersInfo[msg.sender] */\n              0x00\n                /* \"Offer.sol\":13956:13966  msg.sender */\n              caller\n                /* \"Offer.sol\":13944:13967  rentersInfo[msg.sender] */\n              0xffffffffffffffffffffffffffffffffffffffff\n              and\n              0xffffffffffffffffffffffffffffffffffffffff\n              and\n              dup2\n              mstore\n              0x20\n              add\n              swap1\n              dup2\n              mstore\n              0x20\n              add\n              0x00\n              keccak256\n                /* \"Offer.sol\":13944:13973  rentersInfo[msg.sender].price */\n              0x00\n              add\n                /* \"Offer.sol\":13944:13977  rentersInfo[msg.sender].price = 0 */\n              dup2\n              swap1\n              sstore\n              pop\n                /* \"Offer.sol\":14067:14072  false */\n              0x00\n                /* \"Offer.sol\":14034:14045  rentersInfo */\n              0x0a\n                /* \"Offer.sol\":14034:14057  rentersInfo[msg.sender] */\n              0x00\n                /* \"Offer.sol\":14046:14056  msg.sender */\n              caller\n                /* \"Offer.sol\":14034:14057  rentersInfo[msg.sender] */\n              0xffffffffffffffffffffffffffffffffffffffff\n              and\n              0xffffffffffffffffffffffffffffffffffffffff\n              and\n              dup2\n              mstore\n              0x20\n              add\n              swap1\n              dup2\n              mstore\n              0x20\n              add\n              0x00\n              keccak256\n                /* \"Offer.sol\":14034:14064  rentersInfo[msg.sender].rented */\n              0x02\n              add\n              0x00\n                /* \"Offer.sol\":14034:14072  rentersInfo[msg.sender].rented = false */\n              0x0100\n              exp\n              dup2\n              sload\n              dup2\n              0xff\n              mul\n              not\n              and\n              swap1\n              dup4\n              iszero\n              iszero\n              mul\n              or\n              swap1\n              sstore\n              pop\n                /* \"Offer.sol\":14154:14155  0 */\n              0x00\n                /* \"Offer.sol\":14134:14143  rented_by */\n              0x07\n              0x00\n                /* \"Offer.sol\":14134:14156  rented_by = address(0) */\n              0x0100\n              exp\n              dup2\n              sload\n              dup2\n              0xffffffffffffffffffffffffffffffffffffffff\n              mul\n              not\n              and\n              swap1\n              dup4\n              0xffffffffffffffffffffffffffffffffffffffff\n              and\n              mul\n              or\n              swap1\n              sstore\n              pop\n                /* \"Offer.sol\":14232:14233  0 */\n              0x00\n                /* \"Offer.sol\":14218:14229  rented_till */\n              0x06\n                /* \"Offer.sol\":14218:14233  rented_till = 0 */\n              dup2\n              swap1\n              sstore\n              pop\n                /* \"Offer.sol\":14295:14296  0 */\n              0x00\n                /* \"Offer.sol\":14287:14292  price */\n              0x04\n                /* \"Offer.sol\":14287:14296  price = 0 */\n              dup2\n              swap1\n              sstore\n              pop\n                /* \"Offer.sol\":14396:14413  RentalStatus.Free */\n              0x00\n                /* \"Offer.sol\":14387:14393  status */\n              dup1\n              0x00\n                /* \"Offer.sol\":14387:14413  status = RentalStatus.Free */\n              0x0100\n              exp\n              dup2\n              sload\n              dup2\n              0xff\n              mul\n              not\n              and\n              swap1\n              dup4\n              0x02\n              dup2\n              gt\n              iszero\n              tag_183\n              jumpi\n              tag_184\n              tag_28\n              jump\t// in\n            tag_184:\n            tag_183:\n              mul\n              or\n              swap1\n              sstore\n              pop\n                /* \"Offer.sol\":14517:14527  msg.sender */\n              caller\n                /* \"Offer.sol\":14509:14537  payable(msg.sender).transfer */\n              0xffffffffffffffffffffffffffffffffffffffff\n              and\n                /* \"Offer.sol\":14509:14557  payable(msg.sender).transfer(balanceRenterBreak) */\n              0x08fc\n                /* \"Offer.sol\":14538:14556  balanceRenterBreak */\n              dup3\n                /* \"Offer.sol\":14509:14557  payable(msg.sender).transfer(balanceRenterBreak) */\n              swap1\n              dup2\n              iszero\n              mul\n              swap1\n              mload(0x40)\n              0x00\n              mload(0x40)\n              dup1\n              dup4\n              sub\n              dup2\n              dup6\n              dup9\n              dup9\n              call\n              swap4\n              pop\n              pop\n              pop\n              pop\n              iszero\n              dup1\n              iszero\n              tag_186\n              jumpi\n              returndatasize\n              0x00\n              dup1\n              returndatacopy\n              revert(0x00, returndatasize)\n            tag_186:\n              pop\n                /* \"Offer.sol\":14697:14698  0 */\n              0x00\n                /* \"Offer.sol\":14677:14695  balanceRenterBreak */\n              dup2\n                /* \"Offer.sol\":14665:14675  msg.sender */\n              caller\n                /* \"Offer.sol\":14652:14699  RefundOfFund(msg.sender, balanceRenterBreak, 0) */\n              0xffffffffffffffffffffffffffffffffffffffff\n              and\n              0x0d42c544626f700952f5443e6492f095da0d472b7fb1e9daf9a722eb8feb0718\n              mload(0x40)\n              mload(0x40)\n              dup1\n              swap2\n              sub\n              swap1\n              log4\n                /* \"Offer.sol\":13302:14814  {... */\n              pop\n                /* \"Offer.sol\":13255:14814  function break_contract() external only_renter {... */\n              jump\t// out\n                /* \"Offer.sol\":537:557  uint256 public price */\n            tag_82:\n              sload(0x04)\n              dup2\n              jump\t// out\n                /* \"Offer.sol\":1168:1196  address[] public rentersAddr */\n            tag_88:\n              0x09\n              dup2\n              dup2\n              sload\n              dup2\n              lt\n              tag_187\n              jumpi\n              0x00\n              dup1\n              revert\n            tag_187:\n              swap1\n              0x00\n              mstore\n              keccak256(0x00, 0x20)\n              add\n              0x00\n              swap2\n              pop\n              sload\n              swap1\n              0x0100\n              exp\n              swap1\n              div\n              0xffffffffffffffffffffffffffffffffffffffff\n              and\n              dup2\n              jump\t// out\n                /* \"Offer.sol\":350:367  uint256 public id */\n            tag_92:\n              sload(0x01)\n              dup2\n              jump\t// out\n                /* \"Offer.sol\":787:811  uint256 public min_price */\n            tag_96:\n              sload(0x05)\n              dup2\n              jump\t// out\n                /* \"Offer.sol\":668:713  uint256 public constant FACTORY_COMISSION = 1 */\n            tag_100:\n                /* \"Offer.sol\":712:713  1 */\n              0x01\n                /* \"Offer.sol\":668:713  uint256 public constant FACTORY_COMISSION = 1 */\n              dup2\n              jump\t// out\n                /* \"Offer.sol\":5750:10188  function approve(address _renter) public only_landlord not_rented {... */\n            tag_105:\n                /* \"Offer.sol\":2535:2545  msg.sender */\n              caller\n                /* \"Offer.sol\":2523:2545  landlord == msg.sender */\n              0xffffffffffffffffffffffffffffffffffffffff\n              and\n                /* \"Offer.sol\":2523:2531  landlord */\n              0x02\n              0x00\n              swap1\n              sload\n              swap1\n              0x0100\n              exp\n              swap1\n              div\n              0xffffffffffffffffffffffffffffffffffffffff\n              and\n                /* \"Offer.sol\":2523:2545  landlord == msg.sender */\n              0xffffffffffffffffffffffffffffffffffffffff\n              and\n              eq\n                /* \"Offer.sol\":2515:2576  require(landlord == msg.sender, \"Can only execute landlord.\") */\n              tag_190\n              jumpi\n              mload(0x40)\n              0x08c379a000000000000000000000000000000000000000000000000000000000\n              dup2\n              mstore\n              0x04\n              add\n              tag_191\n              swap1\n              tag_192\n              jump\t// in\n            tag_191:\n              mload(0x40)\n              dup1\n              swap2\n              sub\n              swap1\n              revert\n            tag_190:\n                /* \"Offer.sol\":2255:2272  RentalStatus.Free */\n              0x00\n                /* \"Offer.sol\":2245:2272  status == RentalStatus.Free */\n              0x02\n              dup2\n              gt\n              iszero\n              tag_194\n              jumpi\n              tag_195\n              tag_28\n              jump\t// in\n            tag_195:\n            tag_194:\n                /* \"Offer.sol\":2245:2251  status */\n              0x00\n              dup1\n              sload\n              swap1\n              0x0100\n              exp\n              swap1\n              div\n              0xff\n              and\n                /* \"Offer.sol\":2245:2272  status == RentalStatus.Free */\n              0x02\n              dup2\n              gt\n              iszero\n              tag_196\n              jumpi\n              tag_197\n              tag_28\n              jump\t// in\n            tag_197:\n            tag_196:\n              eq\n                /* \"Offer.sol\":2237:2309  require(status == RentalStatus.Free, \"The apartment is already booked.\") */\n              tag_198\n              jumpi\n              mload(0x40)\n              0x08c379a000000000000000000000000000000000000000000000000000000000\n              dup2\n              mstore\n              0x04\n              add\n              tag_199\n              swap1\n              tag_33\n              jump\t// in\n            tag_199:\n              mload(0x40)\n              dup1\n              swap2\n              sub\n              swap1\n              revert\n            tag_198:\n                /* \"Offer.sol\":5848:5855  _renter */\n              dup1\n                /* \"Offer.sol\":5834:5855  msg.sender != _renter */\n              0xffffffffffffffffffffffffffffffffffffffff\n              and\n                /* \"Offer.sol\":5834:5844  msg.sender */\n              caller\n                /* \"Offer.sol\":5834:5855  msg.sender != _renter */\n              0xffffffffffffffffffffffffffffffffffffffff\n              and\n              eq\n              iszero\n                /* \"Offer.sol\":5834:5880  msg.sender != _renter && _renter != address(0) */\n              dup1\n              iszero\n              tag_201\n              jumpi\n              pop\n                /* \"Offer.sol\":5878:5879  0 */\n              0x00\n                /* \"Offer.sol\":5859:5880  _renter != address(0) */\n              0xffffffffffffffffffffffffffffffffffffffff\n              and\n                /* \"Offer.sol\":5859:5866  _renter */\n              dup2\n                /* \"Offer.sol\":5859:5880  _renter != address(0) */\n              0xffffffffffffffffffffffffffffffffffffffff\n              and\n              eq\n              iszero\n                /* \"Offer.sol\":5834:5880  msg.sender != _renter && _renter != address(0) */\n            tag_201:\n                /* \"Offer.sol\":5826:5920  require(msg.sender != _renter && _renter != address(0), \"you can't rent a place by yourself!\") */\n              tag_202\n              jumpi\n              mload(0x40)\n              0x08c379a000000000000000000000000000000000000000000000000000000000\n              dup2\n              mstore\n              0x04\n              add\n              tag_203\n              swap1\n              tag_204\n              jump\t// in\n            tag_203:\n              mload(0x40)\n              dup1\n              swap2\n              sub\n              swap1\n              revert\n            tag_202:\n                /* \"Offer.sol\":6107:6118  min_deposit */\n              sload(0x08)\n                /* \"Offer.sol\":6075:6086  rentersInfo */\n              0x0a\n                /* \"Offer.sol\":6075:6095  rentersInfo[_renter] */\n              0x00\n                /* \"Offer.sol\":6087:6094  _renter */\n              dup4\n                /* \"Offer.sol\":6075:6095  rentersInfo[_renter] */\n              0xffffffffffffffffffffffffffffffffffffffff\n              and\n              0xffffffffffffffffffffffffffffffffffffffff\n              and\n              dup2\n              mstore\n              0x20\n              add\n              swap1\n              dup2\n              mstore\n              0x20\n              add\n              0x00\n              keccak256\n                /* \"Offer.sol\":6075:6103  rentersInfo[_renter].deposit */\n              0x01\n              add\n              sload\n                /* \"Offer.sol\":6075:6118  rentersInfo[_renter].deposit >= min_deposit */\n              lt\n              iszero\n                /* \"Offer.sol\":6067:6148  require(rentersInfo[_renter].deposit >= min_deposit, \"the deposit is too small!\") */\n              tag_205\n              jumpi\n              mload(0x40)\n              0x08c379a000000000000000000000000000000000000000000000000000000000\n              dup2\n              mstore\n              0x04\n              add\n              tag_206\n              swap1\n              tag_207\n              jump\t// in\n            tag_206:\n              mload(0x40)\n              dup1\n              swap2\n              sub\n              swap1\n              revert\n            tag_205:\n                /* \"Offer.sol\":6338:6345  _renter */\n              dup1\n                /* \"Offer.sol\":6326:6335  rented_by */\n              0x07\n              0x00\n                /* \"Offer.sol\":6326:6345  rented_by = _renter */\n              0x0100\n              exp\n              dup2\n              sload\n              dup2\n              0xffffffffffffffffffffffffffffffffffffffff\n              mul\n              not\n              and\n              swap1\n              dup4\n              0xffffffffffffffffffffffffffffffffffffffff\n              and\n              mul\n              or\n              swap1\n              sstore\n              pop\n                /* \"Offer.sol\":6438:6445  30 days */\n              0x278d00\n                /* \"Offer.sol\":6420:6435  block.timestamp */\n              timestamp\n                /* \"Offer.sol\":6420:6445  block.timestamp + 30 days */\n              tag_208\n              swap2\n              swap1\n              tag_126\n              jump\t// in\n            tag_208:\n                /* \"Offer.sol\":6406:6417  rented_till */\n              0x06\n                /* \"Offer.sol\":6406:6445  rented_till = block.timestamp + 30 days */\n              dup2\n              swap1\n              sstore\n              pop\n                /* \"Offer.sol\":6542:6553  rentersInfo */\n              0x0a\n                /* \"Offer.sol\":6542:6564  rentersInfo[rented_by] */\n              0x00\n                /* \"Offer.sol\":6554:6563  rented_by */\n              0x07\n              0x00\n              swap1\n              sload\n              swap1\n              0x0100\n              exp\n              swap1\n              div\n              0xffffffffffffffffffffffffffffffffffffffff\n              and\n                /* \"Offer.sol\":6542:6564  rentersInfo[rented_by] */\n              0xffffffffffffffffffffffffffffffffffffffff\n              and\n              0xffffffffffffffffffffffffffffffffffffffff\n              and\n              dup2\n              mstore\n              0x20\n              add\n              swap1\n              dup2\n              mstore\n              0x20\n              add\n              0x00\n              keccak256\n                /* \"Offer.sol\":6542:6570  rentersInfo[rented_by].price */\n              0x00\n              add\n              sload\n                /* \"Offer.sol\":6534:6539  price */\n              0x04\n                /* \"Offer.sol\":6534:6570  price = rentersInfo[rented_by].price */\n              dup2\n              swap1\n              sstore\n              pop\n                /* \"Offer.sol\":6748:6757  uint256 i */\n              0x00\n                /* \"Offer.sol\":6743:10085  for (uint256 i = 0; i < rentersAddr.length; i++) {... */\n            tag_209:\n                /* \"Offer.sol\":6767:6778  rentersAddr */\n              0x09\n                /* \"Offer.sol\":6767:6785  rentersAddr.length */\n              dup1\n              sload\n              swap1\n              pop\n                /* \"Offer.sol\":6763:6764  i */\n              dup2\n                /* \"Offer.sol\":6763:6785  i < rentersAddr.length */\n              lt\n                /* \"Offer.sol\":6743:10085  for (uint256 i = 0; i < rentersAddr.length; i++) {... */\n              iszero\n              tag_210\n              jumpi\n                /* \"Offer.sol\":6828:6837  rented_by */\n              0x07\n              0x00\n              swap1\n              sload\n              swap1\n              0x0100\n              exp\n              swap1\n              div\n              0xffffffffffffffffffffffffffffffffffffffff\n              and\n                /* \"Offer.sol\":6810:6837  rentersAddr[i] != rented_by */\n              0xffffffffffffffffffffffffffffffffffffffff\n              and\n                /* \"Offer.sol\":6810:6821  rentersAddr */\n              0x09\n                /* \"Offer.sol\":6822:6823  i */\n              dup3\n                /* \"Offer.sol\":6810:6824  rentersAddr[i] */\n              dup2\n              sload\n              dup2\n              lt\n              tag_212\n              jumpi\n              tag_213\n              tag_214\n              jump\t// in\n            tag_213:\n            tag_212:\n              swap1\n              0x00\n              mstore\n              keccak256(0x00, 0x20)\n              add\n              0x00\n              swap1\n              sload\n              swap1\n              0x0100\n              exp\n              swap1\n              div\n              0xffffffffffffffffffffffffffffffffffffffff\n              and\n                /* \"Offer.sol\":6810:6837  rentersAddr[i] != rented_by */\n              0xffffffffffffffffffffffffffffffffffffffff\n              and\n              eq\n                /* \"Offer.sol\":6806:10075  if (rentersAddr[i] != rented_by) {... */\n              tag_216\n              jumpi\n                /* \"Offer.sol\":6998:7016  address renterAddr */\n              0x00\n                /* \"Offer.sol\":7019:7030  rentersAddr */\n              0x09\n                /* \"Offer.sol\":7031:7032  i */\n              dup3\n                /* \"Offer.sol\":7019:7033  rentersAddr[i] */\n              dup2\n              sload\n              dup2\n              lt\n              tag_217\n              jumpi\n              tag_218\n              tag_214\n              jump\t// in\n            tag_218:\n            tag_217:\n              swap1\n              0x00\n              mstore\n              keccak256(0x00, 0x20)\n              add\n              0x00\n              swap1\n              sload\n              swap1\n              0x0100\n              exp\n              swap1\n              div\n              0xffffffffffffffffffffffffffffffffffffffff\n              and\n                /* \"Offer.sol\":6998:7033  address renterAddr = rentersAddr[i] */\n              swap1\n              pop\n                /* \"Offer.sol\":7149:7173  uint256 comissionFactory */\n              0x00\n                /* \"Offer.sol\":7229:7232  100 */\n              0x64\n                /* \"Offer.sol\":712:713  1 */\n              0x01\n                /* \"Offer.sol\":7177:7188  rentersInfo */\n              0x0a\n                /* \"Offer.sol\":7177:7197  rentersInfo[_renter] */\n              0x00\n                /* \"Offer.sol\":7189:7196  _renter */\n              dup8\n                /* \"Offer.sol\":7177:7197  rentersInfo[_renter] */\n              0xffffffffffffffffffffffffffffffffffffffff\n              and\n              0xffffffffffffffffffffffffffffffffffffffff\n              and\n              dup2\n              mstore\n              0x20\n              add\n              swap1\n              dup2\n              mstore\n              0x20\n              add\n              0x00\n              keccak256\n                /* \"Offer.sol\":7177:7205  rentersInfo[_renter].deposit */\n              0x01\n              add\n              sload\n                /* \"Offer.sol\":7177:7225  rentersInfo[_renter].deposit * FACTORY_COMISSION */\n              tag_220\n              swap2\n              swap1\n              tag_128\n              jump\t// in\n            tag_220:\n                /* \"Offer.sol\":7176:7232  (rentersInfo[_renter].deposit * FACTORY_COMISSION) / 100 */\n              tag_221\n              swap2\n              swap1\n              tag_130\n              jump\t// in\n            tag_221:\n                /* \"Offer.sol\":7149:7232  uint256 comissionFactory = (rentersInfo[_renter].deposit * FACTORY_COMISSION) / 100 */\n              swap1\n              pop\n                /* \"Offer.sol\":7361:7382  uint256 balanceRenter */\n              0x00\n                /* \"Offer.sol\":7419:7435  comissionFactory */\n              dup2\n                /* \"Offer.sol\":7385:7396  rentersInfo */\n              0x0a\n                /* \"Offer.sol\":7385:7408  rentersInfo[renterAddr] */\n              0x00\n                /* \"Offer.sol\":7397:7407  renterAddr */\n              dup6\n                /* \"Offer.sol\":7385:7408  rentersInfo[renterAddr] */\n              0xffffffffffffffffffffffffffffffffffffffff\n              and\n              0xffffffffffffffffffffffffffffffffffffffff\n              and\n              dup2\n              mstore\n              0x20\n              add\n              swap1\n              dup2\n              mstore\n              0x20\n              add\n              0x00\n              keccak256\n                /* \"Offer.sol\":7385:7416  rentersInfo[renterAddr].deposit */\n              0x01\n              add\n              sload\n                /* \"Offer.sol\":7385:7435  rentersInfo[renterAddr].deposit - comissionFactory */\n              tag_222\n              swap2\n              swap1\n              tag_133\n              jump\t// in\n            tag_222:\n                /* \"Offer.sol\":7361:7435  uint256 balanceRenter = rentersInfo[renterAddr].deposit - comissionFactory */\n              swap1\n              pop\n                /* \"Offer.sol\":7588:7589  0 */\n              0x00\n                /* \"Offer.sol\":7554:7565  rentersInfo */\n              0x0a\n                /* \"Offer.sol\":7554:7577  rentersInfo[renterAddr] */\n              0x00\n                /* \"Offer.sol\":7566:7576  renterAddr */\n              dup6\n                /* \"Offer.sol\":7554:7577  rentersInfo[renterAddr] */\n              0xffffffffffffffffffffffffffffffffffffffff\n              and\n              0xffffffffffffffffffffffffffffffffffffffff\n              and\n              dup2\n              mstore\n              0x20\n              add\n              swap1\n              dup2\n              mstore\n              0x20\n              add\n              0x00\n              keccak256\n                /* \"Offer.sol\":7554:7585  rentersInfo[renterAddr].deposit */\n              0x01\n              add\n                /* \"Offer.sol\":7554:7589  rentersInfo[renterAddr].deposit = 0 */\n              dup2\n              swap1\n              sstore\n              pop\n                /* \"Offer.sol\":7748:7749  0 */\n              0x00\n                /* \"Offer.sol\":7716:7727  rentersInfo */\n              0x0a\n                /* \"Offer.sol\":7716:7739  rentersInfo[renterAddr] */\n              0x00\n                /* \"Offer.sol\":7728:7738  renterAddr */\n              dup6\n                /* \"Offer.sol\":7716:7739  rentersInfo[renterAddr] */\n              0xffffffffffffffffffffffffffffffffffffffff\n              and\n              0xffffffffffffffffffffffffffffffffffffffff\n              and\n              dup2\n              mstore\n              0x20\n              add\n              swap1\n              dup2\n              mstore\n              0x20\n              add\n              0x00\n              keccak256\n                /* \"Offer.sol\":7716:7745  rentersInfo[renterAddr].price */\n              0x00\n              add\n                /* \"Offer.sol\":7716:7749  rentersInfo[renterAddr].price = 0 */\n              dup2\n              swap1\n              sstore\n              pop\n                /* \"Offer.sol\":7807:7817  renterAddr */\n              dup3\n                /* \"Offer.sol\":7799:7827  payable(renterAddr).transfer */\n              0xffffffffffffffffffffffffffffffffffffffff\n              and\n                /* \"Offer.sol\":7799:7842  payable(renterAddr).transfer(balanceRenter) */\n              0x08fc\n                /* \"Offer.sol\":7828:7841  balanceRenter */\n              dup3\n                /* \"Offer.sol\":7799:7842  payable(renterAddr).transfer(balanceRenter) */\n              swap1\n              dup2\n              iszero\n              mul\n              swap1\n              mload(0x40)\n              0x00\n              mload(0x40)\n              dup1\n              dup4\n              sub\n              dup2\n              dup6\n              dup9\n              dup9\n              call\n              swap4\n              pop\n              pop\n              pop\n              pop\n              iszero\n              dup1\n              iszero\n              tag_224\n              jumpi\n              returndatasize\n              0x00\n              dup1\n              returndatacopy\n              revert(0x00, returndatasize)\n            tag_224:\n              pop\n                /* \"Offer.sol\":8003:8015  bool success */\n              0x00\n                /* \"Offer.sol\":8020:8025  owner */\n              0x03\n              0x00\n              swap1\n              sload\n              swap1\n              0x0100\n              exp\n              swap1\n              div\n              0xffffffffffffffffffffffffffffffffffffffff\n              and\n                /* \"Offer.sol\":8020:8030  owner.call */\n              0xffffffffffffffffffffffffffffffffffffffff\n              and\n                /* \"Offer.sol\":8038:8054  comissionFactory */\n              dup4\n                /* \"Offer.sol\":8020:8059  owner.call{value: comissionFactory}(\"\") */\n              mload(0x40)\n              tag_225\n              swap1\n              tag_137\n              jump\t// in\n            tag_225:\n              0x00\n              mload(0x40)\n              dup1\n              dup4\n              sub\n              dup2\n              dup6\n              dup8\n              gas\n              call\n              swap3\n              pop\n              pop\n              pop\n              returndatasize\n              dup1\n              0x00\n              dup2\n              eq\n              tag_228\n              jumpi\n              mload(0x40)\n              swap2\n              pop\n              and(add(returndatasize, 0x3f), not(0x1f))\n              dup3\n              add\n              0x40\n              mstore\n              returndatasize\n              dup3\n              mstore\n              returndatasize\n              0x00\n              0x20\n              dup5\n              add\n              returndatacopy\n              jump(tag_227)\n            tag_228:\n              0x60\n              swap2\n              pop\n            tag_227:\n              pop\n                /* \"Offer.sol\":8002:8059  (bool success,) = owner.call{value: comissionFactory}(\"\") */\n              pop\n              swap1\n              pop\n                /* \"Offer.sol\":8187:8194  success */\n              dup1\n                /* \"Offer.sol\":8179:8206  require(success, \"Failed!\") */\n              tag_229\n              jumpi\n              mload(0x40)\n              0x08c379a000000000000000000000000000000000000000000000000000000000\n              dup2\n              mstore\n              0x04\n              add\n              tag_230\n              swap1\n              tag_143\n              jump\t// in\n            tag_230:\n              mload(0x40)\n              dup1\n              swap2\n              sub\n              swap1\n              revert\n            tag_229:\n                /* \"Offer.sol\":8331:8347  comissionFactory */\n              dup3\n                /* \"Offer.sol\":8316:8329  balanceRenter */\n              dup3\n                /* \"Offer.sol\":8304:8314  renterAddr */\n              dup6\n                /* \"Offer.sol\":8291:8348  RefundOfFund(renterAddr, balanceRenter, comissionFactory) */\n              0xffffffffffffffffffffffffffffffffffffffff\n              and\n              0x0d42c544626f700952f5443e6492f095da0d472b7fb1e9daf9a722eb8feb0718\n              mload(0x40)\n              mload(0x40)\n              dup1\n              swap2\n              sub\n              swap1\n              log4\n                /* \"Offer.sol\":6839:8581  {... */\n              pop\n              pop\n              pop\n              pop\n                /* \"Offer.sol\":6806:10075  if (rentersAddr[i] != rented_by) {... */\n              jump(tag_231)\n            tag_216:\n                /* \"Offer.sol\":8605:8635  uint256 comissionFactoryRented */\n              0x00\n                /* \"Offer.sol\":8668:8671  100 */\n              0x64\n                /* \"Offer.sol\":712:713  1 */\n              0x01\n                /* \"Offer.sol\":8639:8644  price */\n              sload(0x04)\n                /* \"Offer.sol\":8639:8664  price * FACTORY_COMISSION */\n              tag_232\n              swap2\n              swap1\n              tag_128\n              jump\t// in\n            tag_232:\n                /* \"Offer.sol\":8638:8671  (price * FACTORY_COMISSION) / 100 */\n              tag_233\n              swap2\n              swap1\n              tag_130\n              jump\t// in\n            tag_233:\n                /* \"Offer.sol\":8605:8671  uint256 comissionFactoryRented = (price * FACTORY_COMISSION) / 100 */\n              swap1\n              pop\n                /* \"Offer.sol\":8907:8929  comissionFactoryRented */\n              dup1\n                /* \"Offer.sol\":8899:8904  price */\n              sload(0x04)\n                /* \"Offer.sol\":8899:8929  price + comissionFactoryRented */\n              tag_234\n              swap2\n              swap1\n              tag_126\n              jump\t// in\n            tag_234:\n                /* \"Offer.sol\":8866:8877  rentersInfo */\n              0x0a\n                /* \"Offer.sol\":8866:8886  rentersInfo[_renter] */\n              0x00\n                /* \"Offer.sol\":8878:8885  _renter */\n              dup6\n                /* \"Offer.sol\":8866:8886  rentersInfo[_renter] */\n              0xffffffffffffffffffffffffffffffffffffffff\n              and\n              0xffffffffffffffffffffffffffffffffffffffff\n              and\n              dup2\n              mstore\n              0x20\n              add\n              swap1\n              dup2\n              mstore\n              0x20\n              add\n              0x00\n              keccak256\n                /* \"Offer.sol\":8866:8894  rentersInfo[_renter].deposit */\n              0x01\n              add\n              0x00\n                /* \"Offer.sol\":8866:8930  rentersInfo[_renter].deposit -= (price + comissionFactoryRented) */\n              dup3\n              dup3\n              sload\n              tag_235\n              swap2\n              swap1\n              tag_133\n              jump\t// in\n            tag_235:\n              swap3\n              pop\n              pop\n              dup2\n              swap1\n              sstore\n              pop\n                /* \"Offer.sol\":9064:9081  RentalStatus.Busy */\n              0x01\n                /* \"Offer.sol\":9055:9061  status */\n              0x00\n              dup1\n                /* \"Offer.sol\":9055:9081  status = RentalStatus.Busy */\n              0x0100\n              exp\n              dup2\n              sload\n              dup2\n              0xff\n              mul\n              not\n              and\n              swap1\n              dup4\n              0x02\n              dup2\n              gt\n              iszero\n              tag_236\n              jumpi\n              tag_237\n              tag_28\n              jump\t// in\n            tag_237:\n            tag_236:\n              mul\n              or\n              swap1\n              sstore\n              pop\n                /* \"Offer.sol\":9182:9186  true */\n              0x01\n                /* \"Offer.sol\":9152:9163  rentersInfo */\n              0x0a\n                /* \"Offer.sol\":9152:9172  rentersInfo[_renter] */\n              0x00\n                /* \"Offer.sol\":9164:9171  _renter */\n              dup6\n                /* \"Offer.sol\":9152:9172  rentersInfo[_renter] */\n              0xffffffffffffffffffffffffffffffffffffffff\n              and\n              0xffffffffffffffffffffffffffffffffffffffff\n              and\n              dup2\n              mstore\n              0x20\n              add\n              swap1\n              dup2\n              mstore\n              0x20\n              add\n              0x00\n              keccak256\n                /* \"Offer.sol\":9152:9179  rentersInfo[_renter].rented */\n              0x02\n              add\n              0x00\n                /* \"Offer.sol\":9152:9186  rentersInfo[_renter].rented = true */\n              0x0100\n              exp\n              dup2\n              sload\n              dup2\n              0xff\n              mul\n              not\n              and\n              swap1\n              dup4\n              iszero\n              iszero\n              mul\n              or\n              swap1\n              sstore\n              pop\n                /* \"Offer.sol\":9413:9421  landlord */\n              0x02\n              0x00\n              swap1\n              sload\n              swap1\n              0x0100\n              exp\n              swap1\n              div\n              0xffffffffffffffffffffffffffffffffffffffff\n              and\n                /* \"Offer.sol\":9405:9431  payable(landlord).transfer */\n              0xffffffffffffffffffffffffffffffffffffffff\n              and\n                /* \"Offer.sol\":9405:9438  payable(landlord).transfer(price) */\n              0x08fc\n                /* \"Offer.sol\":9432:9437  price */\n              sload(0x04)\n                /* \"Offer.sol\":9405:9438  payable(landlord).transfer(price) */\n              swap1\n              dup2\n              iszero\n              mul\n              swap1\n              mload(0x40)\n              0x00\n              mload(0x40)\n              dup1\n              dup4\n              sub\n              dup2\n              dup6\n              dup9\n              dup9\n              call\n              swap4\n              pop\n              pop\n              pop\n              pop\n              iszero\n              dup1\n              iszero\n              tag_239\n              jumpi\n              returndatasize\n              0x00\n              dup1\n              returndatacopy\n              revert(0x00, returndatasize)\n            tag_239:\n              pop\n                /* \"Offer.sol\":9534:9546  bool success */\n              0x00\n                /* \"Offer.sol\":9551:9556  owner */\n              0x03\n              0x00\n              swap1\n              sload\n              swap1\n              0x0100\n              exp\n              swap1\n              div\n              0xffffffffffffffffffffffffffffffffffffffff\n              and\n                /* \"Offer.sol\":9551:9561  owner.call */\n              0xffffffffffffffffffffffffffffffffffffffff\n              and\n                /* \"Offer.sol\":9569:9591  comissionFactoryRented */\n              dup3\n                /* \"Offer.sol\":9551:9596  owner.call{value: comissionFactoryRented}(\"\") */\n              mload(0x40)\n              tag_240\n              swap1\n              tag_137\n              jump\t// in\n            tag_240:\n              0x00\n              mload(0x40)\n              dup1\n              dup4\n              sub\n              dup2\n              dup6\n              dup8\n              gas\n              call\n              swap3\n              pop\n              pop\n              pop\n              returndatasize\n              dup1\n              0x00\n              dup2\n              eq\n              tag_243\n              jumpi\n              mload(0x40)\n              swap2\n              pop\n              and(add(returndatasize, 0x3f), not(0x1f))\n              dup3\n              add\n              0x40\n              mstore\n              returndatasize\n              dup3\n              mstore\n              returndatasize\n              0x00\n              0x20\n              dup5\n              add\n              returndatacopy\n              jump(tag_242)\n            tag_243:\n              0x60\n              swap2\n              pop\n            tag_242:\n              pop\n                /* \"Offer.sol\":9533:9596  (bool success,) = owner.call{value: comissionFactoryRented}(\"\") */\n              pop\n              swap1\n              pop\n                /* \"Offer.sol\":9712:9719  success */\n              dup1\n                /* \"Offer.sol\":9704:9731  require(success, \"Failed!\") */\n              tag_244\n              jumpi\n              mload(0x40)\n              0x08c379a000000000000000000000000000000000000000000000000000000000\n              dup2\n              mstore\n              0x04\n              add\n              tag_245\n              swap1\n              tag_143\n              jump\t// in\n            tag_245:\n              mload(0x40)\n              dup1\n              swap2\n              sub\n              swap1\n              revert\n            tag_244:\n                /* \"Offer.sol\":9889:9894  price */\n              sload(0x04)\n                /* \"Offer.sol\":9876:9887  rented_till */\n              sload(0x06)\n                /* \"Offer.sol\":9865:9874  rented_by */\n              0x07\n              0x00\n              swap1\n              sload\n              swap1\n              0x0100\n              exp\n              swap1\n              div\n              0xffffffffffffffffffffffffffffffffffffffff\n              and\n                /* \"Offer.sol\":9851:9895  RentedHousing(rented_by, rented_till, price) */\n              0xffffffffffffffffffffffffffffffffffffffff\n              and\n              0xde83f3c4f0b30046f8683e0ab405e3eed1038c49bca68b6777831e0f17e2257e\n              mload(0x40)\n              mload(0x40)\n              dup1\n              swap2\n              sub\n              swap1\n              log4\n                /* \"Offer.sol\":8587:10075  {... */\n              pop\n              pop\n                /* \"Offer.sol\":6806:10075  if (rentersAddr[i] != rented_by) {... */\n            tag_231:\n                /* \"Offer.sol\":6787:6790  i++ */\n              dup1\n              dup1\n              tag_246\n              swap1\n              tag_247\n              jump\t// in\n            tag_246:\n              swap2\n              pop\n              pop\n                /* \"Offer.sol\":6743:10085  for (uint256 i = 0; i < rentersAddr.length; i++) {... */\n              jump(tag_209)\n            tag_210:\n              pop\n                /* \"Offer.sol\":10101:10112  rentersAddr */\n              0x09\n              0x00\n                /* \"Offer.sol\":10094:10112  delete rentersAddr */\n              tag_248\n              swap2\n              swap1\n              tag_249\n              jump\t// in\n            tag_248:\n                /* \"Offer.sol\":5750:10188  function approve(address _renter) public only_landlord not_rented {... */\n              pop\n              jump\t// out\n                /* \"Offer.sol\":407:430  address public landlord */\n            tag_108:\n              0x02\n              0x00\n              swap1\n              sload\n              swap1\n              0x0100\n              exp\n              swap1\n              div\n              0xffffffffffffffffffffffffffffffffffffffff\n              and\n              dup2\n              jump\t// out\n                /* \"Offer.sol\":10420:11657  function cancel() external not_rented {... */\n            tag_112:\n                /* \"Offer.sol\":2255:2272  RentalStatus.Free */\n              0x00\n                /* \"Offer.sol\":2245:2272  status == RentalStatus.Free */\n              0x02\n              dup2\n              gt\n              iszero\n              tag_251\n              jumpi\n              tag_252\n              tag_28\n              jump\t// in\n            tag_252:\n            tag_251:\n                /* \"Offer.sol\":2245:2251  status */\n              0x00\n              dup1\n              sload\n              swap1\n              0x0100\n              exp\n              swap1\n              div\n              0xff\n              and\n                /* \"Offer.sol\":2245:2272  status == RentalStatus.Free */\n              0x02\n              dup2\n              gt\n              iszero\n              tag_253\n              jumpi\n              tag_254\n              tag_28\n              jump\t// in\n            tag_254:\n            tag_253:\n              eq\n                /* \"Offer.sol\":2237:2309  require(status == RentalStatus.Free, \"The apartment is already booked.\") */\n              tag_255\n              jumpi\n              mload(0x40)\n              0x08c379a000000000000000000000000000000000000000000000000000000000\n              dup2\n              mstore\n              0x04\n              add\n              tag_256\n              swap1\n              tag_33\n              jump\t// in\n            tag_256:\n              mload(0x40)\n              dup1\n              swap2\n              sub\n              swap1\n              revert\n            tag_255:\n                /* \"Offer.sol\":10666:10677  min_deposit */\n              sload(0x08)\n                /* \"Offer.sol\":10631:10642  rentersInfo */\n              0x0a\n                /* \"Offer.sol\":10631:10654  rentersInfo[msg.sender] */\n              0x00\n                /* \"Offer.sol\":10643:10653  msg.sender */\n              caller\n                /* \"Offer.sol\":10631:10654  rentersInfo[msg.sender] */\n              0xffffffffffffffffffffffffffffffffffffffff\n              and\n              0xffffffffffffffffffffffffffffffffffffffff\n              and\n              dup2\n              mstore\n              0x20\n              add\n              swap1\n              dup2\n              mstore\n              0x20\n              add\n              0x00\n              keccak256\n                /* \"Offer.sol\":10631:10662  rentersInfo[msg.sender].deposit */\n              0x01\n              add\n              sload\n                /* \"Offer.sol\":10631:10677  rentersInfo[msg.sender].deposit >= min_deposit */\n              lt\n              iszero\n                /* \"Offer.sol\":10623:10732  require(rentersInfo[msg.sender].deposit >= min_deposit, \"your deposit is less than the established minimum.\") */\n              tag_258\n              jumpi\n              mload(0x40)\n              0x08c379a000000000000000000000000000000000000000000000000000000000\n              dup2\n              mstore\n              0x04\n              add\n              tag_259\n              swap1\n              tag_260\n              jump\t// in\n            tag_259:\n              mload(0x40)\n              dup1\n              swap2\n              sub\n              swap1\n              revert\n            tag_258:\n                /* \"Offer.sol\":10927:10948  uint256 balanceRenter */\n              0x00\n                /* \"Offer.sol\":10951:10962  rentersInfo */\n              0x0a\n                /* \"Offer.sol\":10951:10974  rentersInfo[msg.sender] */\n              0x00\n                /* \"Offer.sol\":10963:10973  msg.sender */\n              caller\n                /* \"Offer.sol\":10951:10974  rentersInfo[msg.sender] */\n              0xffffffffffffffffffffffffffffffffffffffff\n              and\n              0xffffffffffffffffffffffffffffffffffffffff\n              and\n              dup2\n              mstore\n              0x20\n              add\n              swap1\n              dup2\n              mstore\n              0x20\n              add\n              0x00\n              keccak256\n                /* \"Offer.sol\":10951:10982  rentersInfo[msg.sender].deposit */\n              0x01\n              add\n              sload\n                /* \"Offer.sol\":10927:10982  uint256 balanceRenter = rentersInfo[msg.sender].deposit */\n              swap1\n              pop\n                /* \"Offer.sol\":11162:11163  0 */\n              0x00\n                /* \"Offer.sol\":11128:11139  rentersInfo */\n              0x0a\n                /* \"Offer.sol\":11128:11151  rentersInfo[msg.sender] */\n              0x00\n                /* \"Offer.sol\":11140:11150  msg.sender */\n              caller\n                /* \"Offer.sol\":11128:11151  rentersInfo[msg.sender] */\n              0xffffffffffffffffffffffffffffffffffffffff\n              and\n              0xffffffffffffffffffffffffffffffffffffffff\n              and\n              dup2\n              mstore\n              0x20\n              add\n              swap1\n              dup2\n              mstore\n              0x20\n              add\n              0x00\n              keccak256\n                /* \"Offer.sol\":11128:11159  rentersInfo[msg.sender].deposit */\n              0x01\n              add\n                /* \"Offer.sol\":11128:11163  rentersInfo[msg.sender].deposit = 0 */\n              dup2\n              swap1\n              sstore\n              pop\n                /* \"Offer.sol\":11296:11297  0 */\n              0x00\n                /* \"Offer.sol\":11264:11275  rentersInfo */\n              0x0a\n                /* \"Offer.sol\":11264:11287  rentersInfo[msg.sender] */\n              0x00\n                /* \"Offer.sol\":11276:11286  msg.sender */\n              caller\n                /* \"Offer.sol\":11264:11287  rentersInfo[msg.sender] */\n              0xffffffffffffffffffffffffffffffffffffffff\n              and\n              0xffffffffffffffffffffffffffffffffffffffff\n              and\n              dup2\n              mstore\n              0x20\n              add\n              swap1\n              dup2\n              mstore\n              0x20\n              add\n              0x00\n              keccak256\n                /* \"Offer.sol\":11264:11293  rentersInfo[msg.sender].price */\n              0x00\n              add\n                /* \"Offer.sol\":11264:11297  rentersInfo[msg.sender].price = 0 */\n              dup2\n              swap1\n              sstore\n              pop\n                /* \"Offer.sol\":11347:11357  msg.sender */\n              caller\n                /* \"Offer.sol\":11339:11367  payable(msg.sender).transfer */\n              0xffffffffffffffffffffffffffffffffffffffff\n              and\n                /* \"Offer.sol\":11339:11382  payable(msg.sender).transfer(balanceRenter) */\n              0x08fc\n                /* \"Offer.sol\":11368:11381  balanceRenter */\n              dup3\n                /* \"Offer.sol\":11339:11382  payable(msg.sender).transfer(balanceRenter) */\n              swap1\n              dup2\n              iszero\n              mul\n              swap1\n              mload(0x40)\n              0x00\n              mload(0x40)\n              dup1\n              dup4\n              sub\n              dup2\n              dup6\n              dup9\n              dup9\n              call\n              swap4\n              pop\n              pop\n              pop\n              pop\n              iszero\n              dup1\n              iszero\n              tag_262\n              jumpi\n              returndatasize\n              0x00\n              dup1\n              returndatacopy\n              revert(0x00, returndatasize)\n            tag_262:\n              pop\n                /* \"Offer.sol\":11502:11503  0 */\n              0x00\n                /* \"Offer.sol\":11487:11500  balanceRenter */\n              dup2\n                /* \"Offer.sol\":11475:11485  msg.sender */\n              caller\n                /* \"Offer.sol\":11462:11504  RefundOfFund(msg.sender, balanceRenter, 0) */\n              0xffffffffffffffffffffffffffffffffffffffff\n              and\n              0x0d42c544626f700952f5443e6492f095da0d472b7fb1e9daf9a722eb8feb0718\n              mload(0x40)\n              mload(0x40)\n              dup1\n              swap2\n              sub\n              swap1\n              log4\n                /* \"Offer.sol\":10458:11657  {... */\n              pop\n                /* \"Offer.sol\":10420:11657  function cancel() external not_rented {... */\n              jump\t// out\n            tag_249:\n              pop\n              dup1\n              sload\n              0x00\n              dup3\n              sstore\n              swap1\n              0x00\n              mstore\n              keccak256(0x00, 0x20)\n              swap1\n              dup2\n              add\n              swap1\n              tag_264\n              swap2\n              swap1\n              tag_265\n              jump\t// in\n            tag_264:\n              pop\n              jump\t// out\n            tag_265:\n            tag_266:\n              dup1\n              dup3\n              gt\n              iszero\n              tag_267\n              jumpi\n              0x00\n              dup2\n              0x00\n              swap1\n              sstore\n              pop\n              0x01\n              add\n              jump(tag_266)\n            tag_267:\n              pop\n              swap1\n              jump\t// out\n                /* \"#utility.yul\":7:187   */\n            tag_28:\n                /* \"#utility.yul\":55:132   */\n              0x4e487b7100000000000000000000000000000000000000000000000000000000\n                /* \"#utility.yul\":52:53   */\n              0x00\n                /* \"#utility.yul\":45:133   */\n              mstore\n                /* \"#utility.yul\":152:156   */\n              0x21\n                /* \"#utility.yul\":149:150   */\n              0x04\n                /* \"#utility.yul\":142:157   */\n              mstore\n                /* \"#utility.yul\":176:180   */\n              0x24\n                /* \"#utility.yul\":173:174   */\n              0x00\n                /* \"#utility.yul\":166:181   */\n              revert\n                /* \"#utility.yul\":193:362   */\n            tag_268:\n                /* \"#utility.yul\":277:288   */\n              0x00\n                /* \"#utility.yul\":311:317   */\n              dup3\n                /* \"#utility.yul\":306:309   */\n              dup3\n                /* \"#utility.yul\":299:318   */\n              mstore\n                /* \"#utility.yul\":351:355   */\n              0x20\n                /* \"#utility.yul\":346:349   */\n              dup3\n                /* \"#utility.yul\":342:356   */\n              add\n                /* \"#utility.yul\":327:356   */\n              swap1\n              pop\n                /* \"#utility.yul\":193:362   */\n              swap3\n              swap2\n              pop\n              pop\n              jump\t// out\n                /* \"#utility.yul\":368:550   */\n            tag_269:\n                /* \"#utility.yul\":508:542   */\n              0x5468652061706172746d656e7420697320616c726561647920626f6f6b65642e\n                /* \"#utility.yul\":504:505   */\n              0x00\n                /* \"#utility.yul\":496:502   */\n              dup3\n                /* \"#utility.yul\":492:506   */\n              add\n                /* \"#utility.yul\":485:543   */\n              mstore\n                /* \"#utility.yul\":368:550   */\n              pop\n              jump\t// out\n                /* \"#utility.yul\":556:922   */\n            tag_270:\n                /* \"#utility.yul\":698:701   */\n              0x00\n                /* \"#utility.yul\":719:786   */\n              tag_330\n                /* \"#utility.yul\":783:785   */\n              0x20\n                /* \"#utility.yul\":778:781   */\n              dup4\n                /* \"#utility.yul\":719:786   */\n              tag_268\n              jump\t// in\n            tag_330:\n                /* \"#utility.yul\":712:786   */\n              swap2\n              pop\n                /* \"#utility.yul\":795:888   */\n              tag_331\n                /* \"#utility.yul\":884:887   */\n              dup3\n                /* \"#utility.yul\":795:888   */\n              tag_269\n              jump\t// in\n            tag_331:\n                /* \"#utility.yul\":913:915   */\n              0x20\n                /* \"#utility.yul\":908:911   */\n              dup3\n                /* \"#utility.yul\":904:916   */\n              add\n                /* \"#utility.yul\":897:916   */\n              swap1\n              pop\n                /* \"#utility.yul\":556:922   */\n              swap2\n              swap1\n              pop\n              jump\t// out\n                /* \"#utility.yul\":928:1347   */\n            tag_33:\n                /* \"#utility.yul\":1094:1098   */\n              0x00\n                /* \"#utility.yul\":1132:1134   */\n              0x20\n                /* \"#utility.yul\":1121:1130   */\n              dup3\n                /* \"#utility.yul\":1117:1135   */\n              add\n                /* \"#utility.yul\":1109:1135   */\n              swap1\n              pop\n                /* \"#utility.yul\":1181:1190   */\n              dup2\n                /* \"#utility.yul\":1175:1179   */\n              dup2\n                /* \"#utility.yul\":1171:1191   */\n              sub\n                /* \"#utility.yul\":1167:1168   */\n              0x00\n                /* \"#utility.yul\":1156:1165   */\n              dup4\n                /* \"#utility.yul\":1152:1169   */\n              add\n                /* \"#utility.yul\":1145:1192   */\n              mstore\n                /* \"#utility.yul\":1209:1340   */\n              tag_333\n                /* \"#utility.yul\":1335:1339   */\n              dup2\n                /* \"#utility.yul\":1209:1340   */\n              tag_270\n              jump\t// in\n            tag_333:\n                /* \"#utility.yul\":1201:1340   */\n              swap1\n              pop\n                /* \"#utility.yul\":928:1347   */\n              swap2\n              swap1\n              pop\n              jump\t// out\n                /* \"#utility.yul\":1353:1479   */\n            tag_271:\n                /* \"#utility.yul\":1390:1397   */\n              0x00\n                /* \"#utility.yul\":1430:1472   */\n              0xffffffffffffffffffffffffffffffffffffffff\n                /* \"#utility.yul\":1423:1428   */\n              dup3\n                /* \"#utility.yul\":1419:1473   */\n              and\n                /* \"#utility.yul\":1408:1473   */\n              swap1\n              pop\n                /* \"#utility.yul\":1353:1479   */\n              swap2\n              swap1\n              pop\n              jump\t// out\n                /* \"#utility.yul\":1485:1581   */\n            tag_272:\n                /* \"#utility.yul\":1522:1529   */\n              0x00\n                /* \"#utility.yul\":1551:1575   */\n              tag_336\n                /* \"#utility.yul\":1569:1574   */\n              dup3\n                /* \"#utility.yul\":1551:1575   */\n              tag_271\n              jump\t// in\n            tag_336:\n                /* \"#utility.yul\":1540:1575   */\n              swap1\n              pop\n                /* \"#utility.yul\":1485:1581   */\n              swap2\n              swap1\n              pop\n              jump\t// out\n                /* \"#utility.yul\":1587:1705   */\n            tag_273:\n                /* \"#utility.yul\":1674:1698   */\n              tag_338\n                /* \"#utility.yul\":1692:1697   */\n              dup2\n                /* \"#utility.yul\":1674:1698   */\n              tag_272\n              jump\t// in\n            tag_338:\n                /* \"#utility.yul\":1669:1672   */\n              dup3\n                /* \"#utility.yul\":1662:1699   */\n              mstore\n                /* \"#utility.yul\":1587:1705   */\n              pop\n              pop\n              jump\t// out\n                /* \"#utility.yul\":1711:1933   */\n            tag_39:\n                /* \"#utility.yul\":1804:1808   */\n              0x00\n                /* \"#utility.yul\":1842:1844   */\n              0x20\n                /* \"#utility.yul\":1831:1840   */\n              dup3\n                /* \"#utility.yul\":1827:1845   */\n              add\n                /* \"#utility.yul\":1819:1845   */\n              swap1\n              pop\n                /* \"#utility.yul\":1855:1926   */\n              tag_340\n                /* \"#utility.yul\":1923:1924   */\n              0x00\n                /* \"#utility.yul\":1912:1921   */\n              dup4\n                /* \"#utility.yul\":1908:1925   */\n              add\n                /* \"#utility.yul\":1899:1905   */\n              dup5\n                /* \"#utility.yul\":1855:1926   */\n              tag_273\n              jump\t// in\n            tag_340:\n                /* \"#utility.yul\":1711:1933   */\n              swap3\n              swap2\n              pop\n              pop\n              jump\t// out\n                /* \"#utility.yul\":1939:2060   */\n            tag_274:\n                /* \"#utility.yul\":2028:2029   */\n              0x03\n                /* \"#utility.yul\":2021:2026   */\n              dup2\n                /* \"#utility.yul\":2018:2030   */\n              lt\n                /* \"#utility.yul\":2008:2054   */\n              tag_342\n              jumpi\n                /* \"#utility.yul\":2034:2052   */\n              tag_343\n              tag_28\n              jump\t// in\n            tag_343:\n                /* \"#utility.yul\":2008:2054   */\n            tag_342:\n                /* \"#utility.yul\":1939:2060   */\n              pop\n              jump\t// out\n                /* \"#utility.yul\":2066:2209   */\n            tag_275:\n                /* \"#utility.yul\":2119:2126   */\n              0x00\n                /* \"#utility.yul\":2148:2153   */\n              dup2\n                /* \"#utility.yul\":2137:2153   */\n              swap1\n              pop\n                /* \"#utility.yul\":2154:2203   */\n              tag_345\n                /* \"#utility.yul\":2197:2202   */\n              dup3\n                /* \"#utility.yul\":2154:2203   */\n              tag_274\n              jump\t// in\n            tag_345:\n                /* \"#utility.yul\":2066:2209   */\n              swap2\n              swap1\n              pop\n              jump\t// out\n                /* \"#utility.yul\":2215:2358   */\n            tag_276:\n                /* \"#utility.yul\":2279:2288   */\n              0x00\n                /* \"#utility.yul\":2312:2352   */\n              tag_347\n                /* \"#utility.yul\":2346:2351   */\n              dup3\n                /* \"#utility.yul\":2312:2352   */\n              tag_275\n              jump\t// in\n            tag_347:\n                /* \"#utility.yul\":2299:2352   */\n              swap1\n              pop\n                /* \"#utility.yul\":2215:2358   */\n              swap2\n              swap1\n              pop\n              jump\t// out\n                /* \"#utility.yul\":2364:2523   */\n            tag_277:\n                /* \"#utility.yul\":2465:2516   */\n              tag_349\n                /* \"#utility.yul\":2510:2515   */\n              dup2\n                /* \"#utility.yul\":2465:2516   */\n              tag_276\n              jump\t// in\n            tag_349:\n                /* \"#utility.yul\":2460:2463   */\n              dup3\n                /* \"#utility.yul\":2453:2517   */\n              mstore\n                /* \"#utility.yul\":2364:2523   */\n              pop\n              pop\n              jump\t// out\n                /* \"#utility.yul\":2529:2779   */\n            tag_44:\n                /* \"#utility.yul\":2636:2640   */\n              0x00\n                /* \"#utility.yul\":2674:2676   */\n              0x20\n                /* \"#utility.yul\":2663:2672   */\n              dup3\n                /* \"#utility.yul\":2659:2677   */\n              add\n                /* \"#utility.yul\":2651:2677   */\n              swap1\n              pop\n                /* \"#utility.yul\":2687:2772   */\n              tag_351\n                /* \"#utility.yul\":2769:2770   */\n              0x00\n                /* \"#utility.yul\":2758:2767   */\n              dup4\n                /* \"#utility.yul\":2754:2771   */\n              add\n                /* \"#utility.yul\":2745:2751   */\n              dup5\n                /* \"#utility.yul\":2687:2772   */\n              tag_277\n              jump\t// in\n            tag_351:\n                /* \"#utility.yul\":2529:2779   */\n              swap3\n              swap2\n              pop\n              pop\n              jump\t// out\n                /* \"#utility.yul\":2785:2899   */\n            tag_278:\n                /* \"#utility.yul\":2852:2858   */\n              0x00\n                /* \"#utility.yul\":2886:2891   */\n              dup2\n                /* \"#utility.yul\":2880:2892   */\n              mload\n                /* \"#utility.yul\":2870:2892   */\n              swap1\n              pop\n                /* \"#utility.yul\":2785:2899   */\n              swap2\n              swap1\n              pop\n              jump\t// out\n                /* \"#utility.yul\":2905:3089   */\n            tag_279:\n                /* \"#utility.yul\":3004:3015   */\n              0x00\n                /* \"#utility.yul\":3038:3044   */\n              dup3\n                /* \"#utility.yul\":3033:3036   */\n              dup3\n                /* \"#utility.yul\":3026:3045   */\n              mstore\n                /* \"#utility.yul\":3078:3082   */\n              0x20\n                /* \"#utility.yul\":3073:3076   */\n              dup3\n                /* \"#utility.yul\":3069:3083   */\n              add\n                /* \"#utility.yul\":3054:3083   */\n              swap1\n              pop\n                /* \"#utility.yul\":2905:3089   */\n              swap3\n              swap2\n              pop\n              pop\n              jump\t// out\n                /* \"#utility.yul\":3095:3227   */\n            tag_280:\n                /* \"#utility.yul\":3162:3166   */\n              0x00\n                /* \"#utility.yul\":3185:3188   */\n              dup2\n                /* \"#utility.yul\":3177:3188   */\n              swap1\n              pop\n                /* \"#utility.yul\":3215:3219   */\n              0x20\n                /* \"#utility.yul\":3210:3213   */\n              dup3\n                /* \"#utility.yul\":3206:3220   */\n              add\n                /* \"#utility.yul\":3198:3220   */\n              swap1\n              pop\n                /* \"#utility.yul\":3095:3227   */\n              swap2\n              swap1\n              pop\n              jump\t// out\n                /* \"#utility.yul\":3233:3341   */\n            tag_281:\n                /* \"#utility.yul\":3310:3334   */\n              tag_356\n                /* \"#utility.yul\":3328:3333   */\n              dup2\n                /* \"#utility.yul\":3310:3334   */\n              tag_272\n              jump\t// in\n            tag_356:\n                /* \"#utility.yul\":3305:3308   */\n              dup3\n                /* \"#utility.yul\":3298:3335   */\n              mstore\n                /* \"#utility.yul\":3233:3341   */\n              pop\n              pop\n              jump\t// out\n                /* \"#utility.yul\":3347:3526   */\n            tag_282:\n                /* \"#utility.yul\":3416:3426   */\n              0x00\n                /* \"#utility.yul\":3437:3483   */\n              tag_358\n                /* \"#utility.yul\":3479:3482   */\n              dup4\n                /* \"#utility.yul\":3471:3477   */\n              dup4\n                /* \"#utility.yul\":3437:3483   */\n              tag_281\n              jump\t// in\n            tag_358:\n                /* \"#utility.yul\":3515:3519   */\n              0x20\n                /* \"#utility.yul\":3510:3513   */\n              dup4\n                /* \"#utility.yul\":3506:3520   */\n              add\n                /* \"#utility.yul\":3492:3520   */\n              swap1\n              pop\n                /* \"#utility.yul\":3347:3526   */\n              swap3\n              swap2\n              pop\n              pop\n              jump\t// out\n                /* \"#utility.yul\":3532:3645   */\n            tag_283:\n                /* \"#utility.yul\":3602:3606   */\n              0x00\n                /* \"#utility.yul\":3634:3638   */\n              0x20\n                /* \"#utility.yul\":3629:3632   */\n              dup3\n                /* \"#utility.yul\":3625:3639   */\n              add\n                /* \"#utility.yul\":3617:3639   */\n              swap1\n              pop\n                /* \"#utility.yul\":3532:3645   */\n              swap2\n              swap1\n              pop\n              jump\t// out\n                /* \"#utility.yul\":3681:4413   */\n            tag_284:\n                /* \"#utility.yul\":3800:3803   */\n              0x00\n                /* \"#utility.yul\":3829:3883   */\n              tag_361\n                /* \"#utility.yul\":3877:3882   */\n              dup3\n                /* \"#utility.yul\":3829:3883   */\n              tag_278\n              jump\t// in\n            tag_361:\n                /* \"#utility.yul\":3899:3985   */\n              tag_362\n                /* \"#utility.yul\":3978:3984   */\n              dup2\n                /* \"#utility.yul\":3973:3976   */\n              dup6\n                /* \"#utility.yul\":3899:3985   */\n              tag_279\n              jump\t// in\n            tag_362:\n                /* \"#utility.yul\":3892:3985   */\n              swap4\n              pop\n                /* \"#utility.yul\":4009:4065   */\n              tag_363\n                /* \"#utility.yul\":4059:4064   */\n              dup4\n                /* \"#utility.yul\":4009:4065   */\n              tag_280\n              jump\t// in\n            tag_363:\n                /* \"#utility.yul\":4088:4095   */\n              dup1\n                /* \"#utility.yul\":4119:4120   */\n              0x00\n                /* \"#utility.yul\":4104:4388   */\n            tag_364:\n                /* \"#utility.yul\":4129:4135   */\n              dup4\n                /* \"#utility.yul\":4126:4127   */\n              dup2\n                /* \"#utility.yul\":4123:4136   */\n              lt\n                /* \"#utility.yul\":4104:4388   */\n              iszero\n              tag_366\n              jumpi\n                /* \"#utility.yul\":4205:4211   */\n              dup2\n                /* \"#utility.yul\":4199:4212   */\n              mload\n                /* \"#utility.yul\":4232:4295   */\n              tag_367\n                /* \"#utility.yul\":4291:4294   */\n              dup9\n                /* \"#utility.yul\":4276:4289   */\n              dup3\n                /* \"#utility.yul\":4232:4295   */\n              tag_282\n              jump\t// in\n            tag_367:\n                /* \"#utility.yul\":4225:4295   */\n              swap8\n              pop\n                /* \"#utility.yul\":4318:4378   */\n              tag_368\n                /* \"#utility.yul\":4371:4377   */\n              dup4\n                /* \"#utility.yul\":4318:4378   */\n              tag_283\n              jump\t// in\n            tag_368:\n                /* \"#utility.yul\":4308:4378   */\n              swap3\n              pop\n                /* \"#utility.yul\":4164:4388   */\n              pop\n                /* \"#utility.yul\":4151:4152   */\n              0x01\n                /* \"#utility.yul\":4148:4149   */\n              dup2\n                /* \"#utility.yul\":4144:4153   */\n              add\n                /* \"#utility.yul\":4139:4153   */\n              swap1\n              pop\n                /* \"#utility.yul\":4104:4388   */\n              jump(tag_364)\n            tag_366:\n                /* \"#utility.yul\":4108:4122   */\n              pop\n                /* \"#utility.yul\":4404:4407   */\n              dup6\n                /* \"#utility.yul\":4397:4407   */\n              swap4\n              pop\n                /* \"#utility.yul\":3805:4413   */\n              pop\n              pop\n              pop\n                /* \"#utility.yul\":3681:4413   */\n              swap3\n              swap2\n              pop\n              pop\n              jump\t// out\n                /* \"#utility.yul\":4419:4792   */\n            tag_49:\n                /* \"#utility.yul\":4562:4566   */\n              0x00\n                /* \"#utility.yul\":4600:4602   */\n              0x20\n                /* \"#utility.yul\":4589:4598   */\n              dup3\n                /* \"#utility.yul\":4585:4603   */\n              add\n                /* \"#utility.yul\":4577:4603   */\n              swap1\n              pop\n                /* \"#utility.yul\":4649:4658   */\n              dup2\n                /* \"#utility.yul\":4643:4647   */\n              dup2\n                /* \"#utility.yul\":4639:4659   */\n              sub\n                /* \"#utility.yul\":4635:4636   */\n              0x00\n                /* \"#utility.yul\":4624:4633   */\n              dup4\n                /* \"#utility.yul\":4620:4637   */\n              add\n                /* \"#utility.yul\":4613:4660   */\n              mstore\n                /* \"#utility.yul\":4677:4785   */\n              tag_370\n                /* \"#utility.yul\":4780:4784   */\n              dup2\n                /* \"#utility.yul\":4771:4777   */\n              dup5\n                /* \"#utility.yul\":4677:4785   */\n              tag_284\n              jump\t// in\n            tag_370:\n                /* \"#utility.yul\":4669:4785   */\n              swap1\n              pop\n                /* \"#utility.yul\":4419:4792   */\n              swap3\n              swap2\n              pop\n              pop\n              jump\t// out\n                /* \"#utility.yul\":4798:4875   */\n            tag_285:\n                /* \"#utility.yul\":4835:4842   */\n              0x00\n                /* \"#utility.yul\":4864:4869   */\n              dup2\n                /* \"#utility.yul\":4853:4869   */\n              swap1\n              pop\n                /* \"#utility.yul\":4798:4875   */\n              swap2\n              swap1\n              pop\n              jump\t// out\n                /* \"#utility.yul\":4881:4999   */\n            tag_286:\n                /* \"#utility.yul\":4968:4992   */\n              tag_373\n                /* \"#utility.yul\":4986:4991   */\n              dup2\n                /* \"#utility.yul\":4968:4992   */\n              tag_285\n              jump\t// in\n            tag_373:\n                /* \"#utility.yul\":4963:4966   */\n              dup3\n                /* \"#utility.yul\":4956:4993   */\n              mstore\n                /* \"#utility.yul\":4881:4999   */\n              pop\n              pop\n              jump\t// out\n                /* \"#utility.yul\":5005:5227   */\n            tag_54:\n                /* \"#utility.yul\":5098:5102   */\n              0x00\n                /* \"#utility.yul\":5136:5138   */\n              0x20\n                /* \"#utility.yul\":5125:5134   */\n              dup3\n                /* \"#utility.yul\":5121:5139   */\n              add\n                /* \"#utility.yul\":5113:5139   */\n              swap1\n              pop\n                /* \"#utility.yul\":5149:5220   */\n              tag_375\n                /* \"#utility.yul\":5217:5218   */\n              0x00\n                /* \"#utility.yul\":5206:5215   */\n              dup4\n                /* \"#utility.yul\":5202:5219   */\n              add\n                /* \"#utility.yul\":5193:5199   */\n              dup5\n                /* \"#utility.yul\":5149:5220   */\n              tag_286\n              jump\t// in\n            tag_375:\n                /* \"#utility.yul\":5005:5227   */\n              swap3\n              swap2\n              pop\n              pop\n              jump\t// out\n                /* \"#utility.yul\":5314:5431   */\n            tag_288:\n                /* \"#utility.yul\":5423:5424   */\n              0x00\n                /* \"#utility.yul\":5420:5421   */\n              dup1\n                /* \"#utility.yul\":5413:5425   */\n              revert\n                /* \"#utility.yul\":5560:5682   */\n            tag_290:\n                /* \"#utility.yul\":5633:5657   */\n              tag_380\n                /* \"#utility.yul\":5651:5656   */\n              dup2\n                /* \"#utility.yul\":5633:5657   */\n              tag_272\n              jump\t// in\n            tag_380:\n                /* \"#utility.yul\":5626:5631   */\n              dup2\n                /* \"#utility.yul\":5623:5658   */\n              eq\n                /* \"#utility.yul\":5613:5676   */\n              tag_381\n              jumpi\n                /* \"#utility.yul\":5672:5673   */\n              0x00\n                /* \"#utility.yul\":5669:5670   */\n              dup1\n                /* \"#utility.yul\":5662:5674   */\n              revert\n                /* \"#utility.yul\":5613:5676   */\n            tag_381:\n                /* \"#utility.yul\":5560:5682   */\n              pop\n              jump\t// out\n                /* \"#utility.yul\":5688:5827   */\n            tag_291:\n                /* \"#utility.yul\":5734:5739   */\n              0x00\n                /* \"#utility.yul\":5772:5778   */\n              dup2\n                /* \"#utility.yul\":5759:5779   */\n              calldataload\n                /* \"#utility.yul\":5750:5779   */\n              swap1\n              pop\n                /* \"#utility.yul\":5788:5821   */\n              tag_383\n                /* \"#utility.yul\":5815:5820   */\n              dup2\n                /* \"#utility.yul\":5788:5821   */\n              tag_290\n              jump\t// in\n            tag_383:\n                /* \"#utility.yul\":5688:5827   */\n              swap3\n              swap2\n              pop\n              pop\n              jump\t// out\n                /* \"#utility.yul\":5833:6162   */\n            tag_62:\n                /* \"#utility.yul\":5892:5898   */\n              0x00\n                /* \"#utility.yul\":5941:5943   */\n              0x20\n                /* \"#utility.yul\":5929:5938   */\n              dup3\n                /* \"#utility.yul\":5920:5927   */\n              dup5\n                /* \"#utility.yul\":5916:5939   */\n              sub\n                /* \"#utility.yul\":5912:5944   */\n              slt\n                /* \"#utility.yul\":5909:6028   */\n              iszero\n              tag_385\n              jumpi\n                /* \"#utility.yul\":5947:6026   */\n              tag_386\n              tag_288\n              jump\t// in\n            tag_386:\n                /* \"#utility.yul\":5909:6028   */\n            tag_385:\n                /* \"#utility.yul\":6067:6068   */\n              0x00\n                /* \"#utility.yul\":6092:6145   */\n              tag_387\n                /* \"#utility.yul\":6137:6144   */\n              dup5\n                /* \"#utility.yul\":6128:6134   */\n              dup3\n                /* \"#utility.yul\":6117:6126   */\n              dup6\n                /* \"#utility.yul\":6113:6135   */\n              add\n                /* \"#utility.yul\":6092:6145   */\n              tag_291\n              jump\t// in\n            tag_387:\n                /* \"#utility.yul\":6082:6145   */\n              swap2\n              pop\n                /* \"#utility.yul\":6038:6155   */\n              pop\n                /* \"#utility.yul\":5833:6162   */\n              swap3\n              swap2\n              pop\n              pop\n              jump\t// out\n                /* \"#utility.yul\":6168:6258   */\n            tag_292:\n                /* \"#utility.yul\":6202:6209   */\n              0x00\n                /* \"#utility.yul\":6245:6250   */\n              dup2\n                /* \"#utility.yul\":6238:6251   */\n              iszero\n                /* \"#utility.yul\":6231:6252   */\n              iszero\n                /* \"#utility.yul\":6220:6252   */\n              swap1\n              pop\n                /* \"#utility.yul\":6168:6258   */\n              swap2\n              swap1\n              pop\n              jump\t// out\n                /* \"#utility.yul\":6264:6373   */\n            tag_293:\n                /* \"#utility.yul\":6345:6366   */\n              tag_390\n                /* \"#utility.yul\":6360:6365   */\n              dup2\n                /* \"#utility.yul\":6345:6366   */\n              tag_292\n              jump\t// in\n            tag_390:\n                /* \"#utility.yul\":6340:6343   */\n              dup3\n                /* \"#utility.yul\":6333:6367   */\n              mstore\n                /* \"#utility.yul\":6264:6373   */\n              pop\n              pop\n              jump\t// out\n                /* \"#utility.yul\":6379:6809   */\n            tag_65:\n                /* \"#utility.yul\":6522:6526   */\n              0x00\n                /* \"#utility.yul\":6560:6562   */\n              0x60\n                /* \"#utility.yul\":6549:6558   */\n              dup3\n                /* \"#utility.yul\":6545:6563   */\n              add\n                /* \"#utility.yul\":6537:6563   */\n              swap1\n              pop\n                /* \"#utility.yul\":6573:6644   */\n              tag_392\n                /* \"#utility.yul\":6641:6642   */\n              0x00\n                /* \"#utility.yul\":6630:6639   */\n              dup4\n                /* \"#utility.yul\":6626:6643   */\n              add\n                /* \"#utility.yul\":6617:6623   */\n              dup7\n                /* \"#utility.yul\":6573:6644   */\n              tag_286\n              jump\t// in\n            tag_392:\n                /* \"#utility.yul\":6654:6726   */\n              tag_393\n                /* \"#utility.yul\":6722:6724   */\n              0x20\n                /* \"#utility.yul\":6711:6720   */\n              dup4\n                /* \"#utility.yul\":6707:6725   */\n              add\n                /* \"#utility.yul\":6698:6704   */\n              dup6\n                /* \"#utility.yul\":6654:6726   */\n              tag_286\n              jump\t// in\n            tag_393:\n                /* \"#utility.yul\":6736:6802   */\n              tag_394\n                /* \"#utility.yul\":6798:6800   */\n              0x40\n                /* \"#utility.yul\":6787:6796   */\n              dup4\n                /* \"#utility.yul\":6783:6801   */\n              add\n                /* \"#utility.yul\":6774:6780   */\n              dup5\n                /* \"#utility.yul\":6736:6802   */\n              tag_293\n              jump\t// in\n            tag_394:\n                /* \"#utility.yul\":6379:6809   */\n              swap5\n              swap4\n              pop\n              pop\n              pop\n              pop\n              jump\t// out\n                /* \"#utility.yul\":6815:6937   */\n            tag_294:\n                /* \"#utility.yul\":6888:6912   */\n              tag_396\n                /* \"#utility.yul\":6906:6911   */\n              dup2\n                /* \"#utility.yul\":6888:6912   */\n              tag_285\n              jump\t// in\n            tag_396:\n                /* \"#utility.yul\":6881:6886   */\n              dup2\n                /* \"#utility.yul\":6878:6913   */\n              eq\n                /* \"#utility.yul\":6868:6931   */\n              tag_397\n              jumpi\n                /* \"#utility.yul\":6927:6928   */\n              0x00\n                /* \"#utility.yul\":6924:6925   */\n              dup1\n                /* \"#utility.yul\":6917:6929   */\n              revert\n                /* \"#utility.yul\":6868:6931   */\n            tag_397:\n                /* \"#utility.yul\":6815:6937   */\n              pop\n              jump\t// out\n                /* \"#utility.yul\":6943:7082   */\n            tag_295:\n                /* \"#utility.yul\":6989:6994   */\n              0x00\n                /* \"#utility.yul\":7027:7033   */\n              dup2\n                /* \"#utility.yul\":7014:7034   */\n              calldataload\n                /* \"#utility.yul\":7005:7034   */\n              swap1\n              pop\n                /* \"#utility.yul\":7043:7076   */\n              tag_399\n                /* \"#utility.yul\":7070:7075   */\n              dup2\n                /* \"#utility.yul\":7043:7076   */\n              tag_294\n              jump\t// in\n            tag_399:\n                /* \"#utility.yul\":6943:7082   */\n              swap3\n              swap2\n              pop\n              pop\n              jump\t// out\n                /* \"#utility.yul\":7088:7562   */\n            tag_71:\n                /* \"#utility.yul\":7156:7162   */\n              0x00\n                /* \"#utility.yul\":7164:7170   */\n              dup1\n                /* \"#utility.yul\":7213:7215   */\n              0x40\n                /* \"#utility.yul\":7201:7210   */\n              dup4\n                /* \"#utility.yul\":7192:7199   */\n              dup6\n                /* \"#utility.yul\":7188:7211   */\n              sub\n                /* \"#utility.yul\":7184:7216   */\n              slt\n                /* \"#utility.yul\":7181:7300   */\n              iszero\n              tag_401\n              jumpi\n                /* \"#utility.yul\":7219:7298   */\n              tag_402\n              tag_288\n              jump\t// in\n            tag_402:\n                /* \"#utility.yul\":7181:7300   */\n            tag_401:\n                /* \"#utility.yul\":7339:7340   */\n              0x00\n                /* \"#utility.yul\":7364:7417   */\n              tag_403\n                /* \"#utility.yul\":7409:7416   */\n              dup6\n                /* \"#utility.yul\":7400:7406   */\n              dup3\n                /* \"#utility.yul\":7389:7398   */\n              dup7\n                /* \"#utility.yul\":7385:7407   */\n              add\n                /* \"#utility.yul\":7364:7417   */\n              tag_295\n              jump\t// in\n            tag_403:\n                /* \"#utility.yul\":7354:7417   */\n              swap3\n              pop\n                /* \"#utility.yul\":7310:7427   */\n              pop\n                /* \"#utility.yul\":7466:7468   */\n              0x20\n                /* \"#utility.yul\":7492:7545   */\n              tag_404\n                /* \"#utility.yul\":7537:7544   */\n              dup6\n                /* \"#utility.yul\":7528:7534   */\n              dup3\n                /* \"#utility.yul\":7517:7526   */\n              dup7\n                /* \"#utility.yul\":7513:7535   */\n              add\n                /* \"#utility.yul\":7492:7545   */\n              tag_295\n              jump\t// in\n            tag_404:\n                /* \"#utility.yul\":7482:7545   */\n              swap2\n              pop\n                /* \"#utility.yul\":7437:7555   */\n              pop\n                /* \"#utility.yul\":7088:7562   */\n              swap3\n              pop\n              swap3\n              swap1\n              pop\n              jump\t// out\n                /* \"#utility.yul\":7568:7897   */\n            tag_87:\n                /* \"#utility.yul\":7627:7633   */\n              0x00\n                /* \"#utility.yul\":7676:7678   */\n              0x20\n                /* \"#utility.yul\":7664:7673   */\n              dup3\n                /* \"#utility.yul\":7655:7662   */\n              dup5\n                /* \"#utility.yul\":7651:7674   */\n              sub\n                /* \"#utility.yul\":7647:7679   */\n              slt\n                /* \"#utility.yul\":7644:7763   */\n              iszero\n              tag_406\n              jumpi\n                /* \"#utility.yul\":7682:7761   */\n              tag_407\n              tag_288\n              jump\t// in\n            tag_407:\n                /* \"#utility.yul\":7644:7763   */\n            tag_406:\n                /* \"#utility.yul\":7802:7803   */\n              0x00\n                /* \"#utility.yul\":7827:7880   */\n              tag_408\n                /* \"#utility.yul\":7872:7879   */\n              dup5\n                /* \"#utility.yul\":7863:7869   */\n              dup3\n                /* \"#utility.yul\":7852:7861   */\n              dup6\n                /* \"#utility.yul\":7848:7870   */\n              add\n                /* \"#utility.yul\":7827:7880   */\n              tag_295\n              jump\t// in\n            tag_408:\n                /* \"#utility.yul\":7817:7880   */\n              swap2\n              pop\n                /* \"#utility.yul\":7773:7890   */\n              pop\n                /* \"#utility.yul\":7568:7897   */\n              swap3\n              swap2\n              pop\n              pop\n              jump\t// out\n                /* \"#utility.yul\":7903:8136   */\n            tag_296:\n                /* \"#utility.yul\":8043:8077   */\n              0x6f6e6c79207468652063757272656e742074656e616e742063616e2063616c6c\n                /* \"#utility.yul\":8039:8040   */\n              0x00\n                /* \"#utility.yul\":8031:8037   */\n              dup3\n                /* \"#utility.yul\":8027:8041   */\n              add\n                /* \"#utility.yul\":8020:8078   */\n              mstore\n                /* \"#utility.yul\":8112:8128   */\n              0x207468652066756e6374696f6e2e000000000000000000000000000000000000\n                /* \"#utility.yul\":8107:8109   */\n              0x20\n                /* \"#utility.yul\":8099:8105   */\n              dup3\n                /* \"#utility.yul\":8095:8110   */\n              add\n                /* \"#utility.yul\":8088:8129   */\n              mstore\n                /* \"#utility.yul\":7903:8136   */\n              pop\n              jump\t// out\n                /* \"#utility.yul\":8142:8508   */\n            tag_297:\n                /* \"#utility.yul\":8284:8287   */\n              0x00\n                /* \"#utility.yul\":8305:8372   */\n              tag_411\n                /* \"#utility.yul\":8369:8371   */\n              0x2e\n                /* \"#utility.yul\":8364:8367   */\n              dup4\n                /* \"#utility.yul\":8305:8372   */\n              tag_268\n              jump\t// in\n            tag_411:\n                /* \"#utility.yul\":8298:8372   */\n              swap2\n              pop\n                /* \"#utility.yul\":8381:8474   */\n              tag_412\n                /* \"#utility.yul\":8470:8473   */\n              dup3\n                /* \"#utility.yul\":8381:8474   */\n              tag_296\n              jump\t// in\n            tag_412:\n                /* \"#utility.yul\":8499:8501   */\n              0x40\n                /* \"#utility.yul\":8494:8497   */\n              dup3\n                /* \"#utility.yul\":8490:8502   */\n              add\n                /* \"#utility.yul\":8483:8502   */\n              swap1\n              pop\n                /* \"#utility.yul\":8142:8508   */\n              swap2\n              swap1\n              pop\n              jump\t// out\n                /* \"#utility.yul\":8514:8933   */\n            tag_120:\n                /* \"#utility.yul\":8680:8684   */\n              0x00\n                /* \"#utility.yul\":8718:8720   */\n              0x20\n                /* \"#utility.yul\":8707:8716   */\n              dup3\n                /* \"#utility.yul\":8703:8721   */\n              add\n                /* \"#utility.yul\":8695:8721   */\n              swap1\n              pop\n                /* \"#utility.yul\":8767:8776   */\n              dup2\n                /* \"#utility.yul\":8761:8765   */\n              dup2\n                /* \"#utility.yul\":8757:8777   */\n              sub\n                /* \"#utility.yul\":8753:8754   */\n              0x00\n                /* \"#utility.yul\":8742:8751   */\n              dup4\n                /* \"#utility.yul\":8738:8755   */\n              add\n                /* \"#utility.yul\":8731:8778   */\n              mstore\n                /* \"#utility.yul\":8795:8926   */\n              tag_414\n                /* \"#utility.yul\":8921:8925   */\n              dup2\n                /* \"#utility.yul\":8795:8926   */\n              tag_297\n              jump\t// in\n            tag_414:\n                /* \"#utility.yul\":8787:8926   */\n              swap1\n              pop\n                /* \"#utility.yul\":8514:8933   */\n              swap2\n              swap1\n              pop\n              jump\t// out\n                /* \"#utility.yul\":8939:9174   */\n            tag_298:\n                /* \"#utility.yul\":9079:9113   */\n              0x7468657265206973206e6f7420656e6f756768206465706f73697420666f7220\n                /* \"#utility.yul\":9075:9076   */\n              0x00\n                /* \"#utility.yul\":9067:9073   */\n              dup3\n                /* \"#utility.yul\":9063:9077   */\n              add\n                /* \"#utility.yul\":9056:9114   */\n              mstore\n                /* \"#utility.yul\":9148:9166   */\n              0x746865206e6578742072656e74616c2e00000000000000000000000000000000\n                /* \"#utility.yul\":9143:9145   */\n              0x20\n                /* \"#utility.yul\":9135:9141   */\n              dup3\n                /* \"#utility.yul\":9131:9146   */\n              add\n                /* \"#utility.yul\":9124:9167   */\n              mstore\n                /* \"#utility.yul\":8939:9174   */\n              pop\n              jump\t// out\n                /* \"#utility.yul\":9180:9546   */\n            tag_299:\n                /* \"#utility.yul\":9322:9325   */\n              0x00\n                /* \"#utility.yul\":9343:9410   */\n              tag_417\n                /* \"#utility.yul\":9407:9409   */\n              0x30\n                /* \"#utility.yul\":9402:9405   */\n              dup4\n                /* \"#utility.yul\":9343:9410   */\n              tag_268\n              jump\t// in\n            tag_417:\n                /* \"#utility.yul\":9336:9410   */\n              swap2\n              pop\n                /* \"#utility.yul\":9419:9512   */\n              tag_418\n                /* \"#utility.yul\":9508:9511   */\n              dup3\n                /* \"#utility.yul\":9419:9512   */\n              tag_298\n              jump\t// in\n            tag_418:\n                /* \"#utility.yul\":9537:9539   */\n              0x40\n                /* \"#utility.yul\":9532:9535   */\n              dup3\n                /* \"#utility.yul\":9528:9540   */\n              add\n                /* \"#utility.yul\":9521:9540   */\n              swap1\n              pop\n                /* \"#utility.yul\":9180:9546   */\n              swap2\n              swap1\n              pop\n              jump\t// out\n                /* \"#utility.yul\":9552:9971   */\n            tag_124:\n                /* \"#utility.yul\":9718:9722   */\n              0x00\n                /* \"#utility.yul\":9756:9758   */\n              0x20\n                /* \"#utility.yul\":9745:9754   */\n              dup3\n                /* \"#utility.yul\":9741:9759   */\n              add\n                /* \"#utility.yul\":9733:9759   */\n              swap1\n              pop\n                /* \"#utility.yul\":9805:9814   */\n              dup2\n                /* \"#utility.yul\":9799:9803   */\n              dup2\n                /* \"#utility.yul\":9795:9815   */\n              sub\n                /* \"#utility.yul\":9791:9792   */\n              0x00\n                /* \"#utility.yul\":9780:9789   */\n              dup4\n                /* \"#utility.yul\":9776:9793   */\n              add\n                /* \"#utility.yul\":9769:9816   */\n              mstore\n                /* \"#utility.yul\":9833:9964   */\n              tag_420\n                /* \"#utility.yul\":9959:9963   */\n              dup2\n                /* \"#utility.yul\":9833:9964   */\n              tag_299\n              jump\t// in\n            tag_420:\n                /* \"#utility.yul\":9825:9964   */\n              swap1\n              pop\n                /* \"#utility.yul\":9552:9971   */\n              swap2\n              swap1\n              pop\n              jump\t// out\n                /* \"#utility.yul\":9977:10157   */\n            tag_300:\n                /* \"#utility.yul\":10025:10102   */\n              0x4e487b7100000000000000000000000000000000000000000000000000000000\n                /* \"#utility.yul\":10022:10023   */\n              0x00\n                /* \"#utility.yul\":10015:10103   */\n              mstore\n                /* \"#utility.yul\":10122:10126   */\n              0x11\n                /* \"#utility.yul\":10119:10120   */\n              0x04\n                /* \"#utility.yul\":10112:10127   */\n              mstore\n                /* \"#utility.yul\":10146:10150   */\n              0x24\n                /* \"#utility.yul\":10143:10144   */\n              0x00\n                /* \"#utility.yul\":10136:10151   */\n              revert\n                /* \"#utility.yul\":10163:10354   */\n            tag_126:\n                /* \"#utility.yul\":10203:10206   */\n              0x00\n                /* \"#utility.yul\":10222:10242   */\n              tag_423\n                /* \"#utility.yul\":10240:10241   */\n              dup3\n                /* \"#utility.yul\":10222:10242   */\n              tag_285\n              jump\t// in\n            tag_423:\n                /* \"#utility.yul\":10217:10242   */\n              swap2\n              pop\n                /* \"#utility.yul\":10256:10276   */\n              tag_424\n                /* \"#utility.yul\":10274:10275   */\n              dup4\n                /* \"#utility.yul\":10256:10276   */\n              tag_285\n              jump\t// in\n            tag_424:\n                /* \"#utility.yul\":10251:10276   */\n              swap3\n              pop\n                /* \"#utility.yul\":10299:10300   */\n              dup3\n                /* \"#utility.yul\":10296:10297   */\n              dup3\n                /* \"#utility.yul\":10292:10301   */\n              add\n                /* \"#utility.yul\":10285:10301   */\n              swap1\n              pop\n                /* \"#utility.yul\":10320:10323   */\n              dup1\n                /* \"#utility.yul\":10317:10318   */\n              dup3\n                /* \"#utility.yul\":10314:10324   */\n              gt\n                /* \"#utility.yul\":10311:10347   */\n              iszero\n              tag_425\n              jumpi\n                /* \"#utility.yul\":10327:10345   */\n              tag_426\n              tag_300\n              jump\t// in\n            tag_426:\n                /* \"#utility.yul\":10311:10347   */\n            tag_425:\n                /* \"#utility.yul\":10163:10354   */\n              swap3\n              swap2\n              pop\n              pop\n              jump\t// out\n                /* \"#utility.yul\":10360:10770   */\n            tag_128:\n                /* \"#utility.yul\":10400:10407   */\n              0x00\n                /* \"#utility.yul\":10423:10443   */\n              tag_428\n                /* \"#utility.yul\":10441:10442   */\n              dup3\n                /* \"#utility.yul\":10423:10443   */\n              tag_285\n              jump\t// in\n            tag_428:\n                /* \"#utility.yul\":10418:10443   */\n              swap2\n              pop\n                /* \"#utility.yul\":10457:10477   */\n              tag_429\n                /* \"#utility.yul\":10475:10476   */\n              dup4\n                /* \"#utility.yul\":10457:10477   */\n              tag_285\n              jump\t// in\n            tag_429:\n                /* \"#utility.yul\":10452:10477   */\n              swap3\n              pop\n                /* \"#utility.yul\":10512:10513   */\n              dup3\n                /* \"#utility.yul\":10509:10510   */\n              dup3\n                /* \"#utility.yul\":10505:10514   */\n              mul\n                /* \"#utility.yul\":10534:10564   */\n              tag_430\n                /* \"#utility.yul\":10552:10563   */\n              dup2\n                /* \"#utility.yul\":10534:10564   */\n              tag_285\n              jump\t// in\n            tag_430:\n                /* \"#utility.yul\":10523:10564   */\n              swap2\n              pop\n                /* \"#utility.yul\":10713:10714   */\n              dup3\n                /* \"#utility.yul\":10704:10711   */\n              dup3\n                /* \"#utility.yul\":10700:10715   */\n              div\n                /* \"#utility.yul\":10697:10698   */\n              dup5\n                /* \"#utility.yul\":10694:10716   */\n              eq\n                /* \"#utility.yul\":10674:10675   */\n              dup4\n                /* \"#utility.yul\":10667:10676   */\n              iszero\n                /* \"#utility.yul\":10647:10730   */\n              or\n                /* \"#utility.yul\":10624:10763   */\n              tag_431\n              jumpi\n                /* \"#utility.yul\":10743:10761   */\n              tag_432\n              tag_300\n              jump\t// in\n            tag_432:\n                /* \"#utility.yul\":10624:10763   */\n            tag_431:\n                /* \"#utility.yul\":10408:10770   */\n              pop\n                /* \"#utility.yul\":10360:10770   */\n              swap3\n              swap2\n              pop\n              pop\n              jump\t// out\n                /* \"#utility.yul\":10776:10956   */\n            tag_301:\n                /* \"#utility.yul\":10824:10901   */\n              0x4e487b7100000000000000000000000000000000000000000000000000000000\n                /* \"#utility.yul\":10821:10822   */\n              0x00\n                /* \"#utility.yul\":10814:10902   */\n              mstore\n                /* \"#utility.yul\":10921:10925   */\n              0x12\n                /* \"#utility.yul\":10918:10919   */\n              0x04\n                /* \"#utility.yul\":10911:10926   */\n              mstore\n                /* \"#utility.yul\":10945:10949   */\n              0x24\n                /* \"#utility.yul\":10942:10943   */\n              0x00\n                /* \"#utility.yul\":10935:10950   */\n              revert\n                /* \"#utility.yul\":10962:11147   */\n            tag_130:\n                /* \"#utility.yul\":11002:11003   */\n              0x00\n                /* \"#utility.yul\":11019:11039   */\n              tag_435\n                /* \"#utility.yul\":11037:11038   */\n              dup3\n                /* \"#utility.yul\":11019:11039   */\n              tag_285\n              jump\t// in\n            tag_435:\n                /* \"#utility.yul\":11014:11039   */\n              swap2\n              pop\n                /* \"#utility.yul\":11053:11073   */\n              tag_436\n                /* \"#utility.yul\":11071:11072   */\n              dup4\n                /* \"#utility.yul\":11053:11073   */\n              tag_285\n              jump\t// in\n            tag_436:\n                /* \"#utility.yul\":11048:11073   */\n              swap3\n              pop\n                /* \"#utility.yul\":11092:11093   */\n              dup3\n                /* \"#utility.yul\":11082:11117   */\n              tag_437\n              jumpi\n                /* \"#utility.yul\":11097:11115   */\n              tag_438\n              tag_301\n              jump\t// in\n            tag_438:\n                /* \"#utility.yul\":11082:11117   */\n            tag_437:\n                /* \"#utility.yul\":11139:11140   */\n              dup3\n                /* \"#utility.yul\":11136:11137   */\n              dup3\n                /* \"#utility.yul\":11132:11141   */\n              div\n                /* \"#utility.yul\":11127:11141   */\n              swap1\n              pop\n                /* \"#utility.yul\":10962:11147   */\n              swap3\n              swap2\n              pop\n              pop\n              jump\t// out\n                /* \"#utility.yul\":11153:11347   */\n            tag_133:\n                /* \"#utility.yul\":11193:11197   */\n              0x00\n                /* \"#utility.yul\":11213:11233   */\n              tag_440\n                /* \"#utility.yul\":11231:11232   */\n              dup3\n                /* \"#utility.yul\":11213:11233   */\n              tag_285\n              jump\t// in\n            tag_440:\n                /* \"#utility.yul\":11208:11233   */\n              swap2\n              pop\n                /* \"#utility.yul\":11247:11267   */\n              tag_441\n                /* \"#utility.yul\":11265:11266   */\n              dup4\n                /* \"#utility.yul\":11247:11267   */\n              tag_285\n              jump\t// in\n            tag_441:\n                /* \"#utility.yul\":11242:11267   */\n              swap3\n              pop\n                /* \"#utility.yul\":11291:11292   */\n              dup3\n                /* \"#utility.yul\":11288:11289   */\n              dup3\n                /* \"#utility.yul\":11284:11293   */\n              sub\n                /* \"#utility.yul\":11276:11293   */\n              swap1\n              pop\n                /* \"#utility.yul\":11315:11316   */\n              dup2\n                /* \"#utility.yul\":11309:11313   */\n              dup2\n                /* \"#utility.yul\":11306:11317   */\n              gt\n                /* \"#utility.yul\":11303:11340   */\n              iszero\n              tag_442\n              jumpi\n                /* \"#utility.yul\":11320:11338   */\n              tag_443\n              tag_300\n              jump\t// in\n            tag_443:\n                /* \"#utility.yul\":11303:11340   */\n            tag_442:\n                /* \"#utility.yul\":11153:11347   */\n              swap3\n              swap2\n              pop\n              pop\n              jump\t// out\n                /* \"#utility.yul\":11353:11500   */\n            tag_302:\n                /* \"#utility.yul\":11454:11465   */\n              0x00\n                /* \"#utility.yul\":11491:11494   */\n              dup2\n                /* \"#utility.yul\":11476:11494   */\n              swap1\n              pop\n                /* \"#utility.yul\":11353:11500   */\n              swap3\n              swap2\n              pop\n              pop\n              jump\t// out\n                /* \"#utility.yul\":11506:11620   */\n            tag_303:\n              pop\n              jump\t// out\n                /* \"#utility.yul\":11626:12024   */\n            tag_304:\n                /* \"#utility.yul\":11785:11788   */\n              0x00\n                /* \"#utility.yul\":11806:11889   */\n              tag_447\n                /* \"#utility.yul\":11887:11888   */\n              0x00\n                /* \"#utility.yul\":11882:11885   */\n              dup4\n                /* \"#utility.yul\":11806:11889   */\n              tag_302\n              jump\t// in\n            tag_447:\n                /* \"#utility.yul\":11799:11889   */\n              swap2\n              pop\n                /* \"#utility.yul\":11898:11991   */\n              tag_448\n                /* \"#utility.yul\":11987:11990   */\n              dup3\n                /* \"#utility.yul\":11898:11991   */\n              tag_303\n              jump\t// in\n            tag_448:\n                /* \"#utility.yul\":12016:12017   */\n              0x00\n                /* \"#utility.yul\":12011:12014   */\n              dup3\n                /* \"#utility.yul\":12007:12018   */\n              add\n                /* \"#utility.yul\":12000:12018   */\n              swap1\n              pop\n                /* \"#utility.yul\":11626:12024   */\n              swap2\n              swap1\n              pop\n              jump\t// out\n                /* \"#utility.yul\":12030:12409   */\n            tag_137:\n                /* \"#utility.yul\":12214:12217   */\n              0x00\n                /* \"#utility.yul\":12236:12383   */\n              tag_450\n                /* \"#utility.yul\":12379:12382   */\n              dup3\n                /* \"#utility.yul\":12236:12383   */\n              tag_304\n              jump\t// in\n            tag_450:\n                /* \"#utility.yul\":12229:12383   */\n              swap2\n              pop\n                /* \"#utility.yul\":12400:12403   */\n              dup2\n                /* \"#utility.yul\":12393:12403   */\n              swap1\n              pop\n                /* \"#utility.yul\":12030:12409   */\n              swap2\n              swap1\n              pop\n              jump\t// out\n                /* \"#utility.yul\":12415:12572   */\n            tag_305:\n                /* \"#utility.yul\":12555:12564   */\n              0x4661696c65642100000000000000000000000000000000000000000000000000\n                /* \"#utility.yul\":12551:12552   */\n              0x00\n                /* \"#utility.yul\":12543:12549   */\n              dup3\n                /* \"#utility.yul\":12539:12553   */\n              add\n                /* \"#utility.yul\":12532:12565   */\n              mstore\n                /* \"#utility.yul\":12415:12572   */\n              pop\n              jump\t// out\n                /* \"#utility.yul\":12578:12943   */\n            tag_306:\n                /* \"#utility.yul\":12720:12723   */\n              0x00\n                /* \"#utility.yul\":12741:12807   */\n              tag_453\n                /* \"#utility.yul\":12805:12806   */\n              0x07\n                /* \"#utility.yul\":12800:12803   */\n              dup4\n                /* \"#utility.yul\":12741:12807   */\n              tag_268\n              jump\t// in\n            tag_453:\n                /* \"#utility.yul\":12734:12807   */\n              swap2\n              pop\n                /* \"#utility.yul\":12816:12909   */\n              tag_454\n                /* \"#utility.yul\":12905:12908   */\n              dup3\n                /* \"#utility.yul\":12816:12909   */\n              tag_305\n              jump\t// in\n            tag_454:\n                /* \"#utility.yul\":12934:12936   */\n              0x20\n                /* \"#utility.yul\":12929:12932   */\n              dup3\n                /* \"#utility.yul\":12925:12937   */\n              add\n                /* \"#utility.yul\":12918:12937   */\n              swap1\n              pop\n                /* \"#utility.yul\":12578:12943   */\n              swap2\n              swap1\n              pop\n              jump\t// out\n                /* \"#utility.yul\":12949:13368   */\n            tag_143:\n                /* \"#utility.yul\":13115:13119   */\n              0x00\n                /* \"#utility.yul\":13153:13155   */\n              0x20\n                /* \"#utility.yul\":13142:13151   */\n              dup3\n                /* \"#utility.yul\":13138:13156   */\n              add\n                /* \"#utility.yul\":13130:13156   */\n              swap1\n              pop\n                /* \"#utility.yul\":13202:13211   */\n              dup2\n                /* \"#utility.yul\":13196:13200   */\n              dup2\n                /* \"#utility.yul\":13192:13212   */\n              sub\n                /* \"#utility.yul\":13188:13189   */\n              0x00\n                /* \"#utility.yul\":13177:13186   */\n              dup4\n                /* \"#utility.yul\":13173:13190   */\n              add\n                /* \"#utility.yul\":13166:13213   */\n              mstore\n                /* \"#utility.yul\":13230:13361   */\n              tag_456\n                /* \"#utility.yul\":13356:13360   */\n              dup2\n                /* \"#utility.yul\":13230:13361   */\n              tag_306\n              jump\t// in\n            tag_456:\n                /* \"#utility.yul\":13222:13361   */\n              swap1\n              pop\n                /* \"#utility.yul\":12949:13368   */\n              swap2\n              swap1\n              pop\n              jump\t// out\n                /* \"#utility.yul\":13374:13603   */\n            tag_307:\n                /* \"#utility.yul\":13514:13548   */\n              0x596f75206861766520656e7465726564207468652077726f6e67206465706f73\n                /* \"#utility.yul\":13510:13511   */\n              0x00\n                /* \"#utility.yul\":13502:13508   */\n              dup3\n                /* \"#utility.yul\":13498:13512   */\n              add\n                /* \"#utility.yul\":13491:13549   */\n              mstore\n                /* \"#utility.yul\":13583:13595   */\n              0x697420616d6f756e742e00000000000000000000000000000000000000000000\n                /* \"#utility.yul\":13578:13580   */\n              0x20\n                /* \"#utility.yul\":13570:13576   */\n              dup3\n                /* \"#utility.yul\":13566:13581   */\n              add\n                /* \"#utility.yul\":13559:13596   */\n              mstore\n                /* \"#utility.yul\":13374:13603   */\n              pop\n              jump\t// out\n                /* \"#utility.yul\":13609:13975   */\n            tag_308:\n                /* \"#utility.yul\":13751:13754   */\n              0x00\n                /* \"#utility.yul\":13772:13839   */\n              tag_459\n                /* \"#utility.yul\":13836:13838   */\n              0x2a\n                /* \"#utility.yul\":13831:13834   */\n              dup4\n                /* \"#utility.yul\":13772:13839   */\n              tag_268\n              jump\t// in\n            tag_459:\n                /* \"#utility.yul\":13765:13839   */\n              swap2\n              pop\n                /* \"#utility.yul\":13848:13941   */\n              tag_460\n                /* \"#utility.yul\":13937:13940   */\n              dup3\n                /* \"#utility.yul\":13848:13941   */\n              tag_307\n              jump\t// in\n            tag_460:\n                /* \"#utility.yul\":13966:13968   */\n              0x40\n                /* \"#utility.yul\":13961:13964   */\n              dup3\n                /* \"#utility.yul\":13957:13969   */\n              add\n                /* \"#utility.yul\":13950:13969   */\n              swap1\n              pop\n                /* \"#utility.yul\":13609:13975   */\n              swap2\n              swap1\n              pop\n              jump\t// out\n                /* \"#utility.yul\":13981:14400   */\n            tag_154:\n                /* \"#utility.yul\":14147:14151   */\n              0x00\n                /* \"#utility.yul\":14185:14187   */\n              0x20\n                /* \"#utility.yul\":14174:14183   */\n              dup3\n                /* \"#utility.yul\":14170:14188   */\n              add\n                /* \"#utility.yul\":14162:14188   */\n              swap1\n              pop\n                /* \"#utility.yul\":14234:14243   */\n              dup2\n                /* \"#utility.yul\":14228:14232   */\n              dup2\n                /* \"#utility.yul\":14224:14244   */\n              sub\n                /* \"#utility.yul\":14220:14221   */\n              0x00\n                /* \"#utility.yul\":14209:14218   */\n              dup4\n                /* \"#utility.yul\":14205:14222   */\n              add\n                /* \"#utility.yul\":14198:14245   */\n              mstore\n                /* \"#utility.yul\":14262:14393   */\n              tag_462\n                /* \"#utility.yul\":14388:14392   */\n              dup2\n                /* \"#utility.yul\":14262:14393   */\n              tag_308\n              jump\t// in\n            tag_462:\n                /* \"#utility.yul\":14254:14393   */\n              swap1\n              pop\n                /* \"#utility.yul\":13981:14400   */\n              swap2\n              swap1\n              pop\n              jump\t// out\n                /* \"#utility.yul\":14406:14649   */\n            tag_309:\n                /* \"#utility.yul\":14546:14580   */\n              0x596f7572207072696365206d75737420626520686967686572206f7220657175\n                /* \"#utility.yul\":14542:14543   */\n              0x00\n                /* \"#utility.yul\":14534:14540   */\n              dup3\n                /* \"#utility.yul\":14530:14544   */\n              add\n                /* \"#utility.yul\":14523:14581   */\n              mstore\n                /* \"#utility.yul\":14615:14641   */\n              0x616c20746f20746865206d696e696d756d2070726963652e0000000000000000\n                /* \"#utility.yul\":14610:14612   */\n              0x20\n                /* \"#utility.yul\":14602:14608   */\n              dup3\n                /* \"#utility.yul\":14598:14613   */\n              add\n                /* \"#utility.yul\":14591:14642   */\n              mstore\n                /* \"#utility.yul\":14406:14649   */\n              pop\n              jump\t// out\n                /* \"#utility.yul\":14655:15021   */\n            tag_310:\n                /* \"#utility.yul\":14797:14800   */\n              0x00\n                /* \"#utility.yul\":14818:14885   */\n              tag_465\n                /* \"#utility.yul\":14882:14884   */\n              0x38\n                /* \"#utility.yul\":14877:14880   */\n              dup4\n                /* \"#utility.yul\":14818:14885   */\n              tag_268\n              jump\t// in\n            tag_465:\n                /* \"#utility.yul\":14811:14885   */\n              swap2\n              pop\n                /* \"#utility.yul\":14894:14987   */\n              tag_466\n                /* \"#utility.yul\":14983:14986   */\n              dup3\n                /* \"#utility.yul\":14894:14987   */\n              tag_309\n              jump\t// in\n            tag_466:\n                /* \"#utility.yul\":15012:15014   */\n              0x40\n                /* \"#utility.yul\":15007:15010   */\n              dup3\n                /* \"#utility.yul\":15003:15015   */\n              add\n                /* \"#utility.yul\":14996:15015   */\n              swap1\n              pop\n                /* \"#utility.yul\":14655:15021   */\n              swap2\n              swap1\n              pop\n              jump\t// out\n                /* \"#utility.yul\":15027:15446   */\n            tag_158:\n                /* \"#utility.yul\":15193:15197   */\n              0x00\n                /* \"#utility.yul\":15231:15233   */\n              0x20\n                /* \"#utility.yul\":15220:15229   */\n              dup3\n                /* \"#utility.yul\":15216:15234   */\n              add\n                /* \"#utility.yul\":15208:15234   */\n              swap1\n              pop\n                /* \"#utility.yul\":15280:15289   */\n              dup2\n                /* \"#utility.yul\":15274:15278   */\n              dup2\n                /* \"#utility.yul\":15270:15290   */\n              sub\n                /* \"#utility.yul\":15266:15267   */\n              0x00\n                /* \"#utility.yul\":15255:15264   */\n              dup4\n                /* \"#utility.yul\":15251:15268   */\n              add\n                /* \"#utility.yul\":15244:15291   */\n              mstore\n                /* \"#utility.yul\":15308:15439   */\n              tag_468\n                /* \"#utility.yul\":15434:15438   */\n              dup2\n                /* \"#utility.yul\":15308:15439   */\n              tag_310\n              jump\t// in\n            tag_468:\n                /* \"#utility.yul\":15300:15439   */\n              swap1\n              pop\n                /* \"#utility.yul\":15027:15446   */\n              swap2\n              swap1\n              pop\n              jump\t// out\n                /* \"#utility.yul\":15452:15698   */\n            tag_311:\n                /* \"#utility.yul\":15592:15626   */\n              0x596f7572206465706f736974206d7573742062652061626f7665206f72206571\n                /* \"#utility.yul\":15588:15589   */\n              0x00\n                /* \"#utility.yul\":15580:15586   */\n              dup3\n                /* \"#utility.yul\":15576:15590   */\n              add\n                /* \"#utility.yul\":15569:15627   */\n              mstore\n                /* \"#utility.yul\":15661:15690   */\n              0x75616c20746f20746865206d696e696d756d206465706f7369742e0000000000\n                /* \"#utility.yul\":15656:15658   */\n              0x20\n                /* \"#utility.yul\":15648:15654   */\n              dup3\n                /* \"#utility.yul\":15644:15659   */\n              add\n                /* \"#utility.yul\":15637:15691   */\n              mstore\n                /* \"#utility.yul\":15452:15698   */\n              pop\n              jump\t// out\n                /* \"#utility.yul\":15704:16070   */\n            tag_312:\n                /* \"#utility.yul\":15846:15849   */\n              0x00\n                /* \"#utility.yul\":15867:15934   */\n              tag_471\n                /* \"#utility.yul\":15931:15933   */\n              0x3b\n                /* \"#utility.yul\":15926:15929   */\n              dup4\n                /* \"#utility.yul\":15867:15934   */\n              tag_268\n              jump\t// in\n            tag_471:\n                /* \"#utility.yul\":15860:15934   */\n              swap2\n              pop\n                /* \"#utility.yul\":15943:16036   */\n              tag_472\n                /* \"#utility.yul\":16032:16035   */\n              dup3\n                /* \"#utility.yul\":15943:16036   */\n              tag_311\n              jump\t// in\n            tag_472:\n                /* \"#utility.yul\":16061:16063   */\n              0x40\n                /* \"#utility.yul\":16056:16059   */\n              dup3\n                /* \"#utility.yul\":16052:16064   */\n              add\n                /* \"#utility.yul\":16045:16064   */\n              swap1\n              pop\n                /* \"#utility.yul\":15704:16070   */\n              swap2\n              swap1\n              pop\n              jump\t// out\n                /* \"#utility.yul\":16076:16495   */\n            tag_162:\n                /* \"#utility.yul\":16242:16246   */\n              0x00\n                /* \"#utility.yul\":16280:16282   */\n              0x20\n                /* \"#utility.yul\":16269:16278   */\n              dup3\n                /* \"#utility.yul\":16265:16283   */\n              add\n                /* \"#utility.yul\":16257:16283   */\n              swap1\n              pop\n                /* \"#utility.yul\":16329:16338   */\n              dup2\n                /* \"#utility.yul\":16323:16327   */\n              dup2\n                /* \"#utility.yul\":16319:16339   */\n              sub\n                /* \"#utility.yul\":16315:16316   */\n              0x00\n                /* \"#utility.yul\":16304:16313   */\n              dup4\n                /* \"#utility.yul\":16300:16317   */\n              add\n                /* \"#utility.yul\":16293:16340   */\n              mstore\n                /* \"#utility.yul\":16357:16488   */\n              tag_474\n                /* \"#utility.yul\":16483:16487   */\n              dup2\n                /* \"#utility.yul\":16357:16488   */\n              tag_312\n              jump\t// in\n            tag_474:\n                /* \"#utility.yul\":16349:16488   */\n              swap1\n              pop\n                /* \"#utility.yul\":16076:16495   */\n              swap2\n              swap1\n              pop\n              jump\t// out\n                /* \"#utility.yul\":16501:16672   */\n            tag_313:\n                /* \"#utility.yul\":16641:16664   */\n              0x796f75722062616c616e6365206973207a65726f210000000000000000000000\n                /* \"#utility.yul\":16637:16638   */\n              0x00\n                /* \"#utility.yul\":16629:16635   */\n              dup3\n                /* \"#utility.yul\":16625:16639   */\n              add\n                /* \"#utility.yul\":16618:16665   */\n              mstore\n                /* \"#utility.yul\":16501:16672   */\n              pop\n              jump\t// out\n                /* \"#utility.yul\":16678:17044   */\n            tag_314:\n                /* \"#utility.yul\":16820:16823   */\n              0x00\n                /* \"#utility.yul\":16841:16908   */\n              tag_477\n                /* \"#utility.yul\":16905:16907   */\n              0x15\n                /* \"#utility.yul\":16900:16903   */\n              dup4\n                /* \"#utility.yul\":16841:16908   */\n              tag_268\n              jump\t// in\n            tag_477:\n                /* \"#utility.yul\":16834:16908   */\n              swap2\n              pop\n                /* \"#utility.yul\":16917:17010   */\n              tag_478\n                /* \"#utility.yul\":17006:17009   */\n              dup3\n                /* \"#utility.yul\":16917:17010   */\n              tag_313\n              jump\t// in\n            tag_478:\n                /* \"#utility.yul\":17035:17037   */\n              0x20\n                /* \"#utility.yul\":17030:17033   */\n              dup3\n                /* \"#utility.yul\":17026:17038   */\n              add\n                /* \"#utility.yul\":17019:17038   */\n              swap1\n              pop\n                /* \"#utility.yul\":16678:17044   */\n              swap2\n              swap1\n              pop\n              jump\t// out\n                /* \"#utility.yul\":17050:17469   */\n            tag_179:\n                /* \"#utility.yul\":17216:17220   */\n              0x00\n                /* \"#utility.yul\":17254:17256   */\n              0x20\n                /* \"#utility.yul\":17243:17252   */\n              dup3\n                /* \"#utility.yul\":17239:17257   */\n              add\n                /* \"#utility.yul\":17231:17257   */\n              swap1\n              pop\n                /* \"#utility.yul\":17303:17312   */\n              dup2\n                /* \"#utility.yul\":17297:17301   */\n              dup2\n                /* \"#utility.yul\":17293:17313   */\n              sub\n                /* \"#utility.yul\":17289:17290   */\n              0x00\n                /* \"#utility.yul\":17278:17287   */\n              dup4\n                /* \"#utility.yul\":17274:17291   */\n              add\n                /* \"#utility.yul\":17267:17314   */\n              mstore\n                /* \"#utility.yul\":17331:17462   */\n              tag_480\n                /* \"#utility.yul\":17457:17461   */\n              dup2\n                /* \"#utility.yul\":17331:17462   */\n              tag_314\n              jump\t// in\n            tag_480:\n                /* \"#utility.yul\":17323:17462   */\n              swap1\n              pop\n                /* \"#utility.yul\":17050:17469   */\n              swap2\n              swap1\n              pop\n              jump\t// out\n                /* \"#utility.yul\":17475:17656   */\n            tag_315:\n                /* \"#utility.yul\":17615:17648   */\n              0x62616c616e636520636f6e7472616374206c6974746c65206465706f73697400\n                /* \"#utility.yul\":17611:17612   */\n              0x00\n                /* \"#utility.yul\":17603:17609   */\n              dup3\n                /* \"#utility.yul\":17599:17613   */\n              add\n                /* \"#utility.yul\":17592:17649   */\n              mstore\n                /* \"#utility.yul\":17475:17656   */\n              pop\n              jump\t// out\n                /* \"#utility.yul\":17662:18028   */\n            tag_316:\n                /* \"#utility.yul\":17804:17807   */\n              0x00\n                /* \"#utility.yul\":17825:17892   */\n              tag_483\n                /* \"#utility.yul\":17889:17891   */\n              0x1f\n                /* \"#utility.yul\":17884:17887   */\n              dup4\n                /* \"#utility.yul\":17825:17892   */\n              tag_268\n              jump\t// in\n            tag_483:\n                /* \"#utility.yul\":17818:17892   */\n              swap2\n              pop\n                /* \"#utility.yul\":17901:17994   */\n              tag_484\n                /* \"#utility.yul\":17990:17993   */\n              dup3\n                /* \"#utility.yul\":17901:17994   */\n              tag_315\n              jump\t// in\n            tag_484:\n                /* \"#utility.yul\":18019:18021   */\n              0x20\n                /* \"#utility.yul\":18014:18017   */\n              dup3\n                /* \"#utility.yul\":18010:18022   */\n              add\n                /* \"#utility.yul\":18003:18022   */\n              swap1\n              pop\n                /* \"#utility.yul\":17662:18028   */\n              swap2\n              swap1\n              pop\n              jump\t// out\n                /* \"#utility.yul\":18034:18453   */\n            tag_182:\n                /* \"#utility.yul\":18200:18204   */\n              0x00\n                /* \"#utility.yul\":18238:18240   */\n              0x20\n                /* \"#utility.yul\":18227:18236   */\n              dup3\n                /* \"#utility.yul\":18223:18241   */\n              add\n                /* \"#utility.yul\":18215:18241   */\n              swap1\n              pop\n                /* \"#utility.yul\":18287:18296   */\n              dup2\n                /* \"#utility.yul\":18281:18285   */\n              dup2\n                /* \"#utility.yul\":18277:18297   */\n              sub\n                /* \"#utility.yul\":18273:18274   */\n              0x00\n                /* \"#utility.yul\":18262:18271   */\n              dup4\n                /* \"#utility.yul\":18258:18275   */\n              add\n                /* \"#utility.yul\":18251:18298   */\n              mstore\n                /* \"#utility.yul\":18315:18446   */\n              tag_486\n                /* \"#utility.yul\":18441:18445   */\n              dup2\n                /* \"#utility.yul\":18315:18446   */\n              tag_316\n              jump\t// in\n            tag_486:\n                /* \"#utility.yul\":18307:18446   */\n              swap1\n              pop\n                /* \"#utility.yul\":18034:18453   */\n              swap2\n              swap1\n              pop\n              jump\t// out\n                /* \"#utility.yul\":18459:18635   */\n            tag_317:\n                /* \"#utility.yul\":18599:18627   */\n              0x43616e206f6e6c792065786563757465206c616e646c6f72642e000000000000\n                /* \"#utility.yul\":18595:18596   */\n              0x00\n                /* \"#utility.yul\":18587:18593   */\n              dup3\n                /* \"#utility.yul\":18583:18597   */\n              add\n                /* \"#utility.yul\":18576:18628   */\n              mstore\n                /* \"#utility.yul\":18459:18635   */\n              pop\n              jump\t// out\n                /* \"#utility.yul\":18641:19007   */\n            tag_318:\n                /* \"#utility.yul\":18783:18786   */\n              0x00\n                /* \"#utility.yul\":18804:18871   */\n              tag_489\n                /* \"#utility.yul\":18868:18870   */\n              0x1a\n                /* \"#utility.yul\":18863:18866   */\n              dup4\n                /* \"#utility.yul\":18804:18871   */\n              tag_268\n              jump\t// in\n            tag_489:\n                /* \"#utility.yul\":18797:18871   */\n              swap2\n              pop\n                /* \"#utility.yul\":18880:18973   */\n              tag_490\n                /* \"#utility.yul\":18969:18972   */\n              dup3\n                /* \"#utility.yul\":18880:18973   */\n              tag_317\n              jump\t// in\n            tag_490:\n                /* \"#utility.yul\":18998:19000   */\n              0x20\n                /* \"#utility.yul\":18993:18996   */\n              dup3\n                /* \"#utility.yul\":18989:19001   */\n              add\n                /* \"#utility.yul\":18982:19001   */\n              swap1\n              pop\n                /* \"#utility.yul\":18641:19007   */\n              swap2\n              swap1\n              pop\n              jump\t// out\n                /* \"#utility.yul\":19013:19432   */\n            tag_192:\n                /* \"#utility.yul\":19179:19183   */\n              0x00\n                /* \"#utility.yul\":19217:19219   */\n              0x20\n                /* \"#utility.yul\":19206:19215   */\n              dup3\n                /* \"#utility.yul\":19202:19220   */\n              add\n                /* \"#utility.yul\":19194:19220   */\n              swap1\n              pop\n                /* \"#utility.yul\":19266:19275   */\n              dup2\n                /* \"#utility.yul\":19260:19264   */\n              dup2\n                /* \"#utility.yul\":19256:19276   */\n              sub\n                /* \"#utility.yul\":19252:19253   */\n              0x00\n                /* \"#utility.yul\":19241:19250   */\n              dup4\n                /* \"#utility.yul\":19237:19254   */\n              add\n                /* \"#utility.yul\":19230:19277   */\n              mstore\n                /* \"#utility.yul\":19294:19425   */\n              tag_492\n                /* \"#utility.yul\":19420:19424   */\n              dup2\n                /* \"#utility.yul\":19294:19425   */\n              tag_318\n              jump\t// in\n            tag_492:\n                /* \"#utility.yul\":19286:19425   */\n              swap1\n              pop\n                /* \"#utility.yul\":19013:19432   */\n              swap2\n              swap1\n              pop\n              jump\t// out\n                /* \"#utility.yul\":19438:19660   */\n            tag_319:\n                /* \"#utility.yul\":19578:19612   */\n              0x796f752063616e27742072656e74206120706c61636520627920796f75727365\n                /* \"#utility.yul\":19574:19575   */\n              0x00\n                /* \"#utility.yul\":19566:19572   */\n              dup3\n                /* \"#utility.yul\":19562:19576   */\n              add\n                /* \"#utility.yul\":19555:19613   */\n              mstore\n                /* \"#utility.yul\":19647:19652   */\n              0x6c66210000000000000000000000000000000000000000000000000000000000\n                /* \"#utility.yul\":19642:19644   */\n              0x20\n                /* \"#utility.yul\":19634:19640   */\n              dup3\n                /* \"#utility.yul\":19630:19645   */\n              add\n                /* \"#utility.yul\":19623:19653   */\n              mstore\n                /* \"#utility.yul\":19438:19660   */\n              pop\n              jump\t// out\n                /* \"#utility.yul\":19666:20032   */\n            tag_320:\n                /* \"#utility.yul\":19808:19811   */\n              0x00\n                /* \"#utility.yul\":19829:19896   */\n              tag_495\n                /* \"#utility.yul\":19893:19895   */\n              0x23\n                /* \"#utility.yul\":19888:19891   */\n              dup4\n                /* \"#utility.yul\":19829:19896   */\n              tag_268\n              jump\t// in\n            tag_495:\n                /* \"#utility.yul\":19822:19896   */\n              swap2\n              pop\n                /* \"#utility.yul\":19905:19998   */\n              tag_496\n                /* \"#utility.yul\":19994:19997   */\n              dup3\n                /* \"#utility.yul\":19905:19998   */\n              tag_319\n              jump\t// in\n            tag_496:\n                /* \"#utility.yul\":20023:20025   */\n              0x40\n                /* \"#utility.yul\":20018:20021   */\n              dup3\n                /* \"#utility.yul\":20014:20026   */\n              add\n                /* \"#utility.yul\":20007:20026   */\n              swap1\n              pop\n                /* \"#utility.yul\":19666:20032   */\n              swap2\n              swap1\n              pop\n              jump\t// out\n                /* \"#utility.yul\":20038:20457   */\n            tag_204:\n                /* \"#utility.yul\":20204:20208   */\n              0x00\n                /* \"#utility.yul\":20242:20244   */\n              0x20\n                /* \"#utility.yul\":20231:20240   */\n              dup3\n                /* \"#utility.yul\":20227:20245   */\n              add\n                /* \"#utility.yul\":20219:20245   */\n              swap1\n              pop\n                /* \"#utility.yul\":20291:20300   */\n              dup2\n                /* \"#utility.yul\":20285:20289   */\n              dup2\n                /* \"#utility.yul\":20281:20301   */\n              sub\n                /* \"#utility.yul\":20277:20278   */\n              0x00\n                /* \"#utility.yul\":20266:20275   */\n              dup4\n                /* \"#utility.yul\":20262:20279   */\n              add\n                /* \"#utility.yul\":20255:20302   */\n              mstore\n                /* \"#utility.yul\":20319:20450   */\n              tag_498\n                /* \"#utility.yul\":20445:20449   */\n              dup2\n                /* \"#utility.yul\":20319:20450   */\n              tag_320\n              jump\t// in\n            tag_498:\n                /* \"#utility.yul\":20311:20450   */\n              swap1\n              pop\n                /* \"#utility.yul\":20038:20457   */\n              swap2\n              swap1\n              pop\n              jump\t// out\n                /* \"#utility.yul\":20463:20638   */\n            tag_321:\n                /* \"#utility.yul\":20603:20630   */\n              0x746865206465706f73697420697320746f6f20736d616c6c2100000000000000\n                /* \"#utility.yul\":20599:20600   */\n              0x00\n                /* \"#utility.yul\":20591:20597   */\n              dup3\n                /* \"#utility.yul\":20587:20601   */\n              add\n                /* \"#utility.yul\":20580:20631   */\n              mstore\n                /* \"#utility.yul\":20463:20638   */\n              pop\n              jump\t// out\n                /* \"#utility.yul\":20644:21010   */\n            tag_322:\n                /* \"#utility.yul\":20786:20789   */\n              0x00\n                /* \"#utility.yul\":20807:20874   */\n              tag_501\n                /* \"#utility.yul\":20871:20873   */\n              0x19\n                /* \"#utility.yul\":20866:20869   */\n              dup4\n                /* \"#utility.yul\":20807:20874   */\n              tag_268\n              jump\t// in\n            tag_501:\n                /* \"#utility.yul\":20800:20874   */\n              swap2\n              pop\n                /* \"#utility.yul\":20883:20976   */\n              tag_502\n                /* \"#utility.yul\":20972:20975   */\n              dup3\n                /* \"#utility.yul\":20883:20976   */\n              tag_321\n              jump\t// in\n            tag_502:\n                /* \"#utility.yul\":21001:21003   */\n              0x20\n                /* \"#utility.yul\":20996:20999   */\n              dup3\n                /* \"#utility.yul\":20992:21004   */\n              add\n                /* \"#utility.yul\":20985:21004   */\n              swap1\n              pop\n                /* \"#utility.yul\":20644:21010   */\n              swap2\n              swap1\n              pop\n              jump\t// out\n                /* \"#utility.yul\":21016:21435   */\n            tag_207:\n                /* \"#utility.yul\":21182:21186   */\n              0x00\n                /* \"#utility.yul\":21220:21222   */\n              0x20\n                /* \"#utility.yul\":21209:21218   */\n              dup3\n                /* \"#utility.yul\":21205:21223   */\n              add\n                /* \"#utility.yul\":21197:21223   */\n              swap1\n              pop\n                /* \"#utility.yul\":21269:21278   */\n              dup2\n                /* \"#utility.yul\":21263:21267   */\n              dup2\n                /* \"#utility.yul\":21259:21279   */\n              sub\n                /* \"#utility.yul\":21255:21256   */\n              0x00\n                /* \"#utility.yul\":21244:21253   */\n              dup4\n                /* \"#utility.yul\":21240:21257   */\n              add\n                /* \"#utility.yul\":21233:21280   */\n              mstore\n                /* \"#utility.yul\":21297:21428   */\n              tag_504\n                /* \"#utility.yul\":21423:21427   */\n              dup2\n                /* \"#utility.yul\":21297:21428   */\n              tag_322\n              jump\t// in\n            tag_504:\n                /* \"#utility.yul\":21289:21428   */\n              swap1\n              pop\n                /* \"#utility.yul\":21016:21435   */\n              swap2\n              swap1\n              pop\n              jump\t// out\n                /* \"#utility.yul\":21441:21621   */\n            tag_214:\n                /* \"#utility.yul\":21489:21566   */\n              0x4e487b7100000000000000000000000000000000000000000000000000000000\n                /* \"#utility.yul\":21486:21487   */\n              0x00\n                /* \"#utility.yul\":21479:21567   */\n              mstore\n                /* \"#utility.yul\":21586:21590   */\n              0x32\n                /* \"#utility.yul\":21583:21584   */\n              0x04\n                /* \"#utility.yul\":21576:21591   */\n              mstore\n                /* \"#utility.yul\":21610:21614   */\n              0x24\n                /* \"#utility.yul\":21607:21608   */\n              0x00\n                /* \"#utility.yul\":21600:21615   */\n              revert\n                /* \"#utility.yul\":21627:21860   */\n            tag_247:\n                /* \"#utility.yul\":21666:21669   */\n              0x00\n                /* \"#utility.yul\":21689:21713   */\n              tag_507\n                /* \"#utility.yul\":21707:21712   */\n              dup3\n                /* \"#utility.yul\":21689:21713   */\n              tag_285\n              jump\t// in\n            tag_507:\n                /* \"#utility.yul\":21680:21713   */\n              swap2\n              pop\n                /* \"#utility.yul\":21735:21801   */\n              0xffffffffffffffffffffffffffffffffffffffffffffffffffffffffffffffff\n                /* \"#utility.yul\":21728:21733   */\n              dup3\n                /* \"#utility.yul\":21725:21802   */\n              sub\n                /* \"#utility.yul\":21722:21825   */\n              tag_508\n              jumpi\n                /* \"#utility.yul\":21805:21823   */\n              tag_509\n              tag_300\n              jump\t// in\n            tag_509:\n                /* \"#utility.yul\":21722:21825   */\n            tag_508:\n                /* \"#utility.yul\":21852:21853   */\n              0x01\n                /* \"#utility.yul\":21845:21850   */\n              dup3\n                /* \"#utility.yul\":21841:21854   */\n              add\n                /* \"#utility.yul\":21834:21854   */\n              swap1\n              pop\n                /* \"#utility.yul\":21627:21860   */\n              swap2\n              swap1\n              pop\n              jump\t// out\n                /* \"#utility.yul\":21866:22103   */\n            tag_323:\n                /* \"#utility.yul\":22006:22040   */\n              0x796f7572206465706f736974206973206c657373207468616e20746865206573\n                /* \"#utility.yul\":22002:22003   */\n              0x00\n                /* \"#utility.yul\":21994:22000   */\n              dup3\n                /* \"#utility.yul\":21990:22004   */\n              add\n                /* \"#utility.yul\":21983:22041   */\n              mstore\n                /* \"#utility.yul\":22075:22095   */\n              0x7461626c6973686564206d696e696d756d2e0000000000000000000000000000\n                /* \"#utility.yul\":22070:22072   */\n              0x20\n                /* \"#utility.yul\":22062:22068   */\n              dup3\n                /* \"#utility.yul\":22058:22073   */\n              add\n                /* \"#utility.yul\":22051:22096   */\n              mstore\n                /* \"#utility.yul\":21866:22103   */\n              pop\n              jump\t// out\n                /* \"#utility.yul\":22109:22475   */\n            tag_324:\n                /* \"#utility.yul\":22251:22254   */\n              0x00\n                /* \"#utility.yul\":22272:22339   */\n              tag_512\n                /* \"#utility.yul\":22336:22338   */\n              0x32\n                /* \"#utility.yul\":22331:22334   */\n              dup4\n                /* \"#utility.yul\":22272:22339   */\n              tag_268\n              jump\t// in\n            tag_512:\n                /* \"#utility.yul\":22265:22339   */\n              swap2\n              pop\n                /* \"#utility.yul\":22348:22441   */\n              tag_513\n                /* \"#utility.yul\":22437:22440   */\n              dup3\n                /* \"#utility.yul\":22348:22441   */\n              tag_323\n              jump\t// in\n            tag_513:\n                /* \"#utility.yul\":22466:22468   */\n              0x40\n                /* \"#utility.yul\":22461:22464   */\n              dup3\n                /* \"#utility.yul\":22457:22469   */\n              add\n                /* \"#utility.yul\":22450:22469   */\n              swap1\n              pop\n                /* \"#utility.yul\":22109:22475   */\n              swap2\n              swap1\n              pop\n              jump\t// out\n                /* \"#utility.yul\":22481:22900   */\n            tag_260:\n                /* \"#utility.yul\":22647:22651   */\n              0x00\n                /* \"#utility.yul\":22685:22687   */\n              0x20\n                /* \"#utility.yul\":22674:22683   */\n              dup3\n                /* \"#utility.yul\":22670:22688   */\n              add\n                /* \"#utility.yul\":22662:22688   */\n              swap1\n              pop\n                /* \"#utility.yul\":22734:22743   */\n              dup2\n                /* \"#utility.yul\":22728:22732   */\n              dup2\n                /* \"#utility.yul\":22724:22744   */\n              sub\n                /* \"#utility.yul\":22720:22721   */\n              0x00\n                /* \"#utility.yul\":22709:22718   */\n              dup4\n                /* \"#utility.yul\":22705:22722   */\n              add\n                /* \"#utility.yul\":22698:22745   */\n              mstore\n                /* \"#utility.yul\":22762:22893   */\n              tag_515\n                /* \"#utility.yul\":22888:22892   */\n              dup2\n                /* \"#utility.yul\":22762:22893   */\n              tag_324\n              jump\t// in\n            tag_515:\n                /* \"#utility.yul\":22754:22893   */\n              swap1\n              pop\n                /* \"#utility.yul\":22481:22900   */\n              swap2\n              swap1\n              pop\n              jump\t// out\n\n            auxdata: 0xa26469706673582212209535926a3c15e0046b1204fdd3d21964ca358ae30e47dd1e490bb6473398eb5564736f6c63430008120033\n        }\n    }\n\n    auxdata: 0xa2646970667358221220ea046fe5c44df56652a21f02defdf9b61149e3a90cd42e9a95f7f5165cc3760964736f6c63430008120033\n}\n",
				"bytecode": {
					"linkReferences": {},
					"object": "608060405234801561001057600080fd5b50336000806101000a81548173ffffffffffffffffffffffffffffffffffffffff021916908373ffffffffffffffffffffffffffffffffffffffff160217905550613750806100606000396000f3fe608060405260043610620000615760003560e01c806328799a8e146200006e578063b0e743dd146200009c578063cb7e142e14620000cc578063d2779e0e14620000fa578063d42a6937146200012a578063e78fec6f146200016e5762000069565b366200006957005b600080fd5b3480156200007b57600080fd5b506200009a6004803603810190620000949190620006bc565b620001b4565b005b348015620000a957600080fd5b50620000b4620002d7565b604051620000c39190620007d1565b60405180910390f35b348015620000d957600080fd5b50620000f86004803603810190620000f29190620007f5565b62000331565b005b3480156200010757600080fd5b506200011262000576565b60405162000121919062000862565b60405180910390f35b3480156200013757600080fd5b506200015660048036038101906200015091906200087f565b6200059a565b604051620001659190620008c2565b60405180910390f35b3480156200017b57600080fd5b506200019a60048036038101906200019491906200087f565b620005bf565b604051620001ab93929190620008df565b60405180910390f35b60008054906101000a900473ffffffffffffffffffffffffffffffffffffffff1673ffffffffffffffffffffffffffffffffffffffff163373ffffffffffffffffffffffffffffffffffffffff161462000245576040517f08c379a00000000000000000000000000000000000000000000000000000000081526004016200023c90620009a3565b60405180910390fd5b478111156200028b576040517f08c379a00000000000000000000000000000000000000000000000000000000081526004016200028290620009ef565b60405180910390fd5b8173ffffffffffffffffffffffffffffffffffffffff166108fc829081150290604051600060405180830381858888f19350505050158015620002d2573d6000803e3d6000fd5b505050565b606060018054806020026020016040519081016040528092919081815260200182805480156200032757602002820191906000526020600020905b81548152602001906001019080831162000312575b5050505050905090565b60003373ffffffffffffffffffffffffffffffffffffffff163b146200038e576040517f08c379a0000000000000000000000000000000000000000000000000000000008152600401620003859062000a87565b60405180910390fd5b600073ffffffffffffffffffffffffffffffffffffffff166002600085815260200190815260200160002060000160009054906101000a900473ffffffffffffffffffffffffffffffffffffffff1673ffffffffffffffffffffffffffffffffffffffff161462000436576040517f08c379a00000000000000000000000000000000000000000000000000000000081526004016200042d9062000b1f565b60405180910390fd5b6000838383604051620004499062000609565b620004579392919062000b41565b604051809103906000f08015801562000474573d6000803e3d6000fd5b509050806002600086815260200190815260200160002060000160006101000a81548173ffffffffffffffffffffffffffffffffffffffff021916908373ffffffffffffffffffffffffffffffffffffffff160217905550826002600086815260200190815260200160002060010181905550816002600086815260200190815260200160002060020181905550600184908060018154018082558091505060019003906000526020600020016000909190919091505581838273ffffffffffffffffffffffffffffffffffffffff167fcfd15fff29cdfd88ab78a1a218a5938c91f81a52601ac885e0db2affeb070dcb60405160405180910390a450505050565b60008054906101000a900473ffffffffffffffffffffffffffffffffffffffff1681565b60018181548110620005ab57600080fd5b906000526020600020016000915090505481565b60026020528060005260406000206000915090508060000160009054906101000a900473ffffffffffffffffffffffffffffffffffffffff16908060010154908060020154905083565b612b9c8062000b7f83390190565b600080fd5b600073ffffffffffffffffffffffffffffffffffffffff82169050919050565b600062000649826200061c565b9050919050565b6200065b816200063c565b81146200066757600080fd5b50565b6000813590506200067b8162000650565b92915050565b6000819050919050565b620006968162000681565b8114620006a257600080fd5b50565b600081359050620006b6816200068b565b92915050565b60008060408385031215620006d657620006d562000617565b5b6000620006e6858286016200066a565b9250506020620006f985828601620006a5565b9150509250929050565b600081519050919050565b600082825260208201905092915050565b6000819050602082019050919050565b6200073a8162000681565b82525050565b60006200074e83836200072f565b60208301905092915050565b6000602082019050919050565b6000620007748262000703565b6200078081856200070e565b93506200078d836200071f565b8060005b83811015620007c4578151620007a8888262000740565b9750620007b5836200075a565b92505060018101905062000791565b5085935050505092915050565b60006020820190508181036000830152620007ed818462000767565b905092915050565b60008060006060848603121562000811576200081062000617565b5b60006200082186828701620006a5565b93505060206200083486828701620006a5565b92505060406200084786828701620006a5565b9150509250925092565b6200085c816200063c565b82525050565b600060208201905062000879600083018462000851565b92915050565b60006020828403121562000898576200089762000617565b5b6000620008a884828501620006a5565b91505092915050565b620008bc8162000681565b82525050565b6000602082019050620008d96000830184620008b1565b92915050565b6000606082019050620008f6600083018662000851565b620009056020830185620008b1565b620009146040830184620008b1565b949350505050565b600082825260208201905092915050565b7f5468652066756e6374696f6e2063616e206f6e6c792062652063616c6c65642060008201527f62792074686520666163746f72792063726561746f722e000000000000000000602082015250565b60006200098b6037836200091c565b915062000998826200092d565b604082019050919050565b60006020820190508181036000830152620009be816200097c565b9050919050565b50565b6000620009d76000836200091c565b9150620009e482620009c5565b600082019050919050565b6000602082019050818103600083015262000a0a81620009c8565b9050919050565b7f546865206c616e646c6f72642063616e6e6f74206265206120736d617274206360008201527f6f6e747261637421000000000000000000000000000000000000000000000000602082015250565b600062000a6f6028836200091c565b915062000a7c8262000a11565b604082019050919050565b6000602082019050818103600083015262000aa28162000a60565b9050919050565b7f416e206f626a6563742077697468207468697320696420616c7265616479206560008201527f7869737473210000000000000000000000000000000000000000000000000000602082015250565b600062000b076026836200091c565b915062000b148262000aa9565b604082019050919050565b6000602082019050818103600083015262000b3a8162000af8565b9050919050565b600060608201905062000b586000830186620008b1565b62000b676020830185620008b1565b62000b766040830184620008b1565b94935050505056fe60806040523480156200001157600080fd5b5060405162002b9c38038062002b9c833981810160405281019062000037919062000144565b8260018190555060008060006101000a81548160ff02191690836002811115620000665762000065620001a0565b5b02179055508160058190555033600360006101000a81548173ffffffffffffffffffffffffffffffffffffffff021916908373ffffffffffffffffffffffffffffffffffffffff16021790555032600260006101000a81548173ffffffffffffffffffffffffffffffffffffffff021916908373ffffffffffffffffffffffffffffffffffffffff16021790555080600881905550505050620001cf565b600080fd5b6000819050919050565b6200011e8162000109565b81146200012a57600080fd5b50565b6000815190506200013e8162000113565b92915050565b60008060006060848603121562000160576200015f62000104565b5b600062000170868287016200012d565b935050602062000183868287016200012d565b925050604062000196868287016200012d565b9150509250925092565b7f4e487b7100000000000000000000000000000000000000000000000000000000600052602160045260246000fd5b6129bd80620001df6000396000f3fe60806040526004361061010d5760003560e01c80638f66efe211610095578063c3ab5fb411610064578063c3ab5fb4146103ab578063cb475846146103d6578063daea85c514610401578063dc1997ea1461042a578063ea8a1af01461045557610188565b80638f66efe214610301578063a035b1fe14610318578063ac2169ce14610343578063af640d0f1461038057610188565b806359391ce1116100dc57806359391ce1146102395780635c232ff1146102645780635e5769d1146102a3578063783a112b146102ba5780638da5cb5b146102d657610188565b806303b130091461018d578063200d2ed2146101b85780633cac14c8146101e35780634d5f811e1461020e57610188565b36610188576000600281111561012657610125611daf565b5b60008054906101000a900460ff16600281111561014657610145611daf565b5b14610186576040517f08c379a000000000000000000000000000000000000000000000000000000000815260040161017d90611e3b565b60405180910390fd5b005b600080fd5b34801561019957600080fd5b506101a261046c565b6040516101af9190611e9c565b60405180910390f35b3480156101c457600080fd5b506101cd610492565b6040516101da9190611eff565b60405180910390f35b3480156101ef57600080fd5b506101f86104a3565b6040516102059190611fd8565b60405180910390f35b34801561021a57600080fd5b50610223610531565b6040516102309190612013565b60405180910390f35b34801561024557600080fd5b5061024e610537565b60405161025b9190612013565b60405180910390f35b34801561027057600080fd5b5061028b6004803603810190610286919061205f565b61053d565b60405161029a939291906120a7565b60405180910390f35b3480156102af57600080fd5b506102b8610574565b005b6102d460048036038101906102cf919061210a565b610933565b005b3480156102e257600080fd5b506102eb610d24565b6040516102f89190611e9c565b60405180910390f35b34801561030d57600080fd5b50610316610d4a565b005b34801561032457600080fd5b5061032d61113f565b60405161033a9190612013565b60405180910390f35b34801561034f57600080fd5b5061036a6004803603810190610365919061214a565b611145565b6040516103779190611e9c565b60405180910390f35b34801561038c57600080fd5b50610395611184565b6040516103a29190612013565b60405180910390f35b3480156103b757600080fd5b506103c061118a565b6040516103cd9190612013565b60405180910390f35b3480156103e257600080fd5b506103eb611190565b6040516103f89190612013565b60405180910390f35b34801561040d57600080fd5b506104286004803603810190610423919061205f565b611195565b005b34801561043657600080fd5b5061043f611ae9565b60405161044c9190611e9c565b60405180910390f35b34801561046157600080fd5b5061046a611b0f565b005b600760009054906101000a900473ffffffffffffffffffffffffffffffffffffffff1681565b60008054906101000a900460ff1681565b6060600980548060200260200160405190810160405280929190818152602001828054801561052757602002820191906000526020600020905b8160009054906101000a900473ffffffffffffffffffffffffffffffffffffffff1673ffffffffffffffffffffffffffffffffffffffff16815260200190600101908083116104dd575b5050505050905090565b60085481565b60065481565b600a6020528060005260406000206000915090508060000154908060010154908060020160009054906101000a900460ff16905083565b600760009054906101000a900473ffffffffffffffffffffffffffffffffffffffff1673ffffffffffffffffffffffffffffffffffffffff163373ffffffffffffffffffffffffffffffffffffffff16148015610624575060011515600a60003373ffffffffffffffffffffffffffffffffffffffff1673ffffffffffffffffffffffffffffffffffffffff16815260200190815260200160002060020160009054906101000a900460ff161515145b610663576040517f08c379a000000000000000000000000000000000000000000000000000000000815260040161065a906121e9565b60405180910390fd5b600454600a60003373ffffffffffffffffffffffffffffffffffffffff1673ffffffffffffffffffffffffffffffffffffffff1681526020019081526020016000206001015410156106ea576040517f08c379a00000000000000000000000000000000000000000000000000000000081526004016106e19061227b565b60405180910390fd5b62278d00600660008282546106ff91906122ca565b9250508190555060006064600160045461071991906122fe565b610723919061236f565b90508060045461073391906122ca565b600a60003373ffffffffffffffffffffffffffffffffffffffff1673ffffffffffffffffffffffffffffffffffffffff168152602001908152602001600020600101600082825461078491906123a0565b92505081905550600260009054906101000a900473ffffffffffffffffffffffffffffffffffffffff1673ffffffffffffffffffffffffffffffffffffffff166108fc6004549081150290604051600060405180830381858888f193505050501580156107f5573d6000803e3d6000fd5b506000600360009054906101000a900473ffffffffffffffffffffffffffffffffffffffff1673ffffffffffffffffffffffffffffffffffffffff168260405161083e90612405565b60006040518083038185875af1925050503d806000811461087b576040519150601f19603f3d011682016040523d82523d6000602084013e610880565b606091505b50509050806108c4576040517f08c379a00000000000000000000000000000000000000000000000000000000081526004016108bb90612466565b60405180910390fd5b600454600654600760009054906101000a900473ffffffffffffffffffffffffffffffffffffffff1673ffffffffffffffffffffffffffffffffffffffff167fde83f3c4f0b30046f8683e0ab405e3eed1038c49bca68b6777831e0f17e2257e60405160405180910390a45050565b6000600281111561094757610946611daf565b5b60008054906101000a900460ff16600281111561096757610966611daf565b5b146109a7576040517f08c379a000000000000000000000000000000000000000000000000000000000815260040161099e90611e3b565b60405180910390fd5b3481146109e9576040517f08c379a00000000000000000000000000000000000000000000000000000000081526004016109e0906124f8565b60405180910390fd5b600554600a60003373ffffffffffffffffffffffffffffffffffffffff1673ffffffffffffffffffffffffffffffffffffffff16815260200190815260200160002060000154101580610a3e57506005548210155b610a7d576040517f08c379a0000000000000000000000000000000000000000000000000000000008152600401610a749061258a565b60405180910390fd5b600854600a60003373ffffffffffffffffffffffffffffffffffffffff1673ffffffffffffffffffffffffffffffffffffffff16815260200190815260200160002060010154101580610ad257506008548110155b610b11576040517f08c379a0000000000000000000000000000000000000000000000000000000008152600401610b089061261c565b60405180910390fd5b6009339080600181540180825580915050600190039060005260206000200160009091909190916101000a81548173ffffffffffffffffffffffffffffffffffffffff021916908373ffffffffffffffffffffffffffffffffffffffff160217905550600082600a60003373ffffffffffffffffffffffffffffffffffffffff1673ffffffffffffffffffffffffffffffffffffffff1681526020019081526020016000206000016000828254610bc891906122ca565b9250508190559050600082600a60003373ffffffffffffffffffffffffffffffffffffffff1673ffffffffffffffffffffffffffffffffffffffff1681526020019081526020016000206001016000828254610c2491906122ca565b925050819055905060003073ffffffffffffffffffffffffffffffffffffffff1634604051610c5290612405565b60006040518083038185875af1925050503d8060008114610c8f576040519150601f19603f3d011682016040523d82523d6000602084013e610c94565b606091505b5050905080610cd8576040517f08c379a0000000000000000000000000000000000000000000000000000000008152600401610ccf90612466565b60405180910390fd5b81833373ffffffffffffffffffffffffffffffffffffffff167faacc919b33556c4a2808ab4316fd9ade1d6cbd2e0c690ddbc11734e900c4ebe560405160405180910390a45050505050565b600360009054906101000a900473ffffffffffffffffffffffffffffffffffffffff1681565b600760009054906101000a900473ffffffffffffffffffffffffffffffffffffffff1673ffffffffffffffffffffffffffffffffffffffff163373ffffffffffffffffffffffffffffffffffffffff16148015610dfa575060011515600a60003373ffffffffffffffffffffffffffffffffffffffff1673ffffffffffffffffffffffffffffffffffffffff16815260200190815260200160002060020160009054906101000a900460ff161515145b610e39576040517f08c379a0000000000000000000000000000000000000000000000000000000008152600401610e30906121e9565b60405180910390fd5b6000600a60003373ffffffffffffffffffffffffffffffffffffffff1673ffffffffffffffffffffffffffffffffffffffff1681526020019081526020016000206001015411610ebe576040517f08c379a0000000000000000000000000000000000000000000000000000000008152600401610eb590612688565b60405180910390fd5b6000600a60003373ffffffffffffffffffffffffffffffffffffffff1673ffffffffffffffffffffffffffffffffffffffff16815260200190815260200160002060010154905047811115610f48576040517f08c379a0000000000000000000000000000000000000000000000000000000008152600401610f3f906126f4565b60405180910390fd5b6000600a60003373ffffffffffffffffffffffffffffffffffffffff1673ffffffffffffffffffffffffffffffffffffffff168152602001908152602001600020600101819055506000600a60003373ffffffffffffffffffffffffffffffffffffffff1673ffffffffffffffffffffffffffffffffffffffff168152602001908152602001600020600001819055506000600a60003373ffffffffffffffffffffffffffffffffffffffff1673ffffffffffffffffffffffffffffffffffffffff16815260200190815260200160002060020160006101000a81548160ff0219169083151502179055506000600760006101000a81548173ffffffffffffffffffffffffffffffffffffffff021916908373ffffffffffffffffffffffffffffffffffffffff1602179055506000600681905550600060048190555060008060006101000a81548160ff021916908360028111156110aa576110a9611daf565b5b02179055503373ffffffffffffffffffffffffffffffffffffffff166108fc829081150290604051600060405180830381858888f193505050501580156110f5573d6000803e3d6000fd5b506000813373ffffffffffffffffffffffffffffffffffffffff167f0d42c544626f700952f5443e6492f095da0d472b7fb1e9daf9a722eb8feb071860405160405180910390a450565b60045481565b6009818154811061115557600080fd5b906000526020600020016000915054906101000a900473ffffffffffffffffffffffffffffffffffffffff1681565b60015481565b60055481565b600181565b3373ffffffffffffffffffffffffffffffffffffffff16600260009054906101000a900473ffffffffffffffffffffffffffffffffffffffff1673ffffffffffffffffffffffffffffffffffffffff1614611225576040517f08c379a000000000000000000000000000000000000000000000000000000000815260040161121c90612760565b60405180910390fd5b6000600281111561123957611238611daf565b5b60008054906101000a900460ff16600281111561125957611258611daf565b5b14611299576040517f08c379a000000000000000000000000000000000000000000000000000000000815260040161129090611e3b565b60405180910390fd5b8073ffffffffffffffffffffffffffffffffffffffff163373ffffffffffffffffffffffffffffffffffffffff16141580156113025750600073ffffffffffffffffffffffffffffffffffffffff168173ffffffffffffffffffffffffffffffffffffffff1614155b611341576040517f08c379a0000000000000000000000000000000000000000000000000000000008152600401611338906127f2565b60405180910390fd5b600854600a60008373ffffffffffffffffffffffffffffffffffffffff1673ffffffffffffffffffffffffffffffffffffffff1681526020019081526020016000206001015410156113c8576040517f08c379a00000000000000000000000000000000000000000000000000000000081526004016113bf9061285e565b60405180910390fd5b80600760006101000a81548173ffffffffffffffffffffffffffffffffffffffff021916908373ffffffffffffffffffffffffffffffffffffffff16021790555062278d004261141891906122ca565b600681905550600a6000600760009054906101000a900473ffffffffffffffffffffffffffffffffffffffff1673ffffffffffffffffffffffffffffffffffffffff1673ffffffffffffffffffffffffffffffffffffffff1681526020019081526020016000206000015460048190555060005b600980549050811015611ad757600760009054906101000a900473ffffffffffffffffffffffffffffffffffffffff1673ffffffffffffffffffffffffffffffffffffffff16600982815481106114e6576114e561287e565b5b9060005260206000200160009054906101000a900473ffffffffffffffffffffffffffffffffffffffff1673ffffffffffffffffffffffffffffffffffffffff1614611813576000600982815481106115425761154161287e565b5b9060005260206000200160009054906101000a900473ffffffffffffffffffffffffffffffffffffffff169050600060646001600a60008773ffffffffffffffffffffffffffffffffffffffff1673ffffffffffffffffffffffffffffffffffffffff168152602001908152602001600020600101546115c291906122fe565b6115cc919061236f565b9050600081600a60008573ffffffffffffffffffffffffffffffffffffffff1673ffffffffffffffffffffffffffffffffffffffff1681526020019081526020016000206001015461161e91906123a0565b90506000600a60008573ffffffffffffffffffffffffffffffffffffffff1673ffffffffffffffffffffffffffffffffffffffff168152602001908152602001600020600101819055506000600a60008573ffffffffffffffffffffffffffffffffffffffff1673ffffffffffffffffffffffffffffffffffffffff168152602001908152602001600020600001819055508273ffffffffffffffffffffffffffffffffffffffff166108fc829081150290604051600060405180830381858888f193505050501580156116f6573d6000803e3d6000fd5b506000600360009054906101000a900473ffffffffffffffffffffffffffffffffffffffff1673ffffffffffffffffffffffffffffffffffffffff168360405161173f90612405565b60006040518083038185875af1925050503d806000811461177c576040519150601f19603f3d011682016040523d82523d6000602084013e611781565b606091505b50509050806117c5576040517f08c379a00000000000000000000000000000000000000000000000000000000081526004016117bc90612466565b60405180910390fd5b82828573ffffffffffffffffffffffffffffffffffffffff167f0d42c544626f700952f5443e6492f095da0d472b7fb1e9daf9a722eb8feb071860405160405180910390a450505050611ac4565b60006064600160045461182691906122fe565b611830919061236f565b90508060045461184091906122ca565b600a60008573ffffffffffffffffffffffffffffffffffffffff1673ffffffffffffffffffffffffffffffffffffffff168152602001908152602001600020600101600082825461189191906123a0565b9250508190555060016000806101000a81548160ff021916908360028111156118bd576118bc611daf565b5b02179055506001600a60008573ffffffffffffffffffffffffffffffffffffffff1673ffffffffffffffffffffffffffffffffffffffff16815260200190815260200160002060020160006101000a81548160ff021916908315150217905550600260009054906101000a900473ffffffffffffffffffffffffffffffffffffffff1673ffffffffffffffffffffffffffffffffffffffff166108fc6004549081150290604051600060405180830381858888f19350505050158015611987573d6000803e3d6000fd5b506000600360009054906101000a900473ffffffffffffffffffffffffffffffffffffffff1673ffffffffffffffffffffffffffffffffffffffff16826040516119d090612405565b60006040518083038185875af1925050503d8060008114611a0d576040519150601f19603f3d011682016040523d82523d6000602084013e611a12565b606091505b5050905080611a56576040517f08c379a0000000000000000000000000000000000000000000000000000000008152600401611a4d90612466565b60405180910390fd5b600454600654600760009054906101000a900473ffffffffffffffffffffffffffffffffffffffff1673ffffffffffffffffffffffffffffffffffffffff167fde83f3c4f0b30046f8683e0ab405e3eed1038c49bca68b6777831e0f17e2257e60405160405180910390a450505b8080611acf906128ad565b91505061148c565b5060096000611ae69190611d71565b50565b600260009054906101000a900473ffffffffffffffffffffffffffffffffffffffff1681565b60006002811115611b2357611b22611daf565b5b60008054906101000a900460ff166002811115611b4357611b42611daf565b5b14611b83576040517f08c379a0000000000000000000000000000000000000000000000000000000008152600401611b7a90611e3b565b60405180910390fd5b600854600a60003373ffffffffffffffffffffffffffffffffffffffff1673ffffffffffffffffffffffffffffffffffffffff168152602001908152602001600020600101541015611c0a576040517f08c379a0000000000000000000000000000000000000000000000000000000008152600401611c0190612967565b60405180910390fd5b6000600a60003373ffffffffffffffffffffffffffffffffffffffff1673ffffffffffffffffffffffffffffffffffffffff1681526020019081526020016000206001015490506000600a60003373ffffffffffffffffffffffffffffffffffffffff1673ffffffffffffffffffffffffffffffffffffffff168152602001908152602001600020600101819055506000600a60003373ffffffffffffffffffffffffffffffffffffffff1673ffffffffffffffffffffffffffffffffffffffff168152602001908152602001600020600001819055503373ffffffffffffffffffffffffffffffffffffffff166108fc829081150290604051600060405180830381858888f19350505050158015611d27573d6000803e3d6000fd5b506000813373ffffffffffffffffffffffffffffffffffffffff167f0d42c544626f700952f5443e6492f095da0d472b7fb1e9daf9a722eb8feb071860405160405180910390a450565b5080546000825590600052602060002090810190611d8f9190611d92565b50565b5b80821115611dab576000816000905550600101611d93565b5090565b7f4e487b7100000000000000000000000000000000000000000000000000000000600052602160045260246000fd5b600082825260208201905092915050565b7f5468652061706172746d656e7420697320616c726561647920626f6f6b65642e600082015250565b6000611e25602083611dde565b9150611e3082611def565b602082019050919050565b60006020820190508181036000830152611e5481611e18565b9050919050565b600073ffffffffffffffffffffffffffffffffffffffff82169050919050565b6000611e8682611e5b565b9050919050565b611e9681611e7b565b82525050565b6000602082019050611eb16000830184611e8d565b92915050565b60038110611ec857611ec7611daf565b5b50565b6000819050611ed982611eb7565b919050565b6000611ee982611ecb565b9050919050565b611ef981611ede565b82525050565b6000602082019050611f146000830184611ef0565b92915050565b600081519050919050565b600082825260208201905092915050565b6000819050602082019050919050565b611f4f81611e7b565b82525050565b6000611f618383611f46565b60208301905092915050565b6000602082019050919050565b6000611f8582611f1a565b611f8f8185611f25565b9350611f9a83611f36565b8060005b83811015611fcb578151611fb28882611f55565b9750611fbd83611f6d565b925050600181019050611f9e565b5085935050505092915050565b60006020820190508181036000830152611ff28184611f7a565b905092915050565b6000819050919050565b61200d81611ffa565b82525050565b60006020820190506120286000830184612004565b92915050565b600080fd5b61203c81611e7b565b811461204757600080fd5b50565b60008135905061205981612033565b92915050565b6000602082840312156120755761207461202e565b5b60006120838482850161204a565b91505092915050565b60008115159050919050565b6120a18161208c565b82525050565b60006060820190506120bc6000830186612004565b6120c96020830185612004565b6120d66040830184612098565b949350505050565b6120e781611ffa565b81146120f257600080fd5b50565b600081359050612104816120de565b92915050565b600080604083850312156121215761212061202e565b5b600061212f858286016120f5565b9250506020612140858286016120f5565b9150509250929050565b6000602082840312156121605761215f61202e565b5b600061216e848285016120f5565b91505092915050565b7f6f6e6c79207468652063757272656e742074656e616e742063616e2063616c6c60008201527f207468652066756e6374696f6e2e000000000000000000000000000000000000602082015250565b60006121d3602e83611dde565b91506121de82612177565b604082019050919050565b60006020820190508181036000830152612202816121c6565b9050919050565b7f7468657265206973206e6f7420656e6f756768206465706f73697420666f722060008201527f746865206e6578742072656e74616c2e00000000000000000000000000000000602082015250565b6000612265603083611dde565b915061227082612209565b604082019050919050565b6000602082019050818103600083015261229481612258565b9050919050565b7f4e487b7100000000000000000000000000000000000000000000000000000000600052601160045260246000fd5b60006122d582611ffa565b91506122e083611ffa565b92508282019050808211156122f8576122f761229b565b5b92915050565b600061230982611ffa565b915061231483611ffa565b925082820261232281611ffa565b915082820484148315176123395761233861229b565b5b5092915050565b7f4e487b7100000000000000000000000000000000000000000000000000000000600052601260045260246000fd5b600061237a82611ffa565b915061238583611ffa565b92508261239557612394612340565b5b828204905092915050565b60006123ab82611ffa565b91506123b683611ffa565b92508282039050818111156123ce576123cd61229b565b5b92915050565b600081905092915050565b50565b60006123ef6000836123d4565b91506123fa826123df565b600082019050919050565b6000612410826123e2565b9150819050919050565b7f4661696c65642100000000000000000000000000000000000000000000000000600082015250565b6000612450600783611dde565b915061245b8261241a565b602082019050919050565b6000602082019050818103600083015261247f81612443565b9050919050565b7f596f75206861766520656e7465726564207468652077726f6e67206465706f7360008201527f697420616d6f756e742e00000000000000000000000000000000000000000000602082015250565b60006124e2602a83611dde565b91506124ed82612486565b604082019050919050565b60006020820190508181036000830152612511816124d5565b9050919050565b7f596f7572207072696365206d75737420626520686967686572206f722065717560008201527f616c20746f20746865206d696e696d756d2070726963652e0000000000000000602082015250565b6000612574603883611dde565b915061257f82612518565b604082019050919050565b600060208201905081810360008301526125a381612567565b9050919050565b7f596f7572206465706f736974206d7573742062652061626f7665206f7220657160008201527f75616c20746f20746865206d696e696d756d206465706f7369742e0000000000602082015250565b6000612606603b83611dde565b9150612611826125aa565b604082019050919050565b60006020820190508181036000830152612635816125f9565b9050919050565b7f796f75722062616c616e6365206973207a65726f210000000000000000000000600082015250565b6000612672601583611dde565b915061267d8261263c565b602082019050919050565b600060208201905081810360008301526126a181612665565b9050919050565b7f62616c616e636520636f6e7472616374206c6974746c65206465706f73697400600082015250565b60006126de601f83611dde565b91506126e9826126a8565b602082019050919050565b6000602082019050818103600083015261270d816126d1565b9050919050565b7f43616e206f6e6c792065786563757465206c616e646c6f72642e000000000000600082015250565b600061274a601a83611dde565b915061275582612714565b602082019050919050565b600060208201905081810360008301526127798161273d565b9050919050565b7f796f752063616e27742072656e74206120706c61636520627920796f7572736560008201527f6c66210000000000000000000000000000000000000000000000000000000000602082015250565b60006127dc602383611dde565b91506127e782612780565b604082019050919050565b6000602082019050818103600083015261280b816127cf565b9050919050565b7f746865206465706f73697420697320746f6f20736d616c6c2100000000000000600082015250565b6000612848601983611dde565b915061285382612812565b602082019050919050565b600060208201905081810360008301526128778161283b565b9050919050565b7f4e487b7100000000000000000000000000000000000000000000000000000000600052603260045260246000fd5b60006128b882611ffa565b91507fffffffffffffffffffffffffffffffffffffffffffffffffffffffffffffffff82036128ea576128e961229b565b5b600182019050919050565b7f796f7572206465706f736974206973206c657373207468616e2074686520657360008201527f7461626c6973686564206d696e696d756d2e0000000000000000000000000000602082015250565b6000612951603283611dde565b915061295c826128f5565b604082019050919050565b6000602082019050818103600083015261298081612944565b905091905056fea26469706673582212209535926a3c15e0046b1204fdd3d21964ca358ae30e47dd1e490bb6473398eb5564736f6c63430008120033a2646970667358221220ea046fe5c44df56652a21f02defdf9b61149e3a90cd42e9a95f7f5165cc3760964736f6c63430008120033",
					"opcodes": "PUSH1 0x80 PUSH1 0x40 MSTORE CALLVALUE DUP1 ISZERO PUSH2 0x10 JUMPI PUSH1 0x0 DUP1 REVERT JUMPDEST POP CALLER PUSH1 0x0 DUP1 PUSH2 0x100 EXP DUP2 SLOAD DUP2 PUSH20 0xFFFFFFFFFFFFFFFFFFFFFFFFFFFFFFFFFFFFFFFF MUL NOT AND SWAP1 DUP4 PUSH20 0xFFFFFFFFFFFFFFFFFFFFFFFFFFFFFFFFFFFFFFFF AND MUL OR SWAP1 SSTORE POP PUSH2 0x3750 DUP1 PUSH2 0x60 PUSH1 0x0 CODECOPY PUSH1 0x0 RETURN INVALID PUSH1 0x80 PUSH1 0x40 MSTORE PUSH1 0x4 CALLDATASIZE LT PUSH3 0x61 JUMPI PUSH1 0x0 CALLDATALOAD PUSH1 0xE0 SHR DUP1 PUSH4 0x28799A8E EQ PUSH3 0x6E JUMPI DUP1 PUSH4 0xB0E743DD EQ PUSH3 0x9C JUMPI DUP1 PUSH4 0xCB7E142E EQ PUSH3 0xCC JUMPI DUP1 PUSH4 0xD2779E0E EQ PUSH3 0xFA JUMPI DUP1 PUSH4 0xD42A6937 EQ PUSH3 0x12A JUMPI DUP1 PUSH4 0xE78FEC6F EQ PUSH3 0x16E JUMPI PUSH3 0x69 JUMP JUMPDEST CALLDATASIZE PUSH3 0x69 JUMPI STOP JUMPDEST PUSH1 0x0 DUP1 REVERT JUMPDEST CALLVALUE DUP1 ISZERO PUSH3 0x7B JUMPI PUSH1 0x0 DUP1 REVERT JUMPDEST POP PUSH3 0x9A PUSH1 0x4 DUP1 CALLDATASIZE SUB DUP2 ADD SWAP1 PUSH3 0x94 SWAP2 SWAP1 PUSH3 0x6BC JUMP JUMPDEST PUSH3 0x1B4 JUMP JUMPDEST STOP JUMPDEST CALLVALUE DUP1 ISZERO PUSH3 0xA9 JUMPI PUSH1 0x0 DUP1 REVERT JUMPDEST POP PUSH3 0xB4 PUSH3 0x2D7 JUMP JUMPDEST PUSH1 0x40 MLOAD PUSH3 0xC3 SWAP2 SWAP1 PUSH3 0x7D1 JUMP JUMPDEST PUSH1 0x40 MLOAD DUP1 SWAP2 SUB SWAP1 RETURN JUMPDEST CALLVALUE DUP1 ISZERO PUSH3 0xD9 JUMPI PUSH1 0x0 DUP1 REVERT JUMPDEST POP PUSH3 0xF8 PUSH1 0x4 DUP1 CALLDATASIZE SUB DUP2 ADD SWAP1 PUSH3 0xF2 SWAP2 SWAP1 PUSH3 0x7F5 JUMP JUMPDEST PUSH3 0x331 JUMP JUMPDEST STOP JUMPDEST CALLVALUE DUP1 ISZERO PUSH3 0x107 JUMPI PUSH1 0x0 DUP1 REVERT JUMPDEST POP PUSH3 0x112 PUSH3 0x576 JUMP JUMPDEST PUSH1 0x40 MLOAD PUSH3 0x121 SWAP2 SWAP1 PUSH3 0x862 JUMP JUMPDEST PUSH1 0x40 MLOAD DUP1 SWAP2 SUB SWAP1 RETURN JUMPDEST CALLVALUE DUP1 ISZERO PUSH3 0x137 JUMPI PUSH1 0x0 DUP1 REVERT JUMPDEST POP PUSH3 0x156 PUSH1 0x4 DUP1 CALLDATASIZE SUB DUP2 ADD SWAP1 PUSH3 0x150 SWAP2 SWAP1 PUSH3 0x87F JUMP JUMPDEST PUSH3 0x59A JUMP JUMPDEST PUSH1 0x40 MLOAD PUSH3 0x165 SWAP2 SWAP1 PUSH3 0x8C2 JUMP JUMPDEST PUSH1 0x40 MLOAD DUP1 SWAP2 SUB SWAP1 RETURN JUMPDEST CALLVALUE DUP1 ISZERO PUSH3 0x17B JUMPI PUSH1 0x0 DUP1 REVERT JUMPDEST POP PUSH3 0x19A PUSH1 0x4 DUP1 CALLDATASIZE SUB DUP2 ADD SWAP1 PUSH3 0x194 SWAP2 SWAP1 PUSH3 0x87F JUMP JUMPDEST PUSH3 0x5BF JUMP JUMPDEST PUSH1 0x40 MLOAD PUSH3 0x1AB SWAP4 SWAP3 SWAP2 SWAP1 PUSH3 0x8DF JUMP JUMPDEST PUSH1 0x40 MLOAD DUP1 SWAP2 SUB SWAP1 RETURN JUMPDEST PUSH1 0x0 DUP1 SLOAD SWAP1 PUSH2 0x100 EXP SWAP1 DIV PUSH20 0xFFFFFFFFFFFFFFFFFFFFFFFFFFFFFFFFFFFFFFFF AND PUSH20 0xFFFFFFFFFFFFFFFFFFFFFFFFFFFFFFFFFFFFFFFF AND CALLER PUSH20 0xFFFFFFFFFFFFFFFFFFFFFFFFFFFFFFFFFFFFFFFF AND EQ PUSH3 0x245 JUMPI PUSH1 0x40 MLOAD PUSH32 0x8C379A000000000000000000000000000000000000000000000000000000000 DUP2 MSTORE PUSH1 0x4 ADD PUSH3 0x23C SWAP1 PUSH3 0x9A3 JUMP JUMPDEST PUSH1 0x40 MLOAD DUP1 SWAP2 SUB SWAP1 REVERT JUMPDEST SELFBALANCE DUP2 GT ISZERO PUSH3 0x28B JUMPI PUSH1 0x40 MLOAD PUSH32 0x8C379A000000000000000000000000000000000000000000000000000000000 DUP2 MSTORE PUSH1 0x4 ADD PUSH3 0x282 SWAP1 PUSH3 0x9EF JUMP JUMPDEST PUSH1 0x40 MLOAD DUP1 SWAP2 SUB SWAP1 REVERT JUMPDEST DUP2 PUSH20 0xFFFFFFFFFFFFFFFFFFFFFFFFFFFFFFFFFFFFFFFF AND PUSH2 0x8FC DUP3 SWAP1 DUP2 ISZERO MUL SWAP1 PUSH1 0x40 MLOAD PUSH1 0x0 PUSH1 0x40 MLOAD DUP1 DUP4 SUB DUP2 DUP6 DUP9 DUP9 CALL SWAP4 POP POP POP POP ISZERO DUP1 ISZERO PUSH3 0x2D2 JUMPI RETURNDATASIZE PUSH1 0x0 DUP1 RETURNDATACOPY RETURNDATASIZE PUSH1 0x0 REVERT JUMPDEST POP POP POP JUMP JUMPDEST PUSH1 0x60 PUSH1 0x1 DUP1 SLOAD DUP1 PUSH1 0x20 MUL PUSH1 0x20 ADD PUSH1 0x40 MLOAD SWAP1 DUP2 ADD PUSH1 0x40 MSTORE DUP1 SWAP3 SWAP2 SWAP1 DUP2 DUP2 MSTORE PUSH1 0x20 ADD DUP3 DUP1 SLOAD DUP1 ISZERO PUSH3 0x327 JUMPI PUSH1 0x20 MUL DUP3 ADD SWAP2 SWAP1 PUSH1 0x0 MSTORE PUSH1 0x20 PUSH1 0x0 KECCAK256 SWAP1 JUMPDEST DUP2 SLOAD DUP2 MSTORE PUSH1 0x20 ADD SWAP1 PUSH1 0x1 ADD SWAP1 DUP1 DUP4 GT PUSH3 0x312 JUMPI JUMPDEST POP POP POP POP POP SWAP1 POP SWAP1 JUMP JUMPDEST PUSH1 0x0 CALLER PUSH20 0xFFFFFFFFFFFFFFFFFFFFFFFFFFFFFFFFFFFFFFFF AND EXTCODESIZE EQ PUSH3 0x38E JUMPI PUSH1 0x40 MLOAD PUSH32 0x8C379A000000000000000000000000000000000000000000000000000000000 DUP2 MSTORE PUSH1 0x4 ADD PUSH3 0x385 SWAP1 PUSH3 0xA87 JUMP JUMPDEST PUSH1 0x40 MLOAD DUP1 SWAP2 SUB SWAP1 REVERT JUMPDEST PUSH1 0x0 PUSH20 0xFFFFFFFFFFFFFFFFFFFFFFFFFFFFFFFFFFFFFFFF AND PUSH1 0x2 PUSH1 0x0 DUP6 DUP2 MSTORE PUSH1 0x20 ADD SWAP1 DUP2 MSTORE PUSH1 0x20 ADD PUSH1 0x0 KECCAK256 PUSH1 0x0 ADD PUSH1 0x0 SWAP1 SLOAD SWAP1 PUSH2 0x100 EXP SWAP1 DIV PUSH20 0xFFFFFFFFFFFFFFFFFFFFFFFFFFFFFFFFFFFFFFFF AND PUSH20 0xFFFFFFFFFFFFFFFFFFFFFFFFFFFFFFFFFFFFFFFF AND EQ PUSH3 0x436 JUMPI PUSH1 0x40 MLOAD PUSH32 0x8C379A000000000000000000000000000000000000000000000000000000000 DUP2 MSTORE PUSH1 0x4 ADD PUSH3 0x42D SWAP1 PUSH3 0xB1F JUMP JUMPDEST PUSH1 0x40 MLOAD DUP1 SWAP2 SUB SWAP1 REVERT JUMPDEST PUSH1 0x0 DUP4 DUP4 DUP4 PUSH1 0x40 MLOAD PUSH3 0x449 SWAP1 PUSH3 0x609 JUMP JUMPDEST PUSH3 0x457 SWAP4 SWAP3 SWAP2 SWAP1 PUSH3 0xB41 JUMP JUMPDEST PUSH1 0x40 MLOAD DUP1 SWAP2 SUB SWAP1 PUSH1 0x0 CREATE DUP1 ISZERO DUP1 ISZERO PUSH3 0x474 JUMPI RETURNDATASIZE PUSH1 0x0 DUP1 RETURNDATACOPY RETURNDATASIZE PUSH1 0x0 REVERT JUMPDEST POP SWAP1 POP DUP1 PUSH1 0x2 PUSH1 0x0 DUP7 DUP2 MSTORE PUSH1 0x20 ADD SWAP1 DUP2 MSTORE PUSH1 0x20 ADD PUSH1 0x0 KECCAK256 PUSH1 0x0 ADD PUSH1 0x0 PUSH2 0x100 EXP DUP2 SLOAD DUP2 PUSH20 0xFFFFFFFFFFFFFFFFFFFFFFFFFFFFFFFFFFFFFFFF MUL NOT AND SWAP1 DUP4 PUSH20 0xFFFFFFFFFFFFFFFFFFFFFFFFFFFFFFFFFFFFFFFF AND MUL OR SWAP1 SSTORE POP DUP3 PUSH1 0x2 PUSH1 0x0 DUP7 DUP2 MSTORE PUSH1 0x20 ADD SWAP1 DUP2 MSTORE PUSH1 0x20 ADD PUSH1 0x0 KECCAK256 PUSH1 0x1 ADD DUP2 SWAP1 SSTORE POP DUP2 PUSH1 0x2 PUSH1 0x0 DUP7 DUP2 MSTORE PUSH1 0x20 ADD SWAP1 DUP2 MSTORE PUSH1 0x20 ADD PUSH1 0x0 KECCAK256 PUSH1 0x2 ADD DUP2 SWAP1 SSTORE POP PUSH1 0x1 DUP5 SWAP1 DUP1 PUSH1 0x1 DUP2 SLOAD ADD DUP1 DUP3 SSTORE DUP1 SWAP2 POP POP PUSH1 0x1 SWAP1 SUB SWAP1 PUSH1 0x0 MSTORE PUSH1 0x20 PUSH1 0x0 KECCAK256 ADD PUSH1 0x0 SWAP1 SWAP2 SWAP1 SWAP2 SWAP1 SWAP2 POP SSTORE DUP2 DUP4 DUP3 PUSH20 0xFFFFFFFFFFFFFFFFFFFFFFFFFFFFFFFFFFFFFFFF AND PUSH32 0xCFD15FFF29CDFD88AB78A1A218A5938C91F81A52601AC885E0DB2AFFEB070DCB PUSH1 0x40 MLOAD PUSH1 0x40 MLOAD DUP1 SWAP2 SUB SWAP1 LOG4 POP POP POP POP JUMP JUMPDEST PUSH1 0x0 DUP1 SLOAD SWAP1 PUSH2 0x100 EXP SWAP1 DIV PUSH20 0xFFFFFFFFFFFFFFFFFFFFFFFFFFFFFFFFFFFFFFFF AND DUP2 JUMP JUMPDEST PUSH1 0x1 DUP2 DUP2 SLOAD DUP2 LT PUSH3 0x5AB JUMPI PUSH1 0x0 DUP1 REVERT JUMPDEST SWAP1 PUSH1 0x0 MSTORE PUSH1 0x20 PUSH1 0x0 KECCAK256 ADD PUSH1 0x0 SWAP2 POP SWAP1 POP SLOAD DUP2 JUMP JUMPDEST PUSH1 0x2 PUSH1 0x20 MSTORE DUP1 PUSH1 0x0 MSTORE PUSH1 0x40 PUSH1 0x0 KECCAK256 PUSH1 0x0 SWAP2 POP SWAP1 POP DUP1 PUSH1 0x0 ADD PUSH1 0x0 SWAP1 SLOAD SWAP1 PUSH2 0x100 EXP SWAP1 DIV PUSH20 0xFFFFFFFFFFFFFFFFFFFFFFFFFFFFFFFFFFFFFFFF AND SWAP1 DUP1 PUSH1 0x1 ADD SLOAD SWAP1 DUP1 PUSH1 0x2 ADD SLOAD SWAP1 POP DUP4 JUMP JUMPDEST PUSH2 0x2B9C DUP1 PUSH3 0xB7F DUP4 CODECOPY ADD SWAP1 JUMP JUMPDEST PUSH1 0x0 DUP1 REVERT JUMPDEST PUSH1 0x0 PUSH20 0xFFFFFFFFFFFFFFFFFFFFFFFFFFFFFFFFFFFFFFFF DUP3 AND SWAP1 POP SWAP2 SWAP1 POP JUMP JUMPDEST PUSH1 0x0 PUSH3 0x649 DUP3 PUSH3 0x61C JUMP JUMPDEST SWAP1 POP SWAP2 SWAP1 POP JUMP JUMPDEST PUSH3 0x65B DUP2 PUSH3 0x63C JUMP JUMPDEST DUP2 EQ PUSH3 0x667 JUMPI PUSH1 0x0 DUP1 REVERT JUMPDEST POP JUMP JUMPDEST PUSH1 0x0 DUP2 CALLDATALOAD SWAP1 POP PUSH3 0x67B DUP2 PUSH3 0x650 JUMP JUMPDEST SWAP3 SWAP2 POP POP JUMP JUMPDEST PUSH1 0x0 DUP2 SWAP1 POP SWAP2 SWAP1 POP JUMP JUMPDEST PUSH3 0x696 DUP2 PUSH3 0x681 JUMP JUMPDEST DUP2 EQ PUSH3 0x6A2 JUMPI PUSH1 0x0 DUP1 REVERT JUMPDEST POP JUMP JUMPDEST PUSH1 0x0 DUP2 CALLDATALOAD SWAP1 POP PUSH3 0x6B6 DUP2 PUSH3 0x68B JUMP JUMPDEST SWAP3 SWAP2 POP POP JUMP JUMPDEST PUSH1 0x0 DUP1 PUSH1 0x40 DUP4 DUP6 SUB SLT ISZERO PUSH3 0x6D6 JUMPI PUSH3 0x6D5 PUSH3 0x617 JUMP JUMPDEST JUMPDEST PUSH1 0x0 PUSH3 0x6E6 DUP6 DUP3 DUP7 ADD PUSH3 0x66A JUMP JUMPDEST SWAP3 POP POP PUSH1 0x20 PUSH3 0x6F9 DUP6 DUP3 DUP7 ADD PUSH3 0x6A5 JUMP JUMPDEST SWAP2 POP POP SWAP3 POP SWAP3 SWAP1 POP JUMP JUMPDEST PUSH1 0x0 DUP2 MLOAD SWAP1 POP SWAP2 SWAP1 POP JUMP JUMPDEST PUSH1 0x0 DUP3 DUP3 MSTORE PUSH1 0x20 DUP3 ADD SWAP1 POP SWAP3 SWAP2 POP POP JUMP JUMPDEST PUSH1 0x0 DUP2 SWAP1 POP PUSH1 0x20 DUP3 ADD SWAP1 POP SWAP2 SWAP1 POP JUMP JUMPDEST PUSH3 0x73A DUP2 PUSH3 0x681 JUMP JUMPDEST DUP3 MSTORE POP POP JUMP JUMPDEST PUSH1 0x0 PUSH3 0x74E DUP4 DUP4 PUSH3 0x72F JUMP JUMPDEST PUSH1 0x20 DUP4 ADD SWAP1 POP SWAP3 SWAP2 POP POP JUMP JUMPDEST PUSH1 0x0 PUSH1 0x20 DUP3 ADD SWAP1 POP SWAP2 SWAP1 POP JUMP JUMPDEST PUSH1 0x0 PUSH3 0x774 DUP3 PUSH3 0x703 JUMP JUMPDEST PUSH3 0x780 DUP2 DUP6 PUSH3 0x70E JUMP JUMPDEST SWAP4 POP PUSH3 0x78D DUP4 PUSH3 0x71F JUMP JUMPDEST DUP1 PUSH1 0x0 JUMPDEST DUP4 DUP2 LT ISZERO PUSH3 0x7C4 JUMPI DUP2 MLOAD PUSH3 0x7A8 DUP9 DUP3 PUSH3 0x740 JUMP JUMPDEST SWAP8 POP PUSH3 0x7B5 DUP4 PUSH3 0x75A JUMP JUMPDEST SWAP3 POP POP PUSH1 0x1 DUP2 ADD SWAP1 POP PUSH3 0x791 JUMP JUMPDEST POP DUP6 SWAP4 POP POP POP POP SWAP3 SWAP2 POP POP JUMP JUMPDEST PUSH1 0x0 PUSH1 0x20 DUP3 ADD SWAP1 POP DUP2 DUP2 SUB PUSH1 0x0 DUP4 ADD MSTORE PUSH3 0x7ED DUP2 DUP5 PUSH3 0x767 JUMP JUMPDEST SWAP1 POP SWAP3 SWAP2 POP POP JUMP JUMPDEST PUSH1 0x0 DUP1 PUSH1 0x0 PUSH1 0x60 DUP5 DUP7 SUB SLT ISZERO PUSH3 0x811 JUMPI PUSH3 0x810 PUSH3 0x617 JUMP JUMPDEST JUMPDEST PUSH1 0x0 PUSH3 0x821 DUP7 DUP3 DUP8 ADD PUSH3 0x6A5 JUMP JUMPDEST SWAP4 POP POP PUSH1 0x20 PUSH3 0x834 DUP7 DUP3 DUP8 ADD PUSH3 0x6A5 JUMP JUMPDEST SWAP3 POP POP PUSH1 0x40 PUSH3 0x847 DUP7 DUP3 DUP8 ADD PUSH3 0x6A5 JUMP JUMPDEST SWAP2 POP POP SWAP3 POP SWAP3 POP SWAP3 JUMP JUMPDEST PUSH3 0x85C DUP2 PUSH3 0x63C JUMP JUMPDEST DUP3 MSTORE POP POP JUMP JUMPDEST PUSH1 0x0 PUSH1 0x20 DUP3 ADD SWAP1 POP PUSH3 0x879 PUSH1 0x0 DUP4 ADD DUP5 PUSH3 0x851 JUMP JUMPDEST SWAP3 SWAP2 POP POP JUMP JUMPDEST PUSH1 0x0 PUSH1 0x20 DUP3 DUP5 SUB SLT ISZERO PUSH3 0x898 JUMPI PUSH3 0x897 PUSH3 0x617 JUMP JUMPDEST JUMPDEST PUSH1 0x0 PUSH3 0x8A8 DUP5 DUP3 DUP6 ADD PUSH3 0x6A5 JUMP JUMPDEST SWAP2 POP POP SWAP3 SWAP2 POP POP JUMP JUMPDEST PUSH3 0x8BC DUP2 PUSH3 0x681 JUMP JUMPDEST DUP3 MSTORE POP POP JUMP JUMPDEST PUSH1 0x0 PUSH1 0x20 DUP3 ADD SWAP1 POP PUSH3 0x8D9 PUSH1 0x0 DUP4 ADD DUP5 PUSH3 0x8B1 JUMP JUMPDEST SWAP3 SWAP2 POP POP JUMP JUMPDEST PUSH1 0x0 PUSH1 0x60 DUP3 ADD SWAP1 POP PUSH3 0x8F6 PUSH1 0x0 DUP4 ADD DUP7 PUSH3 0x851 JUMP JUMPDEST PUSH3 0x905 PUSH1 0x20 DUP4 ADD DUP6 PUSH3 0x8B1 JUMP JUMPDEST PUSH3 0x914 PUSH1 0x40 DUP4 ADD DUP5 PUSH3 0x8B1 JUMP JUMPDEST SWAP5 SWAP4 POP POP POP POP JUMP JUMPDEST PUSH1 0x0 DUP3 DUP3 MSTORE PUSH1 0x20 DUP3 ADD SWAP1 POP SWAP3 SWAP2 POP POP JUMP JUMPDEST PUSH32 0x5468652066756E6374696F6E2063616E206F6E6C792062652063616C6C656420 PUSH1 0x0 DUP3 ADD MSTORE PUSH32 0x62792074686520666163746F72792063726561746F722E000000000000000000 PUSH1 0x20 DUP3 ADD MSTORE POP JUMP JUMPDEST PUSH1 0x0 PUSH3 0x98B PUSH1 0x37 DUP4 PUSH3 0x91C JUMP JUMPDEST SWAP2 POP PUSH3 0x998 DUP3 PUSH3 0x92D JUMP JUMPDEST PUSH1 0x40 DUP3 ADD SWAP1 POP SWAP2 SWAP1 POP JUMP JUMPDEST PUSH1 0x0 PUSH1 0x20 DUP3 ADD SWAP1 POP DUP2 DUP2 SUB PUSH1 0x0 DUP4 ADD MSTORE PUSH3 0x9BE DUP2 PUSH3 0x97C JUMP JUMPDEST SWAP1 POP SWAP2 SWAP1 POP JUMP JUMPDEST POP JUMP JUMPDEST PUSH1 0x0 PUSH3 0x9D7 PUSH1 0x0 DUP4 PUSH3 0x91C JUMP JUMPDEST SWAP2 POP PUSH3 0x9E4 DUP3 PUSH3 0x9C5 JUMP JUMPDEST PUSH1 0x0 DUP3 ADD SWAP1 POP SWAP2 SWAP1 POP JUMP JUMPDEST PUSH1 0x0 PUSH1 0x20 DUP3 ADD SWAP1 POP DUP2 DUP2 SUB PUSH1 0x0 DUP4 ADD MSTORE PUSH3 0xA0A DUP2 PUSH3 0x9C8 JUMP JUMPDEST SWAP1 POP SWAP2 SWAP1 POP JUMP JUMPDEST PUSH32 0x546865206C616E646C6F72642063616E6E6F74206265206120736D6172742063 PUSH1 0x0 DUP3 ADD MSTORE PUSH32 0x6F6E747261637421000000000000000000000000000000000000000000000000 PUSH1 0x20 DUP3 ADD MSTORE POP JUMP JUMPDEST PUSH1 0x0 PUSH3 0xA6F PUSH1 0x28 DUP4 PUSH3 0x91C JUMP JUMPDEST SWAP2 POP PUSH3 0xA7C DUP3 PUSH3 0xA11 JUMP JUMPDEST PUSH1 0x40 DUP3 ADD SWAP1 POP SWAP2 SWAP1 POP JUMP JUMPDEST PUSH1 0x0 PUSH1 0x20 DUP3 ADD SWAP1 POP DUP2 DUP2 SUB PUSH1 0x0 DUP4 ADD MSTORE PUSH3 0xAA2 DUP2 PUSH3 0xA60 JUMP JUMPDEST SWAP1 POP SWAP2 SWAP1 POP JUMP JUMPDEST PUSH32 0x416E206F626A6563742077697468207468697320696420616C72656164792065 PUSH1 0x0 DUP3 ADD MSTORE PUSH32 0x7869737473210000000000000000000000000000000000000000000000000000 PUSH1 0x20 DUP3 ADD MSTORE POP JUMP JUMPDEST PUSH1 0x0 PUSH3 0xB07 PUSH1 0x26 DUP4 PUSH3 0x91C JUMP JUMPDEST SWAP2 POP PUSH3 0xB14 DUP3 PUSH3 0xAA9 JUMP JUMPDEST PUSH1 0x40 DUP3 ADD SWAP1 POP SWAP2 SWAP1 POP JUMP JUMPDEST PUSH1 0x0 PUSH1 0x20 DUP3 ADD SWAP1 POP DUP2 DUP2 SUB PUSH1 0x0 DUP4 ADD MSTORE PUSH3 0xB3A DUP2 PUSH3 0xAF8 JUMP JUMPDEST SWAP1 POP SWAP2 SWAP1 POP JUMP JUMPDEST PUSH1 0x0 PUSH1 0x60 DUP3 ADD SWAP1 POP PUSH3 0xB58 PUSH1 0x0 DUP4 ADD DUP7 PUSH3 0x8B1 JUMP JUMPDEST PUSH3 0xB67 PUSH1 0x20 DUP4 ADD DUP6 PUSH3 0x8B1 JUMP JUMPDEST PUSH3 0xB76 PUSH1 0x40 DUP4 ADD DUP5 PUSH3 0x8B1 JUMP JUMPDEST SWAP5 SWAP4 POP POP POP POP JUMP INVALID PUSH1 0x80 PUSH1 0x40 MSTORE CALLVALUE DUP1 ISZERO PUSH3 0x11 JUMPI PUSH1 0x0 DUP1 REVERT JUMPDEST POP PUSH1 0x40 MLOAD PUSH3 0x2B9C CODESIZE SUB DUP1 PUSH3 0x2B9C DUP4 CODECOPY DUP2 DUP2 ADD PUSH1 0x40 MSTORE DUP2 ADD SWAP1 PUSH3 0x37 SWAP2 SWAP1 PUSH3 0x144 JUMP JUMPDEST DUP3 PUSH1 0x1 DUP2 SWAP1 SSTORE POP PUSH1 0x0 DUP1 PUSH1 0x0 PUSH2 0x100 EXP DUP2 SLOAD DUP2 PUSH1 0xFF MUL NOT AND SWAP1 DUP4 PUSH1 0x2 DUP2 GT ISZERO PUSH3 0x66 JUMPI PUSH3 0x65 PUSH3 0x1A0 JUMP JUMPDEST JUMPDEST MUL OR SWAP1 SSTORE POP DUP2 PUSH1 0x5 DUP2 SWAP1 SSTORE POP CALLER PUSH1 0x3 PUSH1 0x0 PUSH2 0x100 EXP DUP2 SLOAD DUP2 PUSH20 0xFFFFFFFFFFFFFFFFFFFFFFFFFFFFFFFFFFFFFFFF MUL NOT AND SWAP1 DUP4 PUSH20 0xFFFFFFFFFFFFFFFFFFFFFFFFFFFFFFFFFFFFFFFF AND MUL OR SWAP1 SSTORE POP ORIGIN PUSH1 0x2 PUSH1 0x0 PUSH2 0x100 EXP DUP2 SLOAD DUP2 PUSH20 0xFFFFFFFFFFFFFFFFFFFFFFFFFFFFFFFFFFFFFFFF MUL NOT AND SWAP1 DUP4 PUSH20 0xFFFFFFFFFFFFFFFFFFFFFFFFFFFFFFFFFFFFFFFF AND MUL OR SWAP1 SSTORE POP DUP1 PUSH1 0x8 DUP2 SWAP1 SSTORE POP POP POP POP PUSH3 0x1CF JUMP JUMPDEST PUSH1 0x0 DUP1 REVERT JUMPDEST PUSH1 0x0 DUP2 SWAP1 POP SWAP2 SWAP1 POP JUMP JUMPDEST PUSH3 0x11E DUP2 PUSH3 0x109 JUMP JUMPDEST DUP2 EQ PUSH3 0x12A JUMPI PUSH1 0x0 DUP1 REVERT JUMPDEST POP JUMP JUMPDEST PUSH1 0x0 DUP2 MLOAD SWAP1 POP PUSH3 0x13E DUP2 PUSH3 0x113 JUMP JUMPDEST SWAP3 SWAP2 POP POP JUMP JUMPDEST PUSH1 0x0 DUP1 PUSH1 0x0 PUSH1 0x60 DUP5 DUP7 SUB SLT ISZERO PUSH3 0x160 JUMPI PUSH3 0x15F PUSH3 0x104 JUMP JUMPDEST JUMPDEST PUSH1 0x0 PUSH3 0x170 DUP7 DUP3 DUP8 ADD PUSH3 0x12D JUMP JUMPDEST SWAP4 POP POP PUSH1 0x20 PUSH3 0x183 DUP7 DUP3 DUP8 ADD PUSH3 0x12D JUMP JUMPDEST SWAP3 POP POP PUSH1 0x40 PUSH3 0x196 DUP7 DUP3 DUP8 ADD PUSH3 0x12D JUMP JUMPDEST SWAP2 POP POP SWAP3 POP SWAP3 POP SWAP3 JUMP JUMPDEST PUSH32 0x4E487B7100000000000000000000000000000000000000000000000000000000 PUSH1 0x0 MSTORE PUSH1 0x21 PUSH1 0x4 MSTORE PUSH1 0x24 PUSH1 0x0 REVERT JUMPDEST PUSH2 0x29BD DUP1 PUSH3 0x1DF PUSH1 0x0 CODECOPY PUSH1 0x0 RETURN INVALID PUSH1 0x80 PUSH1 0x40 MSTORE PUSH1 0x4 CALLDATASIZE LT PUSH2 0x10D JUMPI PUSH1 0x0 CALLDATALOAD PUSH1 0xE0 SHR DUP1 PUSH4 0x8F66EFE2 GT PUSH2 0x95 JUMPI DUP1 PUSH4 0xC3AB5FB4 GT PUSH2 0x64 JUMPI DUP1 PUSH4 0xC3AB5FB4 EQ PUSH2 0x3AB JUMPI DUP1 PUSH4 0xCB475846 EQ PUSH2 0x3D6 JUMPI DUP1 PUSH4 0xDAEA85C5 EQ PUSH2 0x401 JUMPI DUP1 PUSH4 0xDC1997EA EQ PUSH2 0x42A JUMPI DUP1 PUSH4 0xEA8A1AF0 EQ PUSH2 0x455 JUMPI PUSH2 0x188 JUMP JUMPDEST DUP1 PUSH4 0x8F66EFE2 EQ PUSH2 0x301 JUMPI DUP1 PUSH4 0xA035B1FE EQ PUSH2 0x318 JUMPI DUP1 PUSH4 0xAC2169CE EQ PUSH2 0x343 JUMPI DUP1 PUSH4 0xAF640D0F EQ PUSH2 0x380 JUMPI PUSH2 0x188 JUMP JUMPDEST DUP1 PUSH4 0x59391CE1 GT PUSH2 0xDC JUMPI DUP1 PUSH4 0x59391CE1 EQ PUSH2 0x239 JUMPI DUP1 PUSH4 0x5C232FF1 EQ PUSH2 0x264 JUMPI DUP1 PUSH4 0x5E5769D1 EQ PUSH2 0x2A3 JUMPI DUP1 PUSH4 0x783A112B EQ PUSH2 0x2BA JUMPI DUP1 PUSH4 0x8DA5CB5B EQ PUSH2 0x2D6 JUMPI PUSH2 0x188 JUMP JUMPDEST DUP1 PUSH4 0x3B13009 EQ PUSH2 0x18D JUMPI DUP1 PUSH4 0x200D2ED2 EQ PUSH2 0x1B8 JUMPI DUP1 PUSH4 0x3CAC14C8 EQ PUSH2 0x1E3 JUMPI DUP1 PUSH4 0x4D5F811E EQ PUSH2 0x20E JUMPI PUSH2 0x188 JUMP JUMPDEST CALLDATASIZE PUSH2 0x188 JUMPI PUSH1 0x0 PUSH1 0x2 DUP2 GT ISZERO PUSH2 0x126 JUMPI PUSH2 0x125 PUSH2 0x1DAF JUMP JUMPDEST JUMPDEST PUSH1 0x0 DUP1 SLOAD SWAP1 PUSH2 0x100 EXP SWAP1 DIV PUSH1 0xFF AND PUSH1 0x2 DUP2 GT ISZERO PUSH2 0x146 JUMPI PUSH2 0x145 PUSH2 0x1DAF JUMP JUMPDEST JUMPDEST EQ PUSH2 0x186 JUMPI PUSH1 0x40 MLOAD PUSH32 0x8C379A000000000000000000000000000000000000000000000000000000000 DUP2 MSTORE PUSH1 0x4 ADD PUSH2 0x17D SWAP1 PUSH2 0x1E3B JUMP JUMPDEST PUSH1 0x40 MLOAD DUP1 SWAP2 SUB SWAP1 REVERT JUMPDEST STOP JUMPDEST PUSH1 0x0 DUP1 REVERT JUMPDEST CALLVALUE DUP1 ISZERO PUSH2 0x199 JUMPI PUSH1 0x0 DUP1 REVERT JUMPDEST POP PUSH2 0x1A2 PUSH2 0x46C JUMP JUMPDEST PUSH1 0x40 MLOAD PUSH2 0x1AF SWAP2 SWAP1 PUSH2 0x1E9C JUMP JUMPDEST PUSH1 0x40 MLOAD DUP1 SWAP2 SUB SWAP1 RETURN JUMPDEST CALLVALUE DUP1 ISZERO PUSH2 0x1C4 JUMPI PUSH1 0x0 DUP1 REVERT JUMPDEST POP PUSH2 0x1CD PUSH2 0x492 JUMP JUMPDEST PUSH1 0x40 MLOAD PUSH2 0x1DA SWAP2 SWAP1 PUSH2 0x1EFF JUMP JUMPDEST PUSH1 0x40 MLOAD DUP1 SWAP2 SUB SWAP1 RETURN JUMPDEST CALLVALUE DUP1 ISZERO PUSH2 0x1EF JUMPI PUSH1 0x0 DUP1 REVERT JUMPDEST POP PUSH2 0x1F8 PUSH2 0x4A3 JUMP JUMPDEST PUSH1 0x40 MLOAD PUSH2 0x205 SWAP2 SWAP1 PUSH2 0x1FD8 JUMP JUMPDEST PUSH1 0x40 MLOAD DUP1 SWAP2 SUB SWAP1 RETURN JUMPDEST CALLVALUE DUP1 ISZERO PUSH2 0x21A JUMPI PUSH1 0x0 DUP1 REVERT JUMPDEST POP PUSH2 0x223 PUSH2 0x531 JUMP JUMPDEST PUSH1 0x40 MLOAD PUSH2 0x230 SWAP2 SWAP1 PUSH2 0x2013 JUMP JUMPDEST PUSH1 0x40 MLOAD DUP1 SWAP2 SUB SWAP1 RETURN JUMPDEST CALLVALUE DUP1 ISZERO PUSH2 0x245 JUMPI PUSH1 0x0 DUP1 REVERT JUMPDEST POP PUSH2 0x24E PUSH2 0x537 JUMP JUMPDEST PUSH1 0x40 MLOAD PUSH2 0x25B SWAP2 SWAP1 PUSH2 0x2013 JUMP JUMPDEST PUSH1 0x40 MLOAD DUP1 SWAP2 SUB SWAP1 RETURN JUMPDEST CALLVALUE DUP1 ISZERO PUSH2 0x270 JUMPI PUSH1 0x0 DUP1 REVERT JUMPDEST POP PUSH2 0x28B PUSH1 0x4 DUP1 CALLDATASIZE SUB DUP2 ADD SWAP1 PUSH2 0x286 SWAP2 SWAP1 PUSH2 0x205F JUMP JUMPDEST PUSH2 0x53D JUMP JUMPDEST PUSH1 0x40 MLOAD PUSH2 0x29A SWAP4 SWAP3 SWAP2 SWAP1 PUSH2 0x20A7 JUMP JUMPDEST PUSH1 0x40 MLOAD DUP1 SWAP2 SUB SWAP1 RETURN JUMPDEST CALLVALUE DUP1 ISZERO PUSH2 0x2AF JUMPI PUSH1 0x0 DUP1 REVERT JUMPDEST POP PUSH2 0x2B8 PUSH2 0x574 JUMP JUMPDEST STOP JUMPDEST PUSH2 0x2D4 PUSH1 0x4 DUP1 CALLDATASIZE SUB DUP2 ADD SWAP1 PUSH2 0x2CF SWAP2 SWAP1 PUSH2 0x210A JUMP JUMPDEST PUSH2 0x933 JUMP JUMPDEST STOP JUMPDEST CALLVALUE DUP1 ISZERO PUSH2 0x2E2 JUMPI PUSH1 0x0 DUP1 REVERT JUMPDEST POP PUSH2 0x2EB PUSH2 0xD24 JUMP JUMPDEST PUSH1 0x40 MLOAD PUSH2 0x2F8 SWAP2 SWAP1 PUSH2 0x1E9C JUMP JUMPDEST PUSH1 0x40 MLOAD DUP1 SWAP2 SUB SWAP1 RETURN JUMPDEST CALLVALUE DUP1 ISZERO PUSH2 0x30D JUMPI PUSH1 0x0 DUP1 REVERT JUMPDEST POP PUSH2 0x316 PUSH2 0xD4A JUMP JUMPDEST STOP JUMPDEST CALLVALUE DUP1 ISZERO PUSH2 0x324 JUMPI PUSH1 0x0 DUP1 REVERT JUMPDEST POP PUSH2 0x32D PUSH2 0x113F JUMP JUMPDEST PUSH1 0x40 MLOAD PUSH2 0x33A SWAP2 SWAP1 PUSH2 0x2013 JUMP JUMPDEST PUSH1 0x40 MLOAD DUP1 SWAP2 SUB SWAP1 RETURN JUMPDEST CALLVALUE DUP1 ISZERO PUSH2 0x34F JUMPI PUSH1 0x0 DUP1 REVERT JUMPDEST POP PUSH2 0x36A PUSH1 0x4 DUP1 CALLDATASIZE SUB DUP2 ADD SWAP1 PUSH2 0x365 SWAP2 SWAP1 PUSH2 0x214A JUMP JUMPDEST PUSH2 0x1145 JUMP JUMPDEST PUSH1 0x40 MLOAD PUSH2 0x377 SWAP2 SWAP1 PUSH2 0x1E9C JUMP JUMPDEST PUSH1 0x40 MLOAD DUP1 SWAP2 SUB SWAP1 RETURN JUMPDEST CALLVALUE DUP1 ISZERO PUSH2 0x38C JUMPI PUSH1 0x0 DUP1 REVERT JUMPDEST POP PUSH2 0x395 PUSH2 0x1184 JUMP JUMPDEST PUSH1 0x40 MLOAD PUSH2 0x3A2 SWAP2 SWAP1 PUSH2 0x2013 JUMP JUMPDEST PUSH1 0x40 MLOAD DUP1 SWAP2 SUB SWAP1 RETURN JUMPDEST CALLVALUE DUP1 ISZERO PUSH2 0x3B7 JUMPI PUSH1 0x0 DUP1 REVERT JUMPDEST POP PUSH2 0x3C0 PUSH2 0x118A JUMP JUMPDEST PUSH1 0x40 MLOAD PUSH2 0x3CD SWAP2 SWAP1 PUSH2 0x2013 JUMP JUMPDEST PUSH1 0x40 MLOAD DUP1 SWAP2 SUB SWAP1 RETURN JUMPDEST CALLVALUE DUP1 ISZERO PUSH2 0x3E2 JUMPI PUSH1 0x0 DUP1 REVERT JUMPDEST POP PUSH2 0x3EB PUSH2 0x1190 JUMP JUMPDEST PUSH1 0x40 MLOAD PUSH2 0x3F8 SWAP2 SWAP1 PUSH2 0x2013 JUMP JUMPDEST PUSH1 0x40 MLOAD DUP1 SWAP2 SUB SWAP1 RETURN JUMPDEST CALLVALUE DUP1 ISZERO PUSH2 0x40D JUMPI PUSH1 0x0 DUP1 REVERT JUMPDEST POP PUSH2 0x428 PUSH1 0x4 DUP1 CALLDATASIZE SUB DUP2 ADD SWAP1 PUSH2 0x423 SWAP2 SWAP1 PUSH2 0x205F JUMP JUMPDEST PUSH2 0x1195 JUMP JUMPDEST STOP JUMPDEST CALLVALUE DUP1 ISZERO PUSH2 0x436 JUMPI PUSH1 0x0 DUP1 REVERT JUMPDEST POP PUSH2 0x43F PUSH2 0x1AE9 JUMP JUMPDEST PUSH1 0x40 MLOAD PUSH2 0x44C SWAP2 SWAP1 PUSH2 0x1E9C JUMP JUMPDEST PUSH1 0x40 MLOAD DUP1 SWAP2 SUB SWAP1 RETURN JUMPDEST CALLVALUE DUP1 ISZERO PUSH2 0x461 JUMPI PUSH1 0x0 DUP1 REVERT JUMPDEST POP PUSH2 0x46A PUSH2 0x1B0F JUMP JUMPDEST STOP JUMPDEST PUSH1 0x7 PUSH1 0x0 SWAP1 SLOAD SWAP1 PUSH2 0x100 EXP SWAP1 DIV PUSH20 0xFFFFFFFFFFFFFFFFFFFFFFFFFFFFFFFFFFFFFFFF AND DUP2 JUMP JUMPDEST PUSH1 0x0 DUP1 SLOAD SWAP1 PUSH2 0x100 EXP SWAP1 DIV PUSH1 0xFF AND DUP2 JUMP JUMPDEST PUSH1 0x60 PUSH1 0x9 DUP1 SLOAD DUP1 PUSH1 0x20 MUL PUSH1 0x20 ADD PUSH1 0x40 MLOAD SWAP1 DUP2 ADD PUSH1 0x40 MSTORE DUP1 SWAP3 SWAP2 SWAP1 DUP2 DUP2 MSTORE PUSH1 0x20 ADD DUP3 DUP1 SLOAD DUP1 ISZERO PUSH2 0x527 JUMPI PUSH1 0x20 MUL DUP3 ADD SWAP2 SWAP1 PUSH1 0x0 MSTORE PUSH1 0x20 PUSH1 0x0 KECCAK256 SWAP1 JUMPDEST DUP2 PUSH1 0x0 SWAP1 SLOAD SWAP1 PUSH2 0x100 EXP SWAP1 DIV PUSH20 0xFFFFFFFFFFFFFFFFFFFFFFFFFFFFFFFFFFFFFFFF AND PUSH20 0xFFFFFFFFFFFFFFFFFFFFFFFFFFFFFFFFFFFFFFFF AND DUP2 MSTORE PUSH1 0x20 ADD SWAP1 PUSH1 0x1 ADD SWAP1 DUP1 DUP4 GT PUSH2 0x4DD JUMPI JUMPDEST POP POP POP POP POP SWAP1 POP SWAP1 JUMP JUMPDEST PUSH1 0x8 SLOAD DUP2 JUMP JUMPDEST PUSH1 0x6 SLOAD DUP2 JUMP JUMPDEST PUSH1 0xA PUSH1 0x20 MSTORE DUP1 PUSH1 0x0 MSTORE PUSH1 0x40 PUSH1 0x0 KECCAK256 PUSH1 0x0 SWAP2 POP SWAP1 POP DUP1 PUSH1 0x0 ADD SLOAD SWAP1 DUP1 PUSH1 0x1 ADD SLOAD SWAP1 DUP1 PUSH1 0x2 ADD PUSH1 0x0 SWAP1 SLOAD SWAP1 PUSH2 0x100 EXP SWAP1 DIV PUSH1 0xFF AND SWAP1 POP DUP4 JUMP JUMPDEST PUSH1 0x7 PUSH1 0x0 SWAP1 SLOAD SWAP1 PUSH2 0x100 EXP SWAP1 DIV PUSH20 0xFFFFFFFFFFFFFFFFFFFFFFFFFFFFFFFFFFFFFFFF AND PUSH20 0xFFFFFFFFFFFFFFFFFFFFFFFFFFFFFFFFFFFFFFFF AND CALLER PUSH20 0xFFFFFFFFFFFFFFFFFFFFFFFFFFFFFFFFFFFFFFFF AND EQ DUP1 ISZERO PUSH2 0x624 JUMPI POP PUSH1 0x1 ISZERO ISZERO PUSH1 0xA PUSH1 0x0 CALLER PUSH20 0xFFFFFFFFFFFFFFFFFFFFFFFFFFFFFFFFFFFFFFFF AND PUSH20 0xFFFFFFFFFFFFFFFFFFFFFFFFFFFFFFFFFFFFFFFF AND DUP2 MSTORE PUSH1 0x20 ADD SWAP1 DUP2 MSTORE PUSH1 0x20 ADD PUSH1 0x0 KECCAK256 PUSH1 0x2 ADD PUSH1 0x0 SWAP1 SLOAD SWAP1 PUSH2 0x100 EXP SWAP1 DIV PUSH1 0xFF AND ISZERO ISZERO EQ JUMPDEST PUSH2 0x663 JUMPI PUSH1 0x40 MLOAD PUSH32 0x8C379A000000000000000000000000000000000000000000000000000000000 DUP2 MSTORE PUSH1 0x4 ADD PUSH2 0x65A SWAP1 PUSH2 0x21E9 JUMP JUMPDEST PUSH1 0x40 MLOAD DUP1 SWAP2 SUB SWAP1 REVERT JUMPDEST PUSH1 0x4 SLOAD PUSH1 0xA PUSH1 0x0 CALLER PUSH20 0xFFFFFFFFFFFFFFFFFFFFFFFFFFFFFFFFFFFFFFFF AND PUSH20 0xFFFFFFFFFFFFFFFFFFFFFFFFFFFFFFFFFFFFFFFF AND DUP2 MSTORE PUSH1 0x20 ADD SWAP1 DUP2 MSTORE PUSH1 0x20 ADD PUSH1 0x0 KECCAK256 PUSH1 0x1 ADD SLOAD LT ISZERO PUSH2 0x6EA JUMPI PUSH1 0x40 MLOAD PUSH32 0x8C379A000000000000000000000000000000000000000000000000000000000 DUP2 MSTORE PUSH1 0x4 ADD PUSH2 0x6E1 SWAP1 PUSH2 0x227B JUMP JUMPDEST PUSH1 0x40 MLOAD DUP1 SWAP2 SUB SWAP1 REVERT JUMPDEST PUSH3 0x278D00 PUSH1 0x6 PUSH1 0x0 DUP3 DUP3 SLOAD PUSH2 0x6FF SWAP2 SWAP1 PUSH2 0x22CA JUMP JUMPDEST SWAP3 POP POP DUP2 SWAP1 SSTORE POP PUSH1 0x0 PUSH1 0x64 PUSH1 0x1 PUSH1 0x4 SLOAD PUSH2 0x719 SWAP2 SWAP1 PUSH2 0x22FE JUMP JUMPDEST PUSH2 0x723 SWAP2 SWAP1 PUSH2 0x236F JUMP JUMPDEST SWAP1 POP DUP1 PUSH1 0x4 SLOAD PUSH2 0x733 SWAP2 SWAP1 PUSH2 0x22CA JUMP JUMPDEST PUSH1 0xA PUSH1 0x0 CALLER PUSH20 0xFFFFFFFFFFFFFFFFFFFFFFFFFFFFFFFFFFFFFFFF AND PUSH20 0xFFFFFFFFFFFFFFFFFFFFFFFFFFFFFFFFFFFFFFFF AND DUP2 MSTORE PUSH1 0x20 ADD SWAP1 DUP2 MSTORE PUSH1 0x20 ADD PUSH1 0x0 KECCAK256 PUSH1 0x1 ADD PUSH1 0x0 DUP3 DUP3 SLOAD PUSH2 0x784 SWAP2 SWAP1 PUSH2 0x23A0 JUMP JUMPDEST SWAP3 POP POP DUP2 SWAP1 SSTORE POP PUSH1 0x2 PUSH1 0x0 SWAP1 SLOAD SWAP1 PUSH2 0x100 EXP SWAP1 DIV PUSH20 0xFFFFFFFFFFFFFFFFFFFFFFFFFFFFFFFFFFFFFFFF AND PUSH20 0xFFFFFFFFFFFFFFFFFFFFFFFFFFFFFFFFFFFFFFFF AND PUSH2 0x8FC PUSH1 0x4 SLOAD SWAP1 DUP2 ISZERO MUL SWAP1 PUSH1 0x40 MLOAD PUSH1 0x0 PUSH1 0x40 MLOAD DUP1 DUP4 SUB DUP2 DUP6 DUP9 DUP9 CALL SWAP4 POP POP POP POP ISZERO DUP1 ISZERO PUSH2 0x7F5 JUMPI RETURNDATASIZE PUSH1 0x0 DUP1 RETURNDATACOPY RETURNDATASIZE PUSH1 0x0 REVERT JUMPDEST POP PUSH1 0x0 PUSH1 0x3 PUSH1 0x0 SWAP1 SLOAD SWAP1 PUSH2 0x100 EXP SWAP1 DIV PUSH20 0xFFFFFFFFFFFFFFFFFFFFFFFFFFFFFFFFFFFFFFFF AND PUSH20 0xFFFFFFFFFFFFFFFFFFFFFFFFFFFFFFFFFFFFFFFF AND DUP3 PUSH1 0x40 MLOAD PUSH2 0x83E SWAP1 PUSH2 0x2405 JUMP JUMPDEST PUSH1 0x0 PUSH1 0x40 MLOAD DUP1 DUP4 SUB DUP2 DUP6 DUP8 GAS CALL SWAP3 POP POP POP RETURNDATASIZE DUP1 PUSH1 0x0 DUP2 EQ PUSH2 0x87B JUMPI PUSH1 0x40 MLOAD SWAP2 POP PUSH1 0x1F NOT PUSH1 0x3F RETURNDATASIZE ADD AND DUP3 ADD PUSH1 0x40 MSTORE RETURNDATASIZE DUP3 MSTORE RETURNDATASIZE PUSH1 0x0 PUSH1 0x20 DUP5 ADD RETURNDATACOPY PUSH2 0x880 JUMP JUMPDEST PUSH1 0x60 SWAP2 POP JUMPDEST POP POP SWAP1 POP DUP1 PUSH2 0x8C4 JUMPI PUSH1 0x40 MLOAD PUSH32 0x8C379A000000000000000000000000000000000000000000000000000000000 DUP2 MSTORE PUSH1 0x4 ADD PUSH2 0x8BB SWAP1 PUSH2 0x2466 JUMP JUMPDEST PUSH1 0x40 MLOAD DUP1 SWAP2 SUB SWAP1 REVERT JUMPDEST PUSH1 0x4 SLOAD PUSH1 0x6 SLOAD PUSH1 0x7 PUSH1 0x0 SWAP1 SLOAD SWAP1 PUSH2 0x100 EXP SWAP1 DIV PUSH20 0xFFFFFFFFFFFFFFFFFFFFFFFFFFFFFFFFFFFFFFFF AND PUSH20 0xFFFFFFFFFFFFFFFFFFFFFFFFFFFFFFFFFFFFFFFF AND PUSH32 0xDE83F3C4F0B30046F8683E0AB405E3EED1038C49BCA68B6777831E0F17E2257E PUSH1 0x40 MLOAD PUSH1 0x40 MLOAD DUP1 SWAP2 SUB SWAP1 LOG4 POP POP JUMP JUMPDEST PUSH1 0x0 PUSH1 0x2 DUP2 GT ISZERO PUSH2 0x947 JUMPI PUSH2 0x946 PUSH2 0x1DAF JUMP JUMPDEST JUMPDEST PUSH1 0x0 DUP1 SLOAD SWAP1 PUSH2 0x100 EXP SWAP1 DIV PUSH1 0xFF AND PUSH1 0x2 DUP2 GT ISZERO PUSH2 0x967 JUMPI PUSH2 0x966 PUSH2 0x1DAF JUMP JUMPDEST JUMPDEST EQ PUSH2 0x9A7 JUMPI PUSH1 0x40 MLOAD PUSH32 0x8C379A000000000000000000000000000000000000000000000000000000000 DUP2 MSTORE PUSH1 0x4 ADD PUSH2 0x99E SWAP1 PUSH2 0x1E3B JUMP JUMPDEST PUSH1 0x40 MLOAD DUP1 SWAP2 SUB SWAP1 REVERT JUMPDEST CALLVALUE DUP2 EQ PUSH2 0x9E9 JUMPI PUSH1 0x40 MLOAD PUSH32 0x8C379A000000000000000000000000000000000000000000000000000000000 DUP2 MSTORE PUSH1 0x4 ADD PUSH2 0x9E0 SWAP1 PUSH2 0x24F8 JUMP JUMPDEST PUSH1 0x40 MLOAD DUP1 SWAP2 SUB SWAP1 REVERT JUMPDEST PUSH1 0x5 SLOAD PUSH1 0xA PUSH1 0x0 CALLER PUSH20 0xFFFFFFFFFFFFFFFFFFFFFFFFFFFFFFFFFFFFFFFF AND PUSH20 0xFFFFFFFFFFFFFFFFFFFFFFFFFFFFFFFFFFFFFFFF AND DUP2 MSTORE PUSH1 0x20 ADD SWAP1 DUP2 MSTORE PUSH1 0x20 ADD PUSH1 0x0 KECCAK256 PUSH1 0x0 ADD SLOAD LT ISZERO DUP1 PUSH2 0xA3E JUMPI POP PUSH1 0x5 SLOAD DUP3 LT ISZERO JUMPDEST PUSH2 0xA7D JUMPI PUSH1 0x40 MLOAD PUSH32 0x8C379A000000000000000000000000000000000000000000000000000000000 DUP2 MSTORE PUSH1 0x4 ADD PUSH2 0xA74 SWAP1 PUSH2 0x258A JUMP JUMPDEST PUSH1 0x40 MLOAD DUP1 SWAP2 SUB SWAP1 REVERT JUMPDEST PUSH1 0x8 SLOAD PUSH1 0xA PUSH1 0x0 CALLER PUSH20 0xFFFFFFFFFFFFFFFFFFFFFFFFFFFFFFFFFFFFFFFF AND PUSH20 0xFFFFFFFFFFFFFFFFFFFFFFFFFFFFFFFFFFFFFFFF AND DUP2 MSTORE PUSH1 0x20 ADD SWAP1 DUP2 MSTORE PUSH1 0x20 ADD PUSH1 0x0 KECCAK256 PUSH1 0x1 ADD SLOAD LT ISZERO DUP1 PUSH2 0xAD2 JUMPI POP PUSH1 0x8 SLOAD DUP2 LT ISZERO JUMPDEST PUSH2 0xB11 JUMPI PUSH1 0x40 MLOAD PUSH32 0x8C379A000000000000000000000000000000000000000000000000000000000 DUP2 MSTORE PUSH1 0x4 ADD PUSH2 0xB08 SWAP1 PUSH2 0x261C JUMP JUMPDEST PUSH1 0x40 MLOAD DUP1 SWAP2 SUB SWAP1 REVERT JUMPDEST PUSH1 0x9 CALLER SWAP1 DUP1 PUSH1 0x1 DUP2 SLOAD ADD DUP1 DUP3 SSTORE DUP1 SWAP2 POP POP PUSH1 0x1 SWAP1 SUB SWAP1 PUSH1 0x0 MSTORE PUSH1 0x20 PUSH1 0x0 KECCAK256 ADD PUSH1 0x0 SWAP1 SWAP2 SWAP1 SWAP2 SWAP1 SWAP2 PUSH2 0x100 EXP DUP2 SLOAD DUP2 PUSH20 0xFFFFFFFFFFFFFFFFFFFFFFFFFFFFFFFFFFFFFFFF MUL NOT AND SWAP1 DUP4 PUSH20 0xFFFFFFFFFFFFFFFFFFFFFFFFFFFFFFFFFFFFFFFF AND MUL OR SWAP1 SSTORE POP PUSH1 0x0 DUP3 PUSH1 0xA PUSH1 0x0 CALLER PUSH20 0xFFFFFFFFFFFFFFFFFFFFFFFFFFFFFFFFFFFFFFFF AND PUSH20 0xFFFFFFFFFFFFFFFFFFFFFFFFFFFFFFFFFFFFFFFF AND DUP2 MSTORE PUSH1 0x20 ADD SWAP1 DUP2 MSTORE PUSH1 0x20 ADD PUSH1 0x0 KECCAK256 PUSH1 0x0 ADD PUSH1 0x0 DUP3 DUP3 SLOAD PUSH2 0xBC8 SWAP2 SWAP1 PUSH2 0x22CA JUMP JUMPDEST SWAP3 POP POP DUP2 SWAP1 SSTORE SWAP1 POP PUSH1 0x0 DUP3 PUSH1 0xA PUSH1 0x0 CALLER PUSH20 0xFFFFFFFFFFFFFFFFFFFFFFFFFFFFFFFFFFFFFFFF AND PUSH20 0xFFFFFFFFFFFFFFFFFFFFFFFFFFFFFFFFFFFFFFFF AND DUP2 MSTORE PUSH1 0x20 ADD SWAP1 DUP2 MSTORE PUSH1 0x20 ADD PUSH1 0x0 KECCAK256 PUSH1 0x1 ADD PUSH1 0x0 DUP3 DUP3 SLOAD PUSH2 0xC24 SWAP2 SWAP1 PUSH2 0x22CA JUMP JUMPDEST SWAP3 POP POP DUP2 SWAP1 SSTORE SWAP1 POP PUSH1 0x0 ADDRESS PUSH20 0xFFFFFFFFFFFFFFFFFFFFFFFFFFFFFFFFFFFFFFFF AND CALLVALUE PUSH1 0x40 MLOAD PUSH2 0xC52 SWAP1 PUSH2 0x2405 JUMP JUMPDEST PUSH1 0x0 PUSH1 0x40 MLOAD DUP1 DUP4 SUB DUP2 DUP6 DUP8 GAS CALL SWAP3 POP POP POP RETURNDATASIZE DUP1 PUSH1 0x0 DUP2 EQ PUSH2 0xC8F JUMPI PUSH1 0x40 MLOAD SWAP2 POP PUSH1 0x1F NOT PUSH1 0x3F RETURNDATASIZE ADD AND DUP3 ADD PUSH1 0x40 MSTORE RETURNDATASIZE DUP3 MSTORE RETURNDATASIZE PUSH1 0x0 PUSH1 0x20 DUP5 ADD RETURNDATACOPY PUSH2 0xC94 JUMP JUMPDEST PUSH1 0x60 SWAP2 POP JUMPDEST POP POP SWAP1 POP DUP1 PUSH2 0xCD8 JUMPI PUSH1 0x40 MLOAD PUSH32 0x8C379A000000000000000000000000000000000000000000000000000000000 DUP2 MSTORE PUSH1 0x4 ADD PUSH2 0xCCF SWAP1 PUSH2 0x2466 JUMP JUMPDEST PUSH1 0x40 MLOAD DUP1 SWAP2 SUB SWAP1 REVERT JUMPDEST DUP2 DUP4 CALLER PUSH20 0xFFFFFFFFFFFFFFFFFFFFFFFFFFFFFFFFFFFFFFFF AND PUSH32 0xAACC919B33556C4A2808AB4316FD9ADE1D6CBD2E0C690DDBC11734E900C4EBE5 PUSH1 0x40 MLOAD PUSH1 0x40 MLOAD DUP1 SWAP2 SUB SWAP1 LOG4 POP POP POP POP POP JUMP JUMPDEST PUSH1 0x3 PUSH1 0x0 SWAP1 SLOAD SWAP1 PUSH2 0x100 EXP SWAP1 DIV PUSH20 0xFFFFFFFFFFFFFFFFFFFFFFFFFFFFFFFFFFFFFFFF AND DUP2 JUMP JUMPDEST PUSH1 0x7 PUSH1 0x0 SWAP1 SLOAD SWAP1 PUSH2 0x100 EXP SWAP1 DIV PUSH20 0xFFFFFFFFFFFFFFFFFFFFFFFFFFFFFFFFFFFFFFFF AND PUSH20 0xFFFFFFFFFFFFFFFFFFFFFFFFFFFFFFFFFFFFFFFF AND CALLER PUSH20 0xFFFFFFFFFFFFFFFFFFFFFFFFFFFFFFFFFFFFFFFF AND EQ DUP1 ISZERO PUSH2 0xDFA JUMPI POP PUSH1 0x1 ISZERO ISZERO PUSH1 0xA PUSH1 0x0 CALLER PUSH20 0xFFFFFFFFFFFFFFFFFFFFFFFFFFFFFFFFFFFFFFFF AND PUSH20 0xFFFFFFFFFFFFFFFFFFFFFFFFFFFFFFFFFFFFFFFF AND DUP2 MSTORE PUSH1 0x20 ADD SWAP1 DUP2 MSTORE PUSH1 0x20 ADD PUSH1 0x0 KECCAK256 PUSH1 0x2 ADD PUSH1 0x0 SWAP1 SLOAD SWAP1 PUSH2 0x100 EXP SWAP1 DIV PUSH1 0xFF AND ISZERO ISZERO EQ JUMPDEST PUSH2 0xE39 JUMPI PUSH1 0x40 MLOAD PUSH32 0x8C379A000000000000000000000000000000000000000000000000000000000 DUP2 MSTORE PUSH1 0x4 ADD PUSH2 0xE30 SWAP1 PUSH2 0x21E9 JUMP JUMPDEST PUSH1 0x40 MLOAD DUP1 SWAP2 SUB SWAP1 REVERT JUMPDEST PUSH1 0x0 PUSH1 0xA PUSH1 0x0 CALLER PUSH20 0xFFFFFFFFFFFFFFFFFFFFFFFFFFFFFFFFFFFFFFFF AND PUSH20 0xFFFFFFFFFFFFFFFFFFFFFFFFFFFFFFFFFFFFFFFF AND DUP2 MSTORE PUSH1 0x20 ADD SWAP1 DUP2 MSTORE PUSH1 0x20 ADD PUSH1 0x0 KECCAK256 PUSH1 0x1 ADD SLOAD GT PUSH2 0xEBE JUMPI PUSH1 0x40 MLOAD PUSH32 0x8C379A000000000000000000000000000000000000000000000000000000000 DUP2 MSTORE PUSH1 0x4 ADD PUSH2 0xEB5 SWAP1 PUSH2 0x2688 JUMP JUMPDEST PUSH1 0x40 MLOAD DUP1 SWAP2 SUB SWAP1 REVERT JUMPDEST PUSH1 0x0 PUSH1 0xA PUSH1 0x0 CALLER PUSH20 0xFFFFFFFFFFFFFFFFFFFFFFFFFFFFFFFFFFFFFFFF AND PUSH20 0xFFFFFFFFFFFFFFFFFFFFFFFFFFFFFFFFFFFFFFFF AND DUP2 MSTORE PUSH1 0x20 ADD SWAP1 DUP2 MSTORE PUSH1 0x20 ADD PUSH1 0x0 KECCAK256 PUSH1 0x1 ADD SLOAD SWAP1 POP SELFBALANCE DUP2 GT ISZERO PUSH2 0xF48 JUMPI PUSH1 0x40 MLOAD PUSH32 0x8C379A000000000000000000000000000000000000000000000000000000000 DUP2 MSTORE PUSH1 0x4 ADD PUSH2 0xF3F SWAP1 PUSH2 0x26F4 JUMP JUMPDEST PUSH1 0x40 MLOAD DUP1 SWAP2 SUB SWAP1 REVERT JUMPDEST PUSH1 0x0 PUSH1 0xA PUSH1 0x0 CALLER PUSH20 0xFFFFFFFFFFFFFFFFFFFFFFFFFFFFFFFFFFFFFFFF AND PUSH20 0xFFFFFFFFFFFFFFFFFFFFFFFFFFFFFFFFFFFFFFFF AND DUP2 MSTORE PUSH1 0x20 ADD SWAP1 DUP2 MSTORE PUSH1 0x20 ADD PUSH1 0x0 KECCAK256 PUSH1 0x1 ADD DUP2 SWAP1 SSTORE POP PUSH1 0x0 PUSH1 0xA PUSH1 0x0 CALLER PUSH20 0xFFFFFFFFFFFFFFFFFFFFFFFFFFFFFFFFFFFFFFFF AND PUSH20 0xFFFFFFFFFFFFFFFFFFFFFFFFFFFFFFFFFFFFFFFF AND DUP2 MSTORE PUSH1 0x20 ADD SWAP1 DUP2 MSTORE PUSH1 0x20 ADD PUSH1 0x0 KECCAK256 PUSH1 0x0 ADD DUP2 SWAP1 SSTORE POP PUSH1 0x0 PUSH1 0xA PUSH1 0x0 CALLER PUSH20 0xFFFFFFFFFFFFFFFFFFFFFFFFFFFFFFFFFFFFFFFF AND PUSH20 0xFFFFFFFFFFFFFFFFFFFFFFFFFFFFFFFFFFFFFFFF AND DUP2 MSTORE PUSH1 0x20 ADD SWAP1 DUP2 MSTORE PUSH1 0x20 ADD PUSH1 0x0 KECCAK256 PUSH1 0x2 ADD PUSH1 0x0 PUSH2 0x100 EXP DUP2 SLOAD DUP2 PUSH1 0xFF MUL NOT AND SWAP1 DUP4 ISZERO ISZERO MUL OR SWAP1 SSTORE POP PUSH1 0x0 PUSH1 0x7 PUSH1 0x0 PUSH2 0x100 EXP DUP2 SLOAD DUP2 PUSH20 0xFFFFFFFFFFFFFFFFFFFFFFFFFFFFFFFFFFFFFFFF MUL NOT AND SWAP1 DUP4 PUSH20 0xFFFFFFFFFFFFFFFFFFFFFFFFFFFFFFFFFFFFFFFF AND MUL OR SWAP1 SSTORE POP PUSH1 0x0 PUSH1 0x6 DUP2 SWAP1 SSTORE POP PUSH1 0x0 PUSH1 0x4 DUP2 SWAP1 SSTORE POP PUSH1 0x0 DUP1 PUSH1 0x0 PUSH2 0x100 EXP DUP2 SLOAD DUP2 PUSH1 0xFF MUL NOT AND SWAP1 DUP4 PUSH1 0x2 DUP2 GT ISZERO PUSH2 0x10AA JUMPI PUSH2 0x10A9 PUSH2 0x1DAF JUMP JUMPDEST JUMPDEST MUL OR SWAP1 SSTORE POP CALLER PUSH20 0xFFFFFFFFFFFFFFFFFFFFFFFFFFFFFFFFFFFFFFFF AND PUSH2 0x8FC DUP3 SWAP1 DUP2 ISZERO MUL SWAP1 PUSH1 0x40 MLOAD PUSH1 0x0 PUSH1 0x40 MLOAD DUP1 DUP4 SUB DUP2 DUP6 DUP9 DUP9 CALL SWAP4 POP POP POP POP ISZERO DUP1 ISZERO PUSH2 0x10F5 JUMPI RETURNDATASIZE PUSH1 0x0 DUP1 RETURNDATACOPY RETURNDATASIZE PUSH1 0x0 REVERT JUMPDEST POP PUSH1 0x0 DUP2 CALLER PUSH20 0xFFFFFFFFFFFFFFFFFFFFFFFFFFFFFFFFFFFFFFFF AND PUSH32 0xD42C544626F700952F5443E6492F095DA0D472B7FB1E9DAF9A722EB8FEB0718 PUSH1 0x40 MLOAD PUSH1 0x40 MLOAD DUP1 SWAP2 SUB SWAP1 LOG4 POP JUMP JUMPDEST PUSH1 0x4 SLOAD DUP2 JUMP JUMPDEST PUSH1 0x9 DUP2 DUP2 SLOAD DUP2 LT PUSH2 0x1155 JUMPI PUSH1 0x0 DUP1 REVERT JUMPDEST SWAP1 PUSH1 0x0 MSTORE PUSH1 0x20 PUSH1 0x0 KECCAK256 ADD PUSH1 0x0 SWAP2 POP SLOAD SWAP1 PUSH2 0x100 EXP SWAP1 DIV PUSH20 0xFFFFFFFFFFFFFFFFFFFFFFFFFFFFFFFFFFFFFFFF AND DUP2 JUMP JUMPDEST PUSH1 0x1 SLOAD DUP2 JUMP JUMPDEST PUSH1 0x5 SLOAD DUP2 JUMP JUMPDEST PUSH1 0x1 DUP2 JUMP JUMPDEST CALLER PUSH20 0xFFFFFFFFFFFFFFFFFFFFFFFFFFFFFFFFFFFFFFFF AND PUSH1 0x2 PUSH1 0x0 SWAP1 SLOAD SWAP1 PUSH2 0x100 EXP SWAP1 DIV PUSH20 0xFFFFFFFFFFFFFFFFFFFFFFFFFFFFFFFFFFFFFFFF AND PUSH20 0xFFFFFFFFFFFFFFFFFFFFFFFFFFFFFFFFFFFFFFFF AND EQ PUSH2 0x1225 JUMPI PUSH1 0x40 MLOAD PUSH32 0x8C379A000000000000000000000000000000000000000000000000000000000 DUP2 MSTORE PUSH1 0x4 ADD PUSH2 0x121C SWAP1 PUSH2 0x2760 JUMP JUMPDEST PUSH1 0x40 MLOAD DUP1 SWAP2 SUB SWAP1 REVERT JUMPDEST PUSH1 0x0 PUSH1 0x2 DUP2 GT ISZERO PUSH2 0x1239 JUMPI PUSH2 0x1238 PUSH2 0x1DAF JUMP JUMPDEST JUMPDEST PUSH1 0x0 DUP1 SLOAD SWAP1 PUSH2 0x100 EXP SWAP1 DIV PUSH1 0xFF AND PUSH1 0x2 DUP2 GT ISZERO PUSH2 0x1259 JUMPI PUSH2 0x1258 PUSH2 0x1DAF JUMP JUMPDEST JUMPDEST EQ PUSH2 0x1299 JUMPI PUSH1 0x40 MLOAD PUSH32 0x8C379A000000000000000000000000000000000000000000000000000000000 DUP2 MSTORE PUSH1 0x4 ADD PUSH2 0x1290 SWAP1 PUSH2 0x1E3B JUMP JUMPDEST PUSH1 0x40 MLOAD DUP1 SWAP2 SUB SWAP1 REVERT JUMPDEST DUP1 PUSH20 0xFFFFFFFFFFFFFFFFFFFFFFFFFFFFFFFFFFFFFFFF AND CALLER PUSH20 0xFFFFFFFFFFFFFFFFFFFFFFFFFFFFFFFFFFFFFFFF AND EQ ISZERO DUP1 ISZERO PUSH2 0x1302 JUMPI POP PUSH1 0x0 PUSH20 0xFFFFFFFFFFFFFFFFFFFFFFFFFFFFFFFFFFFFFFFF AND DUP2 PUSH20 0xFFFFFFFFFFFFFFFFFFFFFFFFFFFFFFFFFFFFFFFF AND EQ ISZERO JUMPDEST PUSH2 0x1341 JUMPI PUSH1 0x40 MLOAD PUSH32 0x8C379A000000000000000000000000000000000000000000000000000000000 DUP2 MSTORE PUSH1 0x4 ADD PUSH2 0x1338 SWAP1 PUSH2 0x27F2 JUMP JUMPDEST PUSH1 0x40 MLOAD DUP1 SWAP2 SUB SWAP1 REVERT JUMPDEST PUSH1 0x8 SLOAD PUSH1 0xA PUSH1 0x0 DUP4 PUSH20 0xFFFFFFFFFFFFFFFFFFFFFFFFFFFFFFFFFFFFFFFF AND PUSH20 0xFFFFFFFFFFFFFFFFFFFFFFFFFFFFFFFFFFFFFFFF AND DUP2 MSTORE PUSH1 0x20 ADD SWAP1 DUP2 MSTORE PUSH1 0x20 ADD PUSH1 0x0 KECCAK256 PUSH1 0x1 ADD SLOAD LT ISZERO PUSH2 0x13C8 JUMPI PUSH1 0x40 MLOAD PUSH32 0x8C379A000000000000000000000000000000000000000000000000000000000 DUP2 MSTORE PUSH1 0x4 ADD PUSH2 0x13BF SWAP1 PUSH2 0x285E JUMP JUMPDEST PUSH1 0x40 MLOAD DUP1 SWAP2 SUB SWAP1 REVERT JUMPDEST DUP1 PUSH1 0x7 PUSH1 0x0 PUSH2 0x100 EXP DUP2 SLOAD DUP2 PUSH20 0xFFFFFFFFFFFFFFFFFFFFFFFFFFFFFFFFFFFFFFFF MUL NOT AND SWAP1 DUP4 PUSH20 0xFFFFFFFFFFFFFFFFFFFFFFFFFFFFFFFFFFFFFFFF AND MUL OR SWAP1 SSTORE POP PUSH3 0x278D00 TIMESTAMP PUSH2 0x1418 SWAP2 SWAP1 PUSH2 0x22CA JUMP JUMPDEST PUSH1 0x6 DUP2 SWAP1 SSTORE POP PUSH1 0xA PUSH1 0x0 PUSH1 0x7 PUSH1 0x0 SWAP1 SLOAD SWAP1 PUSH2 0x100 EXP SWAP1 DIV PUSH20 0xFFFFFFFFFFFFFFFFFFFFFFFFFFFFFFFFFFFFFFFF AND PUSH20 0xFFFFFFFFFFFFFFFFFFFFFFFFFFFFFFFFFFFFFFFF AND PUSH20 0xFFFFFFFFFFFFFFFFFFFFFFFFFFFFFFFFFFFFFFFF AND DUP2 MSTORE PUSH1 0x20 ADD SWAP1 DUP2 MSTORE PUSH1 0x20 ADD PUSH1 0x0 KECCAK256 PUSH1 0x0 ADD SLOAD PUSH1 0x4 DUP2 SWAP1 SSTORE POP PUSH1 0x0 JUMPDEST PUSH1 0x9 DUP1 SLOAD SWAP1 POP DUP2 LT ISZERO PUSH2 0x1AD7 JUMPI PUSH1 0x7 PUSH1 0x0 SWAP1 SLOAD SWAP1 PUSH2 0x100 EXP SWAP1 DIV PUSH20 0xFFFFFFFFFFFFFFFFFFFFFFFFFFFFFFFFFFFFFFFF AND PUSH20 0xFFFFFFFFFFFFFFFFFFFFFFFFFFFFFFFFFFFFFFFF AND PUSH1 0x9 DUP3 DUP2 SLOAD DUP2 LT PUSH2 0x14E6 JUMPI PUSH2 0x14E5 PUSH2 0x287E JUMP JUMPDEST JUMPDEST SWAP1 PUSH1 0x0 MSTORE PUSH1 0x20 PUSH1 0x0 KECCAK256 ADD PUSH1 0x0 SWAP1 SLOAD SWAP1 PUSH2 0x100 EXP SWAP1 DIV PUSH20 0xFFFFFFFFFFFFFFFFFFFFFFFFFFFFFFFFFFFFFFFF AND PUSH20 0xFFFFFFFFFFFFFFFFFFFFFFFFFFFFFFFFFFFFFFFF AND EQ PUSH2 0x1813 JUMPI PUSH1 0x0 PUSH1 0x9 DUP3 DUP2 SLOAD DUP2 LT PUSH2 0x1542 JUMPI PUSH2 0x1541 PUSH2 0x287E JUMP JUMPDEST JUMPDEST SWAP1 PUSH1 0x0 MSTORE PUSH1 0x20 PUSH1 0x0 KECCAK256 ADD PUSH1 0x0 SWAP1 SLOAD SWAP1 PUSH2 0x100 EXP SWAP1 DIV PUSH20 0xFFFFFFFFFFFFFFFFFFFFFFFFFFFFFFFFFFFFFFFF AND SWAP1 POP PUSH1 0x0 PUSH1 0x64 PUSH1 0x1 PUSH1 0xA PUSH1 0x0 DUP8 PUSH20 0xFFFFFFFFFFFFFFFFFFFFFFFFFFFFFFFFFFFFFFFF AND PUSH20 0xFFFFFFFFFFFFFFFFFFFFFFFFFFFFFFFFFFFFFFFF AND DUP2 MSTORE PUSH1 0x20 ADD SWAP1 DUP2 MSTORE PUSH1 0x20 ADD PUSH1 0x0 KECCAK256 PUSH1 0x1 ADD SLOAD PUSH2 0x15C2 SWAP2 SWAP1 PUSH2 0x22FE JUMP JUMPDEST PUSH2 0x15CC SWAP2 SWAP1 PUSH2 0x236F JUMP JUMPDEST SWAP1 POP PUSH1 0x0 DUP2 PUSH1 0xA PUSH1 0x0 DUP6 PUSH20 0xFFFFFFFFFFFFFFFFFFFFFFFFFFFFFFFFFFFFFFFF AND PUSH20 0xFFFFFFFFFFFFFFFFFFFFFFFFFFFFFFFFFFFFFFFF AND DUP2 MSTORE PUSH1 0x20 ADD SWAP1 DUP2 MSTORE PUSH1 0x20 ADD PUSH1 0x0 KECCAK256 PUSH1 0x1 ADD SLOAD PUSH2 0x161E SWAP2 SWAP1 PUSH2 0x23A0 JUMP JUMPDEST SWAP1 POP PUSH1 0x0 PUSH1 0xA PUSH1 0x0 DUP6 PUSH20 0xFFFFFFFFFFFFFFFFFFFFFFFFFFFFFFFFFFFFFFFF AND PUSH20 0xFFFFFFFFFFFFFFFFFFFFFFFFFFFFFFFFFFFFFFFF AND DUP2 MSTORE PUSH1 0x20 ADD SWAP1 DUP2 MSTORE PUSH1 0x20 ADD PUSH1 0x0 KECCAK256 PUSH1 0x1 ADD DUP2 SWAP1 SSTORE POP PUSH1 0x0 PUSH1 0xA PUSH1 0x0 DUP6 PUSH20 0xFFFFFFFFFFFFFFFFFFFFFFFFFFFFFFFFFFFFFFFF AND PUSH20 0xFFFFFFFFFFFFFFFFFFFFFFFFFFFFFFFFFFFFFFFF AND DUP2 MSTORE PUSH1 0x20 ADD SWAP1 DUP2 MSTORE PUSH1 0x20 ADD PUSH1 0x0 KECCAK256 PUSH1 0x0 ADD DUP2 SWAP1 SSTORE POP DUP3 PUSH20 0xFFFFFFFFFFFFFFFFFFFFFFFFFFFFFFFFFFFFFFFF AND PUSH2 0x8FC DUP3 SWAP1 DUP2 ISZERO MUL SWAP1 PUSH1 0x40 MLOAD PUSH1 0x0 PUSH1 0x40 MLOAD DUP1 DUP4 SUB DUP2 DUP6 DUP9 DUP9 CALL SWAP4 POP POP POP POP ISZERO DUP1 ISZERO PUSH2 0x16F6 JUMPI RETURNDATASIZE PUSH1 0x0 DUP1 RETURNDATACOPY RETURNDATASIZE PUSH1 0x0 REVERT JUMPDEST POP PUSH1 0x0 PUSH1 0x3 PUSH1 0x0 SWAP1 SLOAD SWAP1 PUSH2 0x100 EXP SWAP1 DIV PUSH20 0xFFFFFFFFFFFFFFFFFFFFFFFFFFFFFFFFFFFFFFFF AND PUSH20 0xFFFFFFFFFFFFFFFFFFFFFFFFFFFFFFFFFFFFFFFF AND DUP4 PUSH1 0x40 MLOAD PUSH2 0x173F SWAP1 PUSH2 0x2405 JUMP JUMPDEST PUSH1 0x0 PUSH1 0x40 MLOAD DUP1 DUP4 SUB DUP2 DUP6 DUP8 GAS CALL SWAP3 POP POP POP RETURNDATASIZE DUP1 PUSH1 0x0 DUP2 EQ PUSH2 0x177C JUMPI PUSH1 0x40 MLOAD SWAP2 POP PUSH1 0x1F NOT PUSH1 0x3F RETURNDATASIZE ADD AND DUP3 ADD PUSH1 0x40 MSTORE RETURNDATASIZE DUP3 MSTORE RETURNDATASIZE PUSH1 0x0 PUSH1 0x20 DUP5 ADD RETURNDATACOPY PUSH2 0x1781 JUMP JUMPDEST PUSH1 0x60 SWAP2 POP JUMPDEST POP POP SWAP1 POP DUP1 PUSH2 0x17C5 JUMPI PUSH1 0x40 MLOAD PUSH32 0x8C379A000000000000000000000000000000000000000000000000000000000 DUP2 MSTORE PUSH1 0x4 ADD PUSH2 0x17BC SWAP1 PUSH2 0x2466 JUMP JUMPDEST PUSH1 0x40 MLOAD DUP1 SWAP2 SUB SWAP1 REVERT JUMPDEST DUP3 DUP3 DUP6 PUSH20 0xFFFFFFFFFFFFFFFFFFFFFFFFFFFFFFFFFFFFFFFF AND PUSH32 0xD42C544626F700952F5443E6492F095DA0D472B7FB1E9DAF9A722EB8FEB0718 PUSH1 0x40 MLOAD PUSH1 0x40 MLOAD DUP1 SWAP2 SUB SWAP1 LOG4 POP POP POP POP PUSH2 0x1AC4 JUMP JUMPDEST PUSH1 0x0 PUSH1 0x64 PUSH1 0x1 PUSH1 0x4 SLOAD PUSH2 0x1826 SWAP2 SWAP1 PUSH2 0x22FE JUMP JUMPDEST PUSH2 0x1830 SWAP2 SWAP1 PUSH2 0x236F JUMP JUMPDEST SWAP1 POP DUP1 PUSH1 0x4 SLOAD PUSH2 0x1840 SWAP2 SWAP1 PUSH2 0x22CA JUMP JUMPDEST PUSH1 0xA PUSH1 0x0 DUP6 PUSH20 0xFFFFFFFFFFFFFFFFFFFFFFFFFFFFFFFFFFFFFFFF AND PUSH20 0xFFFFFFFFFFFFFFFFFFFFFFFFFFFFFFFFFFFFFFFF AND DUP2 MSTORE PUSH1 0x20 ADD SWAP1 DUP2 MSTORE PUSH1 0x20 ADD PUSH1 0x0 KECCAK256 PUSH1 0x1 ADD PUSH1 0x0 DUP3 DUP3 SLOAD PUSH2 0x1891 SWAP2 SWAP1 PUSH2 0x23A0 JUMP JUMPDEST SWAP3 POP POP DUP2 SWAP1 SSTORE POP PUSH1 0x1 PUSH1 0x0 DUP1 PUSH2 0x100 EXP DUP2 SLOAD DUP2 PUSH1 0xFF MUL NOT AND SWAP1 DUP4 PUSH1 0x2 DUP2 GT ISZERO PUSH2 0x18BD JUMPI PUSH2 0x18BC PUSH2 0x1DAF JUMP JUMPDEST JUMPDEST MUL OR SWAP1 SSTORE POP PUSH1 0x1 PUSH1 0xA PUSH1 0x0 DUP6 PUSH20 0xFFFFFFFFFFFFFFFFFFFFFFFFFFFFFFFFFFFFFFFF AND PUSH20 0xFFFFFFFFFFFFFFFFFFFFFFFFFFFFFFFFFFFFFFFF AND DUP2 MSTORE PUSH1 0x20 ADD SWAP1 DUP2 MSTORE PUSH1 0x20 ADD PUSH1 0x0 KECCAK256 PUSH1 0x2 ADD PUSH1 0x0 PUSH2 0x100 EXP DUP2 SLOAD DUP2 PUSH1 0xFF MUL NOT AND SWAP1 DUP4 ISZERO ISZERO MUL OR SWAP1 SSTORE POP PUSH1 0x2 PUSH1 0x0 SWAP1 SLOAD SWAP1 PUSH2 0x100 EXP SWAP1 DIV PUSH20 0xFFFFFFFFFFFFFFFFFFFFFFFFFFFFFFFFFFFFFFFF AND PUSH20 0xFFFFFFFFFFFFFFFFFFFFFFFFFFFFFFFFFFFFFFFF AND PUSH2 0x8FC PUSH1 0x4 SLOAD SWAP1 DUP2 ISZERO MUL SWAP1 PUSH1 0x40 MLOAD PUSH1 0x0 PUSH1 0x40 MLOAD DUP1 DUP4 SUB DUP2 DUP6 DUP9 DUP9 CALL SWAP4 POP POP POP POP ISZERO DUP1 ISZERO PUSH2 0x1987 JUMPI RETURNDATASIZE PUSH1 0x0 DUP1 RETURNDATACOPY RETURNDATASIZE PUSH1 0x0 REVERT JUMPDEST POP PUSH1 0x0 PUSH1 0x3 PUSH1 0x0 SWAP1 SLOAD SWAP1 PUSH2 0x100 EXP SWAP1 DIV PUSH20 0xFFFFFFFFFFFFFFFFFFFFFFFFFFFFFFFFFFFFFFFF AND PUSH20 0xFFFFFFFFFFFFFFFFFFFFFFFFFFFFFFFFFFFFFFFF AND DUP3 PUSH1 0x40 MLOAD PUSH2 0x19D0 SWAP1 PUSH2 0x2405 JUMP JUMPDEST PUSH1 0x0 PUSH1 0x40 MLOAD DUP1 DUP4 SUB DUP2 DUP6 DUP8 GAS CALL SWAP3 POP POP POP RETURNDATASIZE DUP1 PUSH1 0x0 DUP2 EQ PUSH2 0x1A0D JUMPI PUSH1 0x40 MLOAD SWAP2 POP PUSH1 0x1F NOT PUSH1 0x3F RETURNDATASIZE ADD AND DUP3 ADD PUSH1 0x40 MSTORE RETURNDATASIZE DUP3 MSTORE RETURNDATASIZE PUSH1 0x0 PUSH1 0x20 DUP5 ADD RETURNDATACOPY PUSH2 0x1A12 JUMP JUMPDEST PUSH1 0x60 SWAP2 POP JUMPDEST POP POP SWAP1 POP DUP1 PUSH2 0x1A56 JUMPI PUSH1 0x40 MLOAD PUSH32 0x8C379A000000000000000000000000000000000000000000000000000000000 DUP2 MSTORE PUSH1 0x4 ADD PUSH2 0x1A4D SWAP1 PUSH2 0x2466 JUMP JUMPDEST PUSH1 0x40 MLOAD DUP1 SWAP2 SUB SWAP1 REVERT JUMPDEST PUSH1 0x4 SLOAD PUSH1 0x6 SLOAD PUSH1 0x7 PUSH1 0x0 SWAP1 SLOAD SWAP1 PUSH2 0x100 EXP SWAP1 DIV PUSH20 0xFFFFFFFFFFFFFFFFFFFFFFFFFFFFFFFFFFFFFFFF AND PUSH20 0xFFFFFFFFFFFFFFFFFFFFFFFFFFFFFFFFFFFFFFFF AND PUSH32 0xDE83F3C4F0B30046F8683E0AB405E3EED1038C49BCA68B6777831E0F17E2257E PUSH1 0x40 MLOAD PUSH1 0x40 MLOAD DUP1 SWAP2 SUB SWAP1 LOG4 POP POP JUMPDEST DUP1 DUP1 PUSH2 0x1ACF SWAP1 PUSH2 0x28AD JUMP JUMPDEST SWAP2 POP POP PUSH2 0x148C JUMP JUMPDEST POP PUSH1 0x9 PUSH1 0x0 PUSH2 0x1AE6 SWAP2 SWAP1 PUSH2 0x1D71 JUMP JUMPDEST POP JUMP JUMPDEST PUSH1 0x2 PUSH1 0x0 SWAP1 SLOAD SWAP1 PUSH2 0x100 EXP SWAP1 DIV PUSH20 0xFFFFFFFFFFFFFFFFFFFFFFFFFFFFFFFFFFFFFFFF AND DUP2 JUMP JUMPDEST PUSH1 0x0 PUSH1 0x2 DUP2 GT ISZERO PUSH2 0x1B23 JUMPI PUSH2 0x1B22 PUSH2 0x1DAF JUMP JUMPDEST JUMPDEST PUSH1 0x0 DUP1 SLOAD SWAP1 PUSH2 0x100 EXP SWAP1 DIV PUSH1 0xFF AND PUSH1 0x2 DUP2 GT ISZERO PUSH2 0x1B43 JUMPI PUSH2 0x1B42 PUSH2 0x1DAF JUMP JUMPDEST JUMPDEST EQ PUSH2 0x1B83 JUMPI PUSH1 0x40 MLOAD PUSH32 0x8C379A000000000000000000000000000000000000000000000000000000000 DUP2 MSTORE PUSH1 0x4 ADD PUSH2 0x1B7A SWAP1 PUSH2 0x1E3B JUMP JUMPDEST PUSH1 0x40 MLOAD DUP1 SWAP2 SUB SWAP1 REVERT JUMPDEST PUSH1 0x8 SLOAD PUSH1 0xA PUSH1 0x0 CALLER PUSH20 0xFFFFFFFFFFFFFFFFFFFFFFFFFFFFFFFFFFFFFFFF AND PUSH20 0xFFFFFFFFFFFFFFFFFFFFFFFFFFFFFFFFFFFFFFFF AND DUP2 MSTORE PUSH1 0x20 ADD SWAP1 DUP2 MSTORE PUSH1 0x20 ADD PUSH1 0x0 KECCAK256 PUSH1 0x1 ADD SLOAD LT ISZERO PUSH2 0x1C0A JUMPI PUSH1 0x40 MLOAD PUSH32 0x8C379A000000000000000000000000000000000000000000000000000000000 DUP2 MSTORE PUSH1 0x4 ADD PUSH2 0x1C01 SWAP1 PUSH2 0x2967 JUMP JUMPDEST PUSH1 0x40 MLOAD DUP1 SWAP2 SUB SWAP1 REVERT JUMPDEST PUSH1 0x0 PUSH1 0xA PUSH1 0x0 CALLER PUSH20 0xFFFFFFFFFFFFFFFFFFFFFFFFFFFFFFFFFFFFFFFF AND PUSH20 0xFFFFFFFFFFFFFFFFFFFFFFFFFFFFFFFFFFFFFFFF AND DUP2 MSTORE PUSH1 0x20 ADD SWAP1 DUP2 MSTORE PUSH1 0x20 ADD PUSH1 0x0 KECCAK256 PUSH1 0x1 ADD SLOAD SWAP1 POP PUSH1 0x0 PUSH1 0xA PUSH1 0x0 CALLER PUSH20 0xFFFFFFFFFFFFFFFFFFFFFFFFFFFFFFFFFFFFFFFF AND PUSH20 0xFFFFFFFFFFFFFFFFFFFFFFFFFFFFFFFFFFFFFFFF AND DUP2 MSTORE PUSH1 0x20 ADD SWAP1 DUP2 MSTORE PUSH1 0x20 ADD PUSH1 0x0 KECCAK256 PUSH1 0x1 ADD DUP2 SWAP1 SSTORE POP PUSH1 0x0 PUSH1 0xA PUSH1 0x0 CALLER PUSH20 0xFFFFFFFFFFFFFFFFFFFFFFFFFFFFFFFFFFFFFFFF AND PUSH20 0xFFFFFFFFFFFFFFFFFFFFFFFFFFFFFFFFFFFFFFFF AND DUP2 MSTORE PUSH1 0x20 ADD SWAP1 DUP2 MSTORE PUSH1 0x20 ADD PUSH1 0x0 KECCAK256 PUSH1 0x0 ADD DUP2 SWAP1 SSTORE POP CALLER PUSH20 0xFFFFFFFFFFFFFFFFFFFFFFFFFFFFFFFFFFFFFFFF AND PUSH2 0x8FC DUP3 SWAP1 DUP2 ISZERO MUL SWAP1 PUSH1 0x40 MLOAD PUSH1 0x0 PUSH1 0x40 MLOAD DUP1 DUP4 SUB DUP2 DUP6 DUP9 DUP9 CALL SWAP4 POP POP POP POP ISZERO DUP1 ISZERO PUSH2 0x1D27 JUMPI RETURNDATASIZE PUSH1 0x0 DUP1 RETURNDATACOPY RETURNDATASIZE PUSH1 0x0 REVERT JUMPDEST POP PUSH1 0x0 DUP2 CALLER PUSH20 0xFFFFFFFFFFFFFFFFFFFFFFFFFFFFFFFFFFFFFFFF AND PUSH32 0xD42C544626F700952F5443E6492F095DA0D472B7FB1E9DAF9A722EB8FEB0718 PUSH1 0x40 MLOAD PUSH1 0x40 MLOAD DUP1 SWAP2 SUB SWAP1 LOG4 POP JUMP JUMPDEST POP DUP1 SLOAD PUSH1 0x0 DUP3 SSTORE SWAP1 PUSH1 0x0 MSTORE PUSH1 0x20 PUSH1 0x0 KECCAK256 SWAP1 DUP2 ADD SWAP1 PUSH2 0x1D8F SWAP2 SWAP1 PUSH2 0x1D92 JUMP JUMPDEST POP JUMP JUMPDEST JUMPDEST DUP1 DUP3 GT ISZERO PUSH2 0x1DAB JUMPI PUSH1 0x0 DUP2 PUSH1 0x0 SWAP1 SSTORE POP PUSH1 0x1 ADD PUSH2 0x1D93 JUMP JUMPDEST POP SWAP1 JUMP JUMPDEST PUSH32 0x4E487B7100000000000000000000000000000000000000000000000000000000 PUSH1 0x0 MSTORE PUSH1 0x21 PUSH1 0x4 MSTORE PUSH1 0x24 PUSH1 0x0 REVERT JUMPDEST PUSH1 0x0 DUP3 DUP3 MSTORE PUSH1 0x20 DUP3 ADD SWAP1 POP SWAP3 SWAP2 POP POP JUMP JUMPDEST PUSH32 0x5468652061706172746D656E7420697320616C726561647920626F6F6B65642E PUSH1 0x0 DUP3 ADD MSTORE POP JUMP JUMPDEST PUSH1 0x0 PUSH2 0x1E25 PUSH1 0x20 DUP4 PUSH2 0x1DDE JUMP JUMPDEST SWAP2 POP PUSH2 0x1E30 DUP3 PUSH2 0x1DEF JUMP JUMPDEST PUSH1 0x20 DUP3 ADD SWAP1 POP SWAP2 SWAP1 POP JUMP JUMPDEST PUSH1 0x0 PUSH1 0x20 DUP3 ADD SWAP1 POP DUP2 DUP2 SUB PUSH1 0x0 DUP4 ADD MSTORE PUSH2 0x1E54 DUP2 PUSH2 0x1E18 JUMP JUMPDEST SWAP1 POP SWAP2 SWAP1 POP JUMP JUMPDEST PUSH1 0x0 PUSH20 0xFFFFFFFFFFFFFFFFFFFFFFFFFFFFFFFFFFFFFFFF DUP3 AND SWAP1 POP SWAP2 SWAP1 POP JUMP JUMPDEST PUSH1 0x0 PUSH2 0x1E86 DUP3 PUSH2 0x1E5B JUMP JUMPDEST SWAP1 POP SWAP2 SWAP1 POP JUMP JUMPDEST PUSH2 0x1E96 DUP2 PUSH2 0x1E7B JUMP JUMPDEST DUP3 MSTORE POP POP JUMP JUMPDEST PUSH1 0x0 PUSH1 0x20 DUP3 ADD SWAP1 POP PUSH2 0x1EB1 PUSH1 0x0 DUP4 ADD DUP5 PUSH2 0x1E8D JUMP JUMPDEST SWAP3 SWAP2 POP POP JUMP JUMPDEST PUSH1 0x3 DUP2 LT PUSH2 0x1EC8 JUMPI PUSH2 0x1EC7 PUSH2 0x1DAF JUMP JUMPDEST JUMPDEST POP JUMP JUMPDEST PUSH1 0x0 DUP2 SWAP1 POP PUSH2 0x1ED9 DUP3 PUSH2 0x1EB7 JUMP JUMPDEST SWAP2 SWAP1 POP JUMP JUMPDEST PUSH1 0x0 PUSH2 0x1EE9 DUP3 PUSH2 0x1ECB JUMP JUMPDEST SWAP1 POP SWAP2 SWAP1 POP JUMP JUMPDEST PUSH2 0x1EF9 DUP2 PUSH2 0x1EDE JUMP JUMPDEST DUP3 MSTORE POP POP JUMP JUMPDEST PUSH1 0x0 PUSH1 0x20 DUP3 ADD SWAP1 POP PUSH2 0x1F14 PUSH1 0x0 DUP4 ADD DUP5 PUSH2 0x1EF0 JUMP JUMPDEST SWAP3 SWAP2 POP POP JUMP JUMPDEST PUSH1 0x0 DUP2 MLOAD SWAP1 POP SWAP2 SWAP1 POP JUMP JUMPDEST PUSH1 0x0 DUP3 DUP3 MSTORE PUSH1 0x20 DUP3 ADD SWAP1 POP SWAP3 SWAP2 POP POP JUMP JUMPDEST PUSH1 0x0 DUP2 SWAP1 POP PUSH1 0x20 DUP3 ADD SWAP1 POP SWAP2 SWAP1 POP JUMP JUMPDEST PUSH2 0x1F4F DUP2 PUSH2 0x1E7B JUMP JUMPDEST DUP3 MSTORE POP POP JUMP JUMPDEST PUSH1 0x0 PUSH2 0x1F61 DUP4 DUP4 PUSH2 0x1F46 JUMP JUMPDEST PUSH1 0x20 DUP4 ADD SWAP1 POP SWAP3 SWAP2 POP POP JUMP JUMPDEST PUSH1 0x0 PUSH1 0x20 DUP3 ADD SWAP1 POP SWAP2 SWAP1 POP JUMP JUMPDEST PUSH1 0x0 PUSH2 0x1F85 DUP3 PUSH2 0x1F1A JUMP JUMPDEST PUSH2 0x1F8F DUP2 DUP6 PUSH2 0x1F25 JUMP JUMPDEST SWAP4 POP PUSH2 0x1F9A DUP4 PUSH2 0x1F36 JUMP JUMPDEST DUP1 PUSH1 0x0 JUMPDEST DUP4 DUP2 LT ISZERO PUSH2 0x1FCB JUMPI DUP2 MLOAD PUSH2 0x1FB2 DUP9 DUP3 PUSH2 0x1F55 JUMP JUMPDEST SWAP8 POP PUSH2 0x1FBD DUP4 PUSH2 0x1F6D JUMP JUMPDEST SWAP3 POP POP PUSH1 0x1 DUP2 ADD SWAP1 POP PUSH2 0x1F9E JUMP JUMPDEST POP DUP6 SWAP4 POP POP POP POP SWAP3 SWAP2 POP POP JUMP JUMPDEST PUSH1 0x0 PUSH1 0x20 DUP3 ADD SWAP1 POP DUP2 DUP2 SUB PUSH1 0x0 DUP4 ADD MSTORE PUSH2 0x1FF2 DUP2 DUP5 PUSH2 0x1F7A JUMP JUMPDEST SWAP1 POP SWAP3 SWAP2 POP POP JUMP JUMPDEST PUSH1 0x0 DUP2 SWAP1 POP SWAP2 SWAP1 POP JUMP JUMPDEST PUSH2 0x200D DUP2 PUSH2 0x1FFA JUMP JUMPDEST DUP3 MSTORE POP POP JUMP JUMPDEST PUSH1 0x0 PUSH1 0x20 DUP3 ADD SWAP1 POP PUSH2 0x2028 PUSH1 0x0 DUP4 ADD DUP5 PUSH2 0x2004 JUMP JUMPDEST SWAP3 SWAP2 POP POP JUMP JUMPDEST PUSH1 0x0 DUP1 REVERT JUMPDEST PUSH2 0x203C DUP2 PUSH2 0x1E7B JUMP JUMPDEST DUP2 EQ PUSH2 0x2047 JUMPI PUSH1 0x0 DUP1 REVERT JUMPDEST POP JUMP JUMPDEST PUSH1 0x0 DUP2 CALLDATALOAD SWAP1 POP PUSH2 0x2059 DUP2 PUSH2 0x2033 JUMP JUMPDEST SWAP3 SWAP2 POP POP JUMP JUMPDEST PUSH1 0x0 PUSH1 0x20 DUP3 DUP5 SUB SLT ISZERO PUSH2 0x2075 JUMPI PUSH2 0x2074 PUSH2 0x202E JUMP JUMPDEST JUMPDEST PUSH1 0x0 PUSH2 0x2083 DUP5 DUP3 DUP6 ADD PUSH2 0x204A JUMP JUMPDEST SWAP2 POP POP SWAP3 SWAP2 POP POP JUMP JUMPDEST PUSH1 0x0 DUP2 ISZERO ISZERO SWAP1 POP SWAP2 SWAP1 POP JUMP JUMPDEST PUSH2 0x20A1 DUP2 PUSH2 0x208C JUMP JUMPDEST DUP3 MSTORE POP POP JUMP JUMPDEST PUSH1 0x0 PUSH1 0x60 DUP3 ADD SWAP1 POP PUSH2 0x20BC PUSH1 0x0 DUP4 ADD DUP7 PUSH2 0x2004 JUMP JUMPDEST PUSH2 0x20C9 PUSH1 0x20 DUP4 ADD DUP6 PUSH2 0x2004 JUMP JUMPDEST PUSH2 0x20D6 PUSH1 0x40 DUP4 ADD DUP5 PUSH2 0x2098 JUMP JUMPDEST SWAP5 SWAP4 POP POP POP POP JUMP JUMPDEST PUSH2 0x20E7 DUP2 PUSH2 0x1FFA JUMP JUMPDEST DUP2 EQ PUSH2 0x20F2 JUMPI PUSH1 0x0 DUP1 REVERT JUMPDEST POP JUMP JUMPDEST PUSH1 0x0 DUP2 CALLDATALOAD SWAP1 POP PUSH2 0x2104 DUP2 PUSH2 0x20DE JUMP JUMPDEST SWAP3 SWAP2 POP POP JUMP JUMPDEST PUSH1 0x0 DUP1 PUSH1 0x40 DUP4 DUP6 SUB SLT ISZERO PUSH2 0x2121 JUMPI PUSH2 0x2120 PUSH2 0x202E JUMP JUMPDEST JUMPDEST PUSH1 0x0 PUSH2 0x212F DUP6 DUP3 DUP7 ADD PUSH2 0x20F5 JUMP JUMPDEST SWAP3 POP POP PUSH1 0x20 PUSH2 0x2140 DUP6 DUP3 DUP7 ADD PUSH2 0x20F5 JUMP JUMPDEST SWAP2 POP POP SWAP3 POP SWAP3 SWAP1 POP JUMP JUMPDEST PUSH1 0x0 PUSH1 0x20 DUP3 DUP5 SUB SLT ISZERO PUSH2 0x2160 JUMPI PUSH2 0x215F PUSH2 0x202E JUMP JUMPDEST JUMPDEST PUSH1 0x0 PUSH2 0x216E DUP5 DUP3 DUP6 ADD PUSH2 0x20F5 JUMP JUMPDEST SWAP2 POP POP SWAP3 SWAP2 POP POP JUMP JUMPDEST PUSH32 0x6F6E6C79207468652063757272656E742074656E616E742063616E2063616C6C PUSH1 0x0 DUP3 ADD MSTORE PUSH32 0x207468652066756E6374696F6E2E000000000000000000000000000000000000 PUSH1 0x20 DUP3 ADD MSTORE POP JUMP JUMPDEST PUSH1 0x0 PUSH2 0x21D3 PUSH1 0x2E DUP4 PUSH2 0x1DDE JUMP JUMPDEST SWAP2 POP PUSH2 0x21DE DUP3 PUSH2 0x2177 JUMP JUMPDEST PUSH1 0x40 DUP3 ADD SWAP1 POP SWAP2 SWAP1 POP JUMP JUMPDEST PUSH1 0x0 PUSH1 0x20 DUP3 ADD SWAP1 POP DUP2 DUP2 SUB PUSH1 0x0 DUP4 ADD MSTORE PUSH2 0x2202 DUP2 PUSH2 0x21C6 JUMP JUMPDEST SWAP1 POP SWAP2 SWAP1 POP JUMP JUMPDEST PUSH32 0x7468657265206973206E6F7420656E6F756768206465706F73697420666F7220 PUSH1 0x0 DUP3 ADD MSTORE PUSH32 0x746865206E6578742072656E74616C2E00000000000000000000000000000000 PUSH1 0x20 DUP3 ADD MSTORE POP JUMP JUMPDEST PUSH1 0x0 PUSH2 0x2265 PUSH1 0x30 DUP4 PUSH2 0x1DDE JUMP JUMPDEST SWAP2 POP PUSH2 0x2270 DUP3 PUSH2 0x2209 JUMP JUMPDEST PUSH1 0x40 DUP3 ADD SWAP1 POP SWAP2 SWAP1 POP JUMP JUMPDEST PUSH1 0x0 PUSH1 0x20 DUP3 ADD SWAP1 POP DUP2 DUP2 SUB PUSH1 0x0 DUP4 ADD MSTORE PUSH2 0x2294 DUP2 PUSH2 0x2258 JUMP JUMPDEST SWAP1 POP SWAP2 SWAP1 POP JUMP JUMPDEST PUSH32 0x4E487B7100000000000000000000000000000000000000000000000000000000 PUSH1 0x0 MSTORE PUSH1 0x11 PUSH1 0x4 MSTORE PUSH1 0x24 PUSH1 0x0 REVERT JUMPDEST PUSH1 0x0 PUSH2 0x22D5 DUP3 PUSH2 0x1FFA JUMP JUMPDEST SWAP2 POP PUSH2 0x22E0 DUP4 PUSH2 0x1FFA JUMP JUMPDEST SWAP3 POP DUP3 DUP3 ADD SWAP1 POP DUP1 DUP3 GT ISZERO PUSH2 0x22F8 JUMPI PUSH2 0x22F7 PUSH2 0x229B JUMP JUMPDEST JUMPDEST SWAP3 SWAP2 POP POP JUMP JUMPDEST PUSH1 0x0 PUSH2 0x2309 DUP3 PUSH2 0x1FFA JUMP JUMPDEST SWAP2 POP PUSH2 0x2314 DUP4 PUSH2 0x1FFA JUMP JUMPDEST SWAP3 POP DUP3 DUP3 MUL PUSH2 0x2322 DUP2 PUSH2 0x1FFA JUMP JUMPDEST SWAP2 POP DUP3 DUP3 DIV DUP5 EQ DUP4 ISZERO OR PUSH2 0x2339 JUMPI PUSH2 0x2338 PUSH2 0x229B JUMP JUMPDEST JUMPDEST POP SWAP3 SWAP2 POP POP JUMP JUMPDEST PUSH32 0x4E487B7100000000000000000000000000000000000000000000000000000000 PUSH1 0x0 MSTORE PUSH1 0x12 PUSH1 0x4 MSTORE PUSH1 0x24 PUSH1 0x0 REVERT JUMPDEST PUSH1 0x0 PUSH2 0x237A DUP3 PUSH2 0x1FFA JUMP JUMPDEST SWAP2 POP PUSH2 0x2385 DUP4 PUSH2 0x1FFA JUMP JUMPDEST SWAP3 POP DUP3 PUSH2 0x2395 JUMPI PUSH2 0x2394 PUSH2 0x2340 JUMP JUMPDEST JUMPDEST DUP3 DUP3 DIV SWAP1 POP SWAP3 SWAP2 POP POP JUMP JUMPDEST PUSH1 0x0 PUSH2 0x23AB DUP3 PUSH2 0x1FFA JUMP JUMPDEST SWAP2 POP PUSH2 0x23B6 DUP4 PUSH2 0x1FFA JUMP JUMPDEST SWAP3 POP DUP3 DUP3 SUB SWAP1 POP DUP2 DUP2 GT ISZERO PUSH2 0x23CE JUMPI PUSH2 0x23CD PUSH2 0x229B JUMP JUMPDEST JUMPDEST SWAP3 SWAP2 POP POP JUMP JUMPDEST PUSH1 0x0 DUP2 SWAP1 POP SWAP3 SWAP2 POP POP JUMP JUMPDEST POP JUMP JUMPDEST PUSH1 0x0 PUSH2 0x23EF PUSH1 0x0 DUP4 PUSH2 0x23D4 JUMP JUMPDEST SWAP2 POP PUSH2 0x23FA DUP3 PUSH2 0x23DF JUMP JUMPDEST PUSH1 0x0 DUP3 ADD SWAP1 POP SWAP2 SWAP1 POP JUMP JUMPDEST PUSH1 0x0 PUSH2 0x2410 DUP3 PUSH2 0x23E2 JUMP JUMPDEST SWAP2 POP DUP2 SWAP1 POP SWAP2 SWAP1 POP JUMP JUMPDEST PUSH32 0x4661696C65642100000000000000000000000000000000000000000000000000 PUSH1 0x0 DUP3 ADD MSTORE POP JUMP JUMPDEST PUSH1 0x0 PUSH2 0x2450 PUSH1 0x7 DUP4 PUSH2 0x1DDE JUMP JUMPDEST SWAP2 POP PUSH2 0x245B DUP3 PUSH2 0x241A JUMP JUMPDEST PUSH1 0x20 DUP3 ADD SWAP1 POP SWAP2 SWAP1 POP JUMP JUMPDEST PUSH1 0x0 PUSH1 0x20 DUP3 ADD SWAP1 POP DUP2 DUP2 SUB PUSH1 0x0 DUP4 ADD MSTORE PUSH2 0x247F DUP2 PUSH2 0x2443 JUMP JUMPDEST SWAP1 POP SWAP2 SWAP1 POP JUMP JUMPDEST PUSH32 0x596F75206861766520656E7465726564207468652077726F6E67206465706F73 PUSH1 0x0 DUP3 ADD MSTORE PUSH32 0x697420616D6F756E742E00000000000000000000000000000000000000000000 PUSH1 0x20 DUP3 ADD MSTORE POP JUMP JUMPDEST PUSH1 0x0 PUSH2 0x24E2 PUSH1 0x2A DUP4 PUSH2 0x1DDE JUMP JUMPDEST SWAP2 POP PUSH2 0x24ED DUP3 PUSH2 0x2486 JUMP JUMPDEST PUSH1 0x40 DUP3 ADD SWAP1 POP SWAP2 SWAP1 POP JUMP JUMPDEST PUSH1 0x0 PUSH1 0x20 DUP3 ADD SWAP1 POP DUP2 DUP2 SUB PUSH1 0x0 DUP4 ADD MSTORE PUSH2 0x2511 DUP2 PUSH2 0x24D5 JUMP JUMPDEST SWAP1 POP SWAP2 SWAP1 POP JUMP JUMPDEST PUSH32 0x596F7572207072696365206D75737420626520686967686572206F7220657175 PUSH1 0x0 DUP3 ADD MSTORE PUSH32 0x616C20746F20746865206D696E696D756D2070726963652E0000000000000000 PUSH1 0x20 DUP3 ADD MSTORE POP JUMP JUMPDEST PUSH1 0x0 PUSH2 0x2574 PUSH1 0x38 DUP4 PUSH2 0x1DDE JUMP JUMPDEST SWAP2 POP PUSH2 0x257F DUP3 PUSH2 0x2518 JUMP JUMPDEST PUSH1 0x40 DUP3 ADD SWAP1 POP SWAP2 SWAP1 POP JUMP JUMPDEST PUSH1 0x0 PUSH1 0x20 DUP3 ADD SWAP1 POP DUP2 DUP2 SUB PUSH1 0x0 DUP4 ADD MSTORE PUSH2 0x25A3 DUP2 PUSH2 0x2567 JUMP JUMPDEST SWAP1 POP SWAP2 SWAP1 POP JUMP JUMPDEST PUSH32 0x596F7572206465706F736974206D7573742062652061626F7665206F72206571 PUSH1 0x0 DUP3 ADD MSTORE PUSH32 0x75616C20746F20746865206D696E696D756D206465706F7369742E0000000000 PUSH1 0x20 DUP3 ADD MSTORE POP JUMP JUMPDEST PUSH1 0x0 PUSH2 0x2606 PUSH1 0x3B DUP4 PUSH2 0x1DDE JUMP JUMPDEST SWAP2 POP PUSH2 0x2611 DUP3 PUSH2 0x25AA JUMP JUMPDEST PUSH1 0x40 DUP3 ADD SWAP1 POP SWAP2 SWAP1 POP JUMP JUMPDEST PUSH1 0x0 PUSH1 0x20 DUP3 ADD SWAP1 POP DUP2 DUP2 SUB PUSH1 0x0 DUP4 ADD MSTORE PUSH2 0x2635 DUP2 PUSH2 0x25F9 JUMP JUMPDEST SWAP1 POP SWAP2 SWAP1 POP JUMP JUMPDEST PUSH32 0x796F75722062616C616E6365206973207A65726F210000000000000000000000 PUSH1 0x0 DUP3 ADD MSTORE POP JUMP JUMPDEST PUSH1 0x0 PUSH2 0x2672 PUSH1 0x15 DUP4 PUSH2 0x1DDE JUMP JUMPDEST SWAP2 POP PUSH2 0x267D DUP3 PUSH2 0x263C JUMP JUMPDEST PUSH1 0x20 DUP3 ADD SWAP1 POP SWAP2 SWAP1 POP JUMP JUMPDEST PUSH1 0x0 PUSH1 0x20 DUP3 ADD SWAP1 POP DUP2 DUP2 SUB PUSH1 0x0 DUP4 ADD MSTORE PUSH2 0x26A1 DUP2 PUSH2 0x2665 JUMP JUMPDEST SWAP1 POP SWAP2 SWAP1 POP JUMP JUMPDEST PUSH32 0x62616C616E636520636F6E7472616374206C6974746C65206465706F73697400 PUSH1 0x0 DUP3 ADD MSTORE POP JUMP JUMPDEST PUSH1 0x0 PUSH2 0x26DE PUSH1 0x1F DUP4 PUSH2 0x1DDE JUMP JUMPDEST SWAP2 POP PUSH2 0x26E9 DUP3 PUSH2 0x26A8 JUMP JUMPDEST PUSH1 0x20 DUP3 ADD SWAP1 POP SWAP2 SWAP1 POP JUMP JUMPDEST PUSH1 0x0 PUSH1 0x20 DUP3 ADD SWAP1 POP DUP2 DUP2 SUB PUSH1 0x0 DUP4 ADD MSTORE PUSH2 0x270D DUP2 PUSH2 0x26D1 JUMP JUMPDEST SWAP1 POP SWAP2 SWAP1 POP JUMP JUMPDEST PUSH32 0x43616E206F6E6C792065786563757465206C616E646C6F72642E000000000000 PUSH1 0x0 DUP3 ADD MSTORE POP JUMP JUMPDEST PUSH1 0x0 PUSH2 0x274A PUSH1 0x1A DUP4 PUSH2 0x1DDE JUMP JUMPDEST SWAP2 POP PUSH2 0x2755 DUP3 PUSH2 0x2714 JUMP JUMPDEST PUSH1 0x20 DUP3 ADD SWAP1 POP SWAP2 SWAP1 POP JUMP JUMPDEST PUSH1 0x0 PUSH1 0x20 DUP3 ADD SWAP1 POP DUP2 DUP2 SUB PUSH1 0x0 DUP4 ADD MSTORE PUSH2 0x2779 DUP2 PUSH2 0x273D JUMP JUMPDEST SWAP1 POP SWAP2 SWAP1 POP JUMP JUMPDEST PUSH32 0x796F752063616E27742072656E74206120706C61636520627920796F75727365 PUSH1 0x0 DUP3 ADD MSTORE PUSH32 0x6C66210000000000000000000000000000000000000000000000000000000000 PUSH1 0x20 DUP3 ADD MSTORE POP JUMP JUMPDEST PUSH1 0x0 PUSH2 0x27DC PUSH1 0x23 DUP4 PUSH2 0x1DDE JUMP JUMPDEST SWAP2 POP PUSH2 0x27E7 DUP3 PUSH2 0x2780 JUMP JUMPDEST PUSH1 0x40 DUP3 ADD SWAP1 POP SWAP2 SWAP1 POP JUMP JUMPDEST PUSH1 0x0 PUSH1 0x20 DUP3 ADD SWAP1 POP DUP2 DUP2 SUB PUSH1 0x0 DUP4 ADD MSTORE PUSH2 0x280B DUP2 PUSH2 0x27CF JUMP JUMPDEST SWAP1 POP SWAP2 SWAP1 POP JUMP JUMPDEST PUSH32 0x746865206465706F73697420697320746F6F20736D616C6C2100000000000000 PUSH1 0x0 DUP3 ADD MSTORE POP JUMP JUMPDEST PUSH1 0x0 PUSH2 0x2848 PUSH1 0x19 DUP4 PUSH2 0x1DDE JUMP JUMPDEST SWAP2 POP PUSH2 0x2853 DUP3 PUSH2 0x2812 JUMP JUMPDEST PUSH1 0x20 DUP3 ADD SWAP1 POP SWAP2 SWAP1 POP JUMP JUMPDEST PUSH1 0x0 PUSH1 0x20 DUP3 ADD SWAP1 POP DUP2 DUP2 SUB PUSH1 0x0 DUP4 ADD MSTORE PUSH2 0x2877 DUP2 PUSH2 0x283B JUMP JUMPDEST SWAP1 POP SWAP2 SWAP1 POP JUMP JUMPDEST PUSH32 0x4E487B7100000000000000000000000000000000000000000000000000000000 PUSH1 0x0 MSTORE PUSH1 0x32 PUSH1 0x4 MSTORE PUSH1 0x24 PUSH1 0x0 REVERT JUMPDEST PUSH1 0x0 PUSH2 0x28B8 DUP3 PUSH2 0x1FFA JUMP JUMPDEST SWAP2 POP PUSH32 0xFFFFFFFFFFFFFFFFFFFFFFFFFFFFFFFFFFFFFFFFFFFFFFFFFFFFFFFFFFFFFFFF DUP3 SUB PUSH2 0x28EA JUMPI PUSH2 0x28E9 PUSH2 0x229B JUMP JUMPDEST JUMPDEST PUSH1 0x1 DUP3 ADD SWAP1 POP SWAP2 SWAP1 POP JUMP JUMPDEST PUSH32 0x796F7572206465706F736974206973206C657373207468616E20746865206573 PUSH1 0x0 DUP3 ADD MSTORE PUSH32 0x7461626C6973686564206D696E696D756D2E0000000000000000000000000000 PUSH1 0x20 DUP3 ADD MSTORE POP JUMP JUMPDEST PUSH1 0x0 PUSH2 0x2951 PUSH1 0x32 DUP4 PUSH2 0x1DDE JUMP JUMPDEST SWAP2 POP PUSH2 0x295C DUP3 PUSH2 0x28F5 JUMP JUMPDEST PUSH1 0x40 DUP3 ADD SWAP1 POP SWAP2 SWAP1 POP JUMP JUMPDEST PUSH1 0x0 PUSH1 0x20 DUP3 ADD SWAP1 POP DUP2 DUP2 SUB PUSH1 0x0 DUP4 ADD MSTORE PUSH2 0x2980 DUP2 PUSH2 0x2944 JUMP JUMPDEST SWAP1 POP SWAP2 SWAP1 POP JUMP INVALID LOG2 PUSH5 0x6970667358 0x22 SLT KECCAK256 SWAP6 CALLDATALOAD SWAP3 PUSH11 0x3C15E0046B1204FDD3D219 PUSH5 0xCA358AE30E SELFBALANCE 0xDD 0x1E 0x49 SIGNEXTEND 0xB6 SELFBALANCE CALLER SWAP9 0xEB SSTORE PUSH5 0x736F6C6343 STOP ADDMOD SLT STOP CALLER LOG2 PUSH5 0x6970667358 0x22 SLT KECCAK256 0xEA DIV PUSH16 0xE5C44DF56652A21F02DEFDF9B61149E3 0xA9 0xC 0xD4 0x2E SWAP11 SWAP6 0xF7 CREATE2 AND 0x5C 0xC3 PUSH23 0x964736F6C634300081200330000000000000000000000 "
				},
				"gasEstimates": {
					"creation": {
						"codeDepositCost": "2832000",
						"executionCost": "27358",
						"totalCost": "2859358"
					},
					"external": {
						"create_offer(uint256,uint256,uint256)": "infinite",
						"get_offersId()": "infinite",
						"idStructOffer(uint256)": "infinite",
						"offersId(uint256)": "infinite",
						"ownerFactory()": "2555",
						"withdrawComission(address,uint256)": "infinite"
					}
				},
				"methodIdentifiers": {
					"create_offer(uint256,uint256,uint256)": "cb7e142e",
					"get_offersId()": "b0e743dd",
					"idStructOffer(uint256)": "e78fec6f",
					"offersId(uint256)": "d42a6937",
					"ownerFactory()": "d2779e0e",
					"withdrawComission(address,uint256)": "28799a8e"
				}
			},
			"storageLayout": {
				"storage": [
					{
						"astId": 4,
						"contract": "Factory.sol:Factory",
						"label": "ownerFactory",
						"offset": 0,
						"slot": "0",
						"type": "t_address"
					},
					{
						"astId": 7,
						"contract": "Factory.sol:Factory",
						"label": "offersId",
						"offset": 0,
						"slot": "1",
						"type": "t_array(t_uint256)dyn_storage"
					},
					{
						"astId": 12,
						"contract": "Factory.sol:Factory",
						"label": "idStructOffer",
						"offset": 0,
						"slot": "2",
						"type": "t_mapping(t_uint256,t_struct(OfferStr)48_storage)"
					}
				],
				"types": {
					"t_address": {
						"encoding": "inplace",
						"label": "address",
						"numberOfBytes": "20"
					},
					"t_array(t_uint256)dyn_storage": {
						"base": "t_uint256",
						"encoding": "dynamic_array",
						"label": "uint256[]",
						"numberOfBytes": "32"
					},
					"t_mapping(t_uint256,t_struct(OfferStr)48_storage)": {
						"encoding": "mapping",
						"key": "t_uint256",
						"label": "mapping(uint256 => struct Factory.OfferStr)",
						"numberOfBytes": "32",
						"value": "t_struct(OfferStr)48_storage"
					},
					"t_struct(OfferStr)48_storage": {
						"encoding": "inplace",
						"label": "struct Factory.OfferStr",
						"members": [
							{
								"astId": 43,
								"contract": "Factory.sol:Factory",
								"label": "offer",
								"offset": 0,
								"slot": "0",
								"type": "t_address"
							},
							{
								"astId": 45,
								"contract": "Factory.sol:Factory",
								"label": "min_price",
								"offset": 0,
								"slot": "1",
								"type": "t_uint256"
							},
							{
								"astId": 47,
								"contract": "Factory.sol:Factory",
								"label": "min_deposit",
								"offset": 0,
								"slot": "2",
								"type": "t_uint256"
							}
						],
						"numberOfBytes": "96"
					},
					"t_uint256": {
						"encoding": "inplace",
						"label": "uint256",
						"numberOfBytes": "32"
					}
				}
			},
			"userdoc": {
				"kind": "user",
				"methods": {},
				"version": 1
			}
		}
	}
}